:020000040800F2
:1000000088080020D9000008FF000008010100084E
:1000100003010008050100080701000800000000B6
:1000200000000000000000000000000009010008BE
:100030000B010008000000000D010008591C000819
:10004000CD0E0008D10E0008D30E0008CF0E000818
:10005000A911000800000000DF0A00083934000878
:100060004D340008FD1B0008FF1B0008F90B0008B9
:100070000D0C00081D0C00081F0C0008A91C00082E
:10008000AD1C0008BD1C0008CD1C0008E11C0008C8
:10009000E31C0008310F0008DD0E0008893300085A
:1000A0008B3300080000000000000000000000008A
:1000B00000000000890A0008110B0008C92600088A
:1000C0000448854600F0B0FC0048004701400008A5
:1000D000C046C046880800200E480F4901600F48FE
:1000E0000F4901600F481049016010481049016034
:1000F0000C48104901601048804710480047FEE74F
:10010000FEE7FEE7FEE7FEE7FEE7FEE7FEE7FEE7C7
:10011000FEE700001030004010005FA0DC0300404C
:1001200001005FA000100240000080005C1002404F
:1001300060005FA0000000005D1C0008C100000816
:1001400030B50B46014600202022012409E00D466F
:10015000D5409D4205D31D469540491B25469540F7
:1001600040191546521E002DF1DC30BD70B500243B
:100170002546002801DA01244042002901DA012540
:100180004942FFF7DDFFAC4200D04042002C00D0D6
:10019000494270BD03460B439B0703D009E008C9E1
:1001A000121F08C0042AFAD203E00B780370401C27
:1001B000491C521EF9D27047D2B201E00270401CB5
:1001C000491EFBD270470022F6E710B513460A46D7
:1001D00004461946FFF7F0FF204610BD421E537833
:1001E000521C002BFBD10B781370491C521C002BA6
:1001F000F9D17047421C0178401C0029FBD1801ABC
:100200007047F8B502464A40D40F42004B005208EE
:100210005B089A4202D20246084611464A0023D0A1
:10022000C30D4A00DDB2120EAD1A202D35DA490297
:100230000126490AF6058A19002C00D052422021D5
:100240004F1B1146B9402A411018C20D9A4221D0C5
:10025000002C17D0012D08DCDA05801AD20F801986
:10026000D207DBB200F048FBF8BDDA05801A0123A3
:1002700040001B06C01880185A428018CA0F10434D
:10028000490007E04908C2071143DA05801A8019BE
:100290004008801800F028FBF8BD61000122511AC7
:1002A000001BF7E70122D2075140AAE70122D2073B
:1002B0005040A6E7024670B54A40D30FDB07400026
:1002C0002DD04A002AD0010E140E00021202091984
:1002D000400A520A8418E50104465443000A120AEF
:1002E0002E045043A4194219200CC543AA18120C1D
:1002F0000125AD03521C521912047F39240400D089
:10030000521C104301D44000491EC2B20C06C00961
:100310002018401C4008802A02D003E0002070BD55
:1003200040084000002900DA0020184370BD70B575
:1003300002464A40D50F40004A00ED0740085208E7
:10034000002814D0002A12D0C40DD30D4102012080
:10035000C0055202490A520AE41A091812187D34DB
:10036000914201D3641C00E04900002C01DA002016
:1003700070BD0023914201D3891A0343400849000C
:100380000028F7D100290AD0914202D10121C907E2
:1003900005E0914201D2012101E00121C943E005BC
:1003A000C018401900F0A0FA70BD0000F0B5074673
:1003B0000846584087B0C00F049048000E465900C8
:1003C00040084908BC1A884105D2384631461E46C5
:1003D00017460B4602465800400810434DD0300DDA
:1003E000039040055900400D490D0590401A0290B8
:1003F000402873DA18030121000B09050843019016
:1004000004980092002806D01146019A4942002023
:10041000904100910190029840210A1A0199009898
:1004200000F02EFA05460C466B4607CB00F049FA61
:10043000C0197141039A0E0D0023D71756401A4672
:100440007A40164344D0049A002A2DD0029A012AF9
:10045000039A15DC1205C01A914101263605001CCD
:100460007141D20F059ED2070093019202962A464F
:10047000234600F087FA07B0F0BD38463146FAE768
:100480001605234A0F46B218C01AB74101210905C3
:10049000001C4F4100187F41114618187941E20FA6
:1004A00010436D19644113E0E2076D0815436408B9
:1004B000C2071443039A01261205C01A914136055A
:1004C000001C7141CE07400830434908C018514113
:1004D0002A46234600F049FACDE7FFE704980122B7
:1004E0004000C117121A00238B4104983146C417EB
:1004F000381AA141EEE730B40124E407634030BC70
:1005000054E730B40124E407614030BC4EE70000FA
:100510000000E0FFF0B51FB488B00B9909980024E3
:1005200048400999C00F490049080991C0070B9933
:100530000090490049080B9109990898A64608437C
:100540001CD00B990A98084318D009980124400040
:10055000420D4800410D099824050003000B20437B
:1005600009900B980003000B20430B9050181C4976
:100570004018002201901446104605E00020014674
:100580000DB0F0BD032801DA034600E003239C46CA
:10059000C11A0AAE0AE05F0008ADED5B4F00F75BE1
:1005A0007D430027AA187C41491C5B1E6145F2DD92
:1005B000410004AB5A522104120C0A43240C401C83
:1005C0000828DFDB019802900099704601910090A5
:1005D000059B049A0799069800F0D4F9D0E700002B
:1005E0000DFCFFFFF0B50C465C4085B0E40FE4075E
:1005F00003944C00002664085900944649080246BA
:100600000296224321D062460A431ED06200570D53
:100610004A000E032303550D012402462C492405EC
:10062000781B1B0B360B4018234326436146009072
:100630001C46501AB44103D30098401C009002E0BD
:10064000921800985B41002803DA0020014605B0AB
:10065000F0BD0020012109050746864611E06446E9
:100660001D46141BB54106D36546521BB341744663
:1006700007430C43A646CD07400849082843921873
:100680005B4105460D43EAD11046184313D060463E
:10069000194650407140084306D06046101AB341D5
:1006A00006D20122002306E000220123DB0702E03C
:1006B0000122D2435310009874460105381C614151
:1006C000029C039D0019694100F04FF9BFE700004B
:1006D000FD030000C217C10F504010B54018CA07F3
:1006E0009623002100F008F910BD10B500229623D2
:1006F000114600F001F910BD0EB5C217C10F5040F0
:10070000CA0740180021054B0293019200910A4646
:100710000B4600F037F903B000BD000033040000C1
:100720000EB505490291002100910A460B46019140
:1007300000F028F903B000BD33040000C20F4100EF
:1007400040020123400ADB05D207090EC0187F29A9
:1007500001DA00207047962903DC9623591AC84015
:1007600001E096398840002AF4D0404270474100A9
:1007700040020122400AD205090E80187F2901DAC1
:1007800000207047962903DC9622511AC840704712
:10079000963988407047C20FD207400040080BD0FE
:1007A000C10D0723DB01C91840020905400A1143A6
:1007B000C208400711437047002001467047CB0F25
:1007C000DB07490010B5490802460A4307D00A0D65
:1007D00007240903E401090B121B002A01DC002095
:1007E00010BDC900440F0C43C100E018D2058018A9
:1007F00000F07AF810BD00000122D207002800DBCB
:10080000101A002900DB511A814270470122D207D9
:10081000002800DB101A002900DB511A88427047BB
:10082000F0B51FB40646002082B005464024019171
:1008300000901BE0019922460F46304600F030F848
:10084000049A059B801A994110D3104619462246F6
:1008500000F016F8361A8F41019722460120002138
:10086000009F00F00DF838184D4100902046641E9E
:100870000028DFDC019B00982946324607B0F0BD16
:1008800010B5202A04DB0146203A9140002010BD1B
:10089000914020239C1A0346E3401943904010BD29
:1008A00010B5202A04DB0846203AD040002110BDB4
:1008B0000B46D340D0402024A21A91400843194649
:1008C00010BD10B5202A06DBCB170846203A104190
:1008D000C1170B4306E00B461341D0402024A21A57
:1008E00091400843194610BD002904DA401C490014
:1008F00001D140084000704770B40024050C05D1B8
:100900001024000402D1002921D01124050E01D1A8
:1009100000020834050F01D10001241D850F01D10B
:100920008000A41C002801DB4000641C002908D0C2
:1009300020252E1B0D46F540A14000D00121294362
:10094000084301061B1B000ADB1D02D5002070BCFA
:100950007047DB05181880180029F8DA401C490098
:10096000F5D170BC40084000704710B5002B08DA84
:100970000024401C614192185B411A4301D1400898
:10098000400010BDF0B51FB482B005460C0003D086
:10099000084603F06BF802E003F068F820300246E6
:1009A000009021462846FFF76BFF049B059A0446FA
:1009B0000F4618431143084314D0184610431BD068
:1009C000009840210A1A18460599FFF769FF054665
:1009D0000E46009A05990498FFF752FF084305D088
:1009E000012004E02046394607B0F0BD0020C117C1
:1009F00005430E432C43374300990E986305401A74
:100A00007905E40A00220C43FD0A0A3002D50020D1
:100A10000146E9E70105101969410C9C0D9D00197B
:100A20006941FFF7A2FFDFE7064C0125064E05E00E
:100A3000E36807CC2B430C3C98471034B442F7D3FF
:100A4000FFF742FB98450008B84500084160704731
:100A5000002905D002680123DB031A43026004E089
:100A600002680123DB039A4302607047002905D026
:100A7000026801231B031A43026004E00268012399
:100A80001B039A430260704710B501210148FFF72C
:100A9000DDFF10BD10210240002A03D003680B4384
:100AA000036002E003688B430360704710B502687F
:100AB000054B1A408C680B6823438C8923431A43E7
:100AC00002604B68C36010BDE0F7C8FF0A460168CA
:100AD000490949010B4613431946016070477047A5
:100AE00010B5044622460221014801F095F910BDD7
:100AF0008001024010B564210348FFF764FB002029
:100B00000249087010BD00007C030020A4000020F2
:100B10007047000000B599B0642207496846FFF7A6
:100B200039FB06A10B4802F041FE69460A4802F073
:100B30003DFE19B000BD0000A4430008E8BF9EE6DA
:100B40008EA5E5AEA2E688B7E7ABAF2E2E2E0D0A36
:100B500000000000201002408000024000B599B063
:100B6000642207496846FFF715FB06A10C4802F00E
:100B70001DFE69460B4802F019FE19B000BD0000C9
:100B80006C440008E5AEA2E688B7E7ABAFE8AEA2DA
:100B9000E99885E6B688E681AF2E2E2E0D0A000074
:100BA000201002408000024000B599B0642207493D
:100BB0006846FFF7EFFA06A10D4802F0F7FD694617
:100BC0000C4802F0F3FD19B000BD00000844000815
:100BD000E8BF9EE68EA5E998BFE9878CE4BA91E666
:100BE0009C8DE58AA1E599A82E2E2E0D0A00000005
:100BF000201002408000024010B501F037F90F21AB
:100C0000014800F00DF810BD0008014010B50F219B
:100C1000014800F005F810BD4008014070477047DA
:100C200001617047002904D0826880231A438260E2
:100C300003E0826880239A4382607047002A03D0D1
:100C400083680B43836002E083688B438360704753
:100C50000146C86870470246002013690B40002B0C
:100C600001D0012000E000207047002A03D08368F3
:100C70000B43836002E083688B438360704700000E
:100C800010B582680B4B1A400B884C8823438C8824
:100C90002343CC8823430C8923434C8923430C6989
:100CA00023431A4382604B6903608B694360CB68BE
:100CB000C36010BD20007FFFC1607047FF2101317C
:100CC000016170470A49096801225204891A05D056
:100CD000891A07D11221074A117007E01121054A2C
:100CE000117003E0FF21034A117000BF00BF70477D
:100CF000080000200500002070B50446002504E02F
:100D00007D20C00000F004F86D1CA542F8DB70BD2A
:100D100010B504460121084800F0E6FF00BF064870
:100D20004068A042FBD300200349486000210248EC
:100D300000F0DAFF10BD00004001024070B54D88A0
:100D4000022D04D1056A0E883543056216E04D88F0
:100D5000012D08D1056A0E88B5430562056C0E8821
:100D6000354305640AE04D88002D07D1056A0E88D9
:100D7000B5430562056C0E88B5430564036E002219
:100D800010E0012494400D882540002D09D0560024
:100D90000325B5401E46AE4333468D885600B54008
:100DA0002B43521C102AECD3036670BD08B500908B
:100DB0000AE0CA07D20F002A02D00022009B1A7054
:100DC0004910009A521C00920029F2D108BD08B5C2
:100DD00000900AE0CA07D20F002A02D00122009B2D
:100DE0001A704910009A521C00920029F2D108BDD5
:100DF00018B503461033009300220CE0CB07DB0F3D
:100E0000002B04D0009B1B78DA43009C2270491011
:100E1000009B5B1C00930029F0D118BD01480078AD
:100E200070470000A800002000B599B0642208496E
:100E30006846FFF7AFF907A10C4802F0B7FC694616
:100E40000B4802F0B3FC03F06BF9002019B000BDB1
:100E5000D0440008E8BF9EE68EA54E5450E69C8D17
:100E6000E58AA1E599A82E2E2E0D0A002010024039
:100E70008000024010B50A48007801280ED10948C8
:100E80000078801E08490C5C214608A002F0DEFDB7
:100E90000020034908700349087000BF002010BDFE
:100EA000A7000020A40000207C0300205265636599
:100EB0006976656420576561746865722044617461
:100EC000613A203078253032580A00007047704768
:100ED0007047704710B500F0DBFB10BD7047000095
:100EE00000B599B0642207496846FFF753F906A197
:100EF0000D4802F05BFC69460C4802F057FC19B043
:100F000000BD000014420008E8BF9EE68EA5E998E7
:100F1000BFE9878CE4BA91E69C8DE58AA1E599A8A2
:100F20002E2E2E0D0A0000002010024080000240EC
:100F300010B50321014800F003F810BD0002024083
:100F400081607047002904D0026880231A43026040
:100F500003E00268014B1A40026070477FFF000007
:100F6000002904D0426980231A43426103E04269A8
:100F7000014B1A40426170477FFF000042693323F2
:100F80009A4342618A880B881A434B881A43436903
:100F90001A434261704710B5002A03D003680B431F
:100FA000036004E00368CC43A4B22340036010BD97
:100FB00010B502686F241346A3431A460B884C8869
:100FC00023438C8823431A4302608B684360CB68B9
:100FD000C360CB88836110BD70B503460124002037
:100FE0000AE00D462540002D03D085001E46303610
:100FF00072516400451CE8B20828F2DB70BD0000A5
:10100000002905D0054A12680243044B1A6004E027
:10101000024A12688243014B1A6070470030004058
:10102000002807D0074909680122D2051143054A63
:10103000116006E0034909680122D2059143014A83
:101040001160704700000240054909680722120537
:101050009143034A116011460968014311607047CA
:1010600000000240002905D0054A12680243044BE3
:101070001A6004E0024A12688243014B1A6070470A
:1010800000000240002807D0074909680122D20564
:101090001143054A116006E0034909680122D2059F
:1010A0009143014A116070470010024005490968E8
:1010B000072212059143034A116011460968014352
:1010C0001160704700100240002905D0054A1268DF
:1010D0000243044B1A6004E0024A12688243014B47
:1010E0001A60704700100240002807D007490968BD
:1010F0000122D2051143054A116006E0034909683F
:101100000122D2059143014A11607047002002403C
:1011100005490968072212059143034A11601146E7
:1011200009680143116070470020024005490968C1
:10113000072212059143034A1160114609680143D1
:10114000116070470030004000B50246FF2000F0FB
:1011500027F9002A06D0074840694021084305497D
:10116000486105E0034840694021884301494861DE
:1011700000BD00000030004000B50246FF2000F036
:101180000FF9002A06D00748406920210843054985
:10119000486105E0034840692021884301494861CE
:1011A00000BD0000003000407047000000B502465E
:1011B000FF2000F0F5F8002A07D008484069012117
:1011C000C90308430549486106E004484069012114
:1011D000C90388430149486100BD00000030004058
:1011E00000B50246FF2000F0DBF8002A06D00748D1
:1011F0004069022108430549486105E00348406908
:10120000022188430149486100BD000000300040D0
:1012100000B50246FF2000F0C3F8002A06D00748B8
:101220004069012108430549486105E003484069D8
:10123000400840000149486100BD00000030004006
:1012400070B50446FF2000F0ABF83148844242D02C
:101250000126012001E07600401C2E49C96989075A
:10126000890F491C8142F6D22A49C969FF2212021C
:101270001140090A48003146FEF762FF40280CD3AE
:1012800024484069032109038843224948610846EC
:101290004069891408431F494861FF2000F080F825
:1012A0001C4845690721C901284688430546284648
:1012B0002043054617484561406980210843154988
:1012C00048610846406980210840002801D000207C
:1012D00070BD0120FCE70F484069032109038843E2
:1012E0000C49486108464069891408430949486126
:1012F000084640698021884306494861084640699C
:1013000080210840002800D1E2E70120E0E700004A
:101310007FFF00000030004000B50246012A06D1E0
:101320000D480069042108430B49086112E0FF20C1
:1013300000F036F80848006904218843064908612E
:1013400006488069602188430449886108468069AD
:101350001043886100BD000000E000E00030004064
:10136000002806D00649096903221143044A116185
:1013700005E00349096989088900014A116170473C
:1013800000E000E0411E044A914203D8034A516143
:101390000021916170470000FFFFFF0000E000E0C6
:1013A0000146402903DB0348C1600020704701204B
:1013B000FCE70000003000401FB50020694688812E
:1013C000012080040090032040030190C00102909E
:1013D0000E48FFF76BFB1F210C48FFF777FB00223D
:1013E000FF2101310948FFF757FB01210748FFF7AB
:1013F0003DFB03211D2002F06BFB1D2002F05CFB76
:1014000001210248FFF724FB1FBD0000102102400C
:1014100000B587B001210846FFF7F2FD02216846BA
:1014200001800021C18003218902018112480590B9
:101430001248069000216846818041810120800683
:101440000490C82003906846418069460C48FFF725
:1014500017FC0022012109040948FFF706FC0022BD
:101460000121C9050648FFF7E9FB01210448FFF700
:10147000D9FB07B000BD0000E40000208C00024052
:101480000008014000B587B001210846FFF7B8FD0C
:101490000321684601800902C180002101811248B0
:1014A000059012480690684681804181052000061B
:1014B0000490C820039010216846418069460C487A
:1014C000FFF7DEFB0022012109040948FFF7CDFBED
:1014D00000220121C9050648FFF7B0FB012104489D
:1014E000FFF7A0FB07B000BD8C000240AC0100205C
:1014F0004008014000B5A3B0802120A881800221CE
:10150000C1800021018121A95E48FFF717FCFF215E
:10151000013110A881870221C187002120A8018004
:101520001FA95848FFF70AFC102110A88186022144
:10153000C186002101871DA95348FFF7FFFB202129
:1015400010A881850221C185002101861BA94E4872
:10155000FFF7F4FB0121890210A881840221C184D4
:101560000021018519A94848FFF7E8FB0121C902BC
:1015700010A881830221C1830021018417A9424858
:10158000FFF7DCFB802110A881820221C1820021AB
:10159000018315A93D48FFF7D1FBFF21013110A8B8
:1015A00081810221C1810021018213A93748FFF7FF
:1015B000C5FB0121490210A881800221C1800021C0
:1015C000018111A93148FFF7B9FB0121C902684621
:1015D00081870121C187002110A801800FA92B4814
:1015E000FFF7ACFB01210903684681860221C18611
:1015F000002101870DA92548FFF7A0FB02216846BD
:101600008185C185002101860BA91E48FFF796FB45
:101610000421684681840221C1840021018509A931
:101620001848FFF78BFB0821684681830221C1839C
:101630000021018407A91348FFF780FB10216846A9
:1016400081820221C1820021018305A90D48FFF793
:1016500075FB2021684681810221C1810021018220
:1016600003A90848FFF76AFB4021684681800221F0
:10167000C1800021018101A90248FFF75FFB23B06F
:1016800000BD0000001101400012014000100140A7
:1016900010B5FFF72FFF00F019F800F089F800F0FF
:1016A000B5F800F0F9F900F055FA00F0A3F900F0F0
:1016B000C1F800F00BF900F053F900F019F8FFF74A
:1016C0007BFEFFF7A5FEFFF7DDFE10BD0648006AB2
:1016D00006210843044908620448006A09210903F5
:1016E00008430249086270470010014000110140A0
:1016F00000B587B0FF20FFF753FE01210802FFF776
:10170000B1FC002201212948FFF766FC6322022177
:101710002648FFF761FC632204212448FFF75CFCA4
:10172000632208212148FFF757FC002210211F489F
:10173000FFF752FC002220211C48FFF74DFC00223D
:1017400040211A48FFF748FC002280211748FFF784
:1017500043FC00216846018203218181632141828B
:101760000E2005900020069000216846C18103A943
:101770000E48FFF71DFC2021684681800021C180B2
:10178000018101A90948FFF7F9FB00210748FFF78C
:10179000E7FB0022FF2101310448FFF7FCFB012198
:1017A0000248FFF7CFFB07B000BD00000002024077
:1017B00010B5FF20FFF7F4FD0020FFF7DDFC00204F
:1017C000FFF726FD0120FFF70BFD0120FFF7BCFC12
:1017D0000120FFF7EBFC0C48FFF732FD0020FFF77C
:1017E000A5FC0020FFF730FC0120FFF719FC0020CA
:1017F000FFF75CFC0120FFF745FC0020FFF788FCA9
:101800000120FFF771FC10BD7FFF000010B5FF2025
:10181000FFF7C6FD0020FFF77FFD7D20C001FFF729
:10182000B1FD0021481E02F053F90120FFF798FD99
:1018300010BD000000B585B001210220FFF712FCA9
:101840000021684641810521090201810021818131
:101850008321090201820021C18102A91A4800F0F6
:10186000F1FA002168468180C18001A9164800F084
:101870006FFA0021144800F05DFA002168460180EB
:1018800041806946104800F095FA322202210E4844
:1018900000F0C2FA002201210B4800F07DFA01227B
:1018A0002021094800F02EFA01224021064800F0CC
:1018B00029FA01221021044800F024FA01210248EB
:1018C00000F012FA05B000BD4001024000B585B03D
:1018D00001210420FFF7C6FB0021684641810181F8
:1018E00081818321090201820021C18102A91B4853
:1018F00000F0A8FA002168468180C18001A917483C
:1019000000F026FA0021154800F014FA002168467C
:10191000018041806946114800F04CFA32220221D0
:101920000E4800F079FA002201210C4800F034FA48
:1019300001222021094800F0E5F900224021074852
:1019400000F0E0F901221021044800F0DBF9012148
:10195000024800F0C9F905B000BD00008001024056
:1019600000B585B001210820FFF77CFB0021684607
:101970004181052109020181002181817D21090127
:1019800001820021C18102A9194800F05BFA0021FF
:1019900068468180C18001A9154800F0D9F900216D
:1019A000134800F0C7F9002168460180418069466C
:1019B0000F4800F0FFF9322202210D4800F02CFA06
:1019C000012211460A4800F0E7F9012202210848E5
:1019D00000F0E2F90321122002F07AF8122002F05E
:1019E0006BF80121024800F07FF905B000BD00004E
:1019F000C001024000B587B02021684681820121E4
:101A0000C1820021018305A92148FFF797F94021F0
:101A1000684681810121C1810021018203A91C48FE
:101A2000FFF78CF901211020FFF71CFB022168460B
:101A3000018005210902418000218180502002900F
:101A40006846C1806946134801F0C8FC0121C903FA
:101A5000104801F0DDFC012211460E4801F0B1FCF6
:101A6000002280210B4801F09FFC00224021094800
:101A700001F09AFC0321172002F02AF8172002F047
:101A80001BF80121034801F081FC07B000BD0000F4
:101A9000001001406000024000B587B001214903F9
:101AA000684681820121C1820021018305A926485F
:101AB000FFF744F901218903684681810121C18131
:101AC0000021018203A92048FFF738F90121802075
:101AD000FFF7C8FA1D480090E12040020190012064
:101AE000029069461A4801F003FE01221146184887
:101AF00001F0F0FD00220421154801F0EBFD012268
:101B00000221134801F0E6FD01228021104801F076
:101B100079FD012240210E4801F074FD01210820C9
:101B200001F0D6FF082001F0C7FF0021084801F0AE
:101B300005FE0121064801F02BFE0121044801F0B9
:101B40000FFE07B000BD0000001001400048E80192
:101B50008000024000B587B00121C9036846818238
:101B60000121C1820021018305A92048FFF7E6F881
:101B7000012168468181C1810021018203A91C489D
:101B8000FFF7DCF801218020FFF79EFA194800904A
:101B9000E12040020190012002906946164801F0C0
:101BA000A7FD01221146144801F094FD00220421F2
:101BB000114801F08FFD012202210F4801F08AFD3A
:101BC0000321072001F084FF072001F075FF0021A9
:101BD000094801F0B3FD0121074801F0D9FD0121B9
:101BE000054801F0BDFD07B000BD00000010014038
:101BF000001101400048E801201002407047704782
:101C00001FB5044608A30FCB03936B4607C3207888
:101C10006946887208A10E4801F0C8FD69460D4862
:101C200001F0C4FD1FBD000041542B43574D4F44EC
:101C3000453D780D0A000000E8AEBEE7BDAEE5B751
:101C4000A5E4BD9CE6A8A1E5BC8F2E2E2E0D0A00B2
:101C50002010024080000240704700000120C006B2
:101C6000014988607047000000ED00E010B50121D7
:101C70000B4800F054F8012810D10121084800F069
:101C800031F80021064800F02FF8064800780028B7
:101C900004D101200349087001F0C2FC10BD00000E
:101CA000C0010240180000207047000010B5072155
:101CB000014800F017F810BD4001024010B507219F
:101CC000014800F00FF810BD8001024010B5FFF789
:101CD000CDFF0721014800F005F810BDC00102400A
:101CE00070477047C1607047002904D002688023A4
:101CF0001A43026003E00268014B1A400260704719
:101D00007FFF000010B5002A03D083690B43836175
:101D100004E08369CC43A4B22340836110BD024632
:101D20000020D3680B40002B01D0012000E00020F0
:101D300070470000002904D0026801231A430260A2
:101D400003E00268014B1A4002607047FEFF00008A
:101D500010B54B88302B00D100BF4B88082B02D028
:101D60000B88042B00D100BF03689AB23C241346B1
:101D7000A3431A46074B984205D14B88082B06D03F
:101D80004B881A4303E04B880C8823431A430260B4
:101D900010BD00000001024010B5002A03D0836985
:101DA0000B43836104E08369CC43A4B22340836185
:101DB00010BD000010B54B88022B02D00B88022BFF
:101DC00000D100BF4B88012B02D00B88012B00D122
:101DD00000BF02680F24E4021346A3431A460D4BCA
:101DE000984205D10B88022B02D04B88022B08D1D8
:101DF000084B98420BD00B88012B08D04B88012B45
:101E000005D00B885B034C88E40223431A4302602D
:101E100010BD000000010240022900D100BF0129CD
:101E200000D100BF064B984203D0022901D10261C4
:101E300005E0034B984202D1012900D1426170476D
:101E40000001024010B50268074B1A400B888C88CD
:101E500023434C882343CC88640123431A43026004
:101E60000B898360436010BD9DF8FFFF10B5022110
:101E70000648FEF7F0FE012806D102210348FEF7CE
:101E8000CFFE01200249087010BD0000000801408B
:101E90002000002010B5034600211EE000220AE0C9
:101EA00036204843144C00191830805C984200D109
:101EB00008E0501CC2B2362048430F4C0019407C49
:101EC0009042EDDC00BF362048430B4C0019407CAB
:101ED000904200D005E0481CC1B208480078814219
:101EE000DCDB00BF05480078814201D0012010BD35
:101EF00000BF0020FBE700006A000020D0000020A7
:101F0000F0B59FB004460020169014901390A08E58
:101F1000401CA086002537E020461830475D06208B
:101F20007843C749095A06207843C54A8018408833
:101F3000081A00B2690017AA5052680017A9085E73
:101F40001621615E884201DD0020A086680017A985
:101F5000085E1421615E884203DA0020690017AA36
:101F60005052384600F06AFB690017AA1190515E82
:101F70006422514308461199FEF7F8F800B269004F
:101F800017AA5052681CC5B2607CA842C4DCA08E5F
:101F900000287CD100250CE0680017A9095E16987E
:101FA000814204DD6EB2680017A9085E1690681CB5
:101FB000C5B2607CA842EFDC002526E0701E401907
:101FC000002806DA607C401E400017A9085E1690C3
:101FD0000FE0701E4019617C884204DB10A91C20B0
:101FE000085E169005E0701E4019400017A9085EB3
:101FF0001690691C16984843149940181490169925
:10200000139840181390681CC5B2032DD6DB208EA0
:10201000FEF786FB00228B4B0B910A90FEF7E2FA4B
:10202000002201239B070D910C90FEF773FA00220A
:10203000854B0F910E90FEF764FA11911090FEF708
:10204000BEFB12901398FEF750FB0F901498FEF70A
:102050004CFB0E900F99FEF76AF97C491090FEF741
:1020600029F91190FEF76AFB60861298FEF793FB40
:102070000F910E90208EFEF753FB0022714B0391BF
:102080000290FEF7AFFA07910690139800E0C9E0BE
:10209000FEF72BFB02901498FEF727FB01900299A4
:1020A000FEF745F90390FEF776FB05910490079B38
:1020B000069AFEF720FA0B910A90617CFF206930A6
:1020C000FEF754F80790FEF717FB099108900B9B59
:1020D0000A9AFEF71FFA0D910C900F9B0E9AFEF7CD
:1020E00081FA11911090FEF76AFB1290701E002881
:1020F0000AD5617C721EFF2369335A431046FEF7EE
:1021000035F8FF30693007E0617C721EFF236933C8
:102110005A431046FEF72AF80E90FEF7DBFA1090AD
:10212000617CFF206930FEF721F8C20F1118119071
:102130004810FEF7CFFA0E901299FEF762F80F9052
:102140001099FEF75EF812901298159004E040493D
:102150001598FEF7A7F815903D491598FEF756FB20
:10216000F5D32078012842D1617CFF206930FDF74A
:10217000FDFFFF216931081A1090FEF7ABFA1190AC
:102180001599FEF739FB11D8617CFF206930FDF706
:10219000EDFFFF216931081A401E1190FEF79AFAEF
:1021A0001590002E02D17F20C0051590617CFF2084
:1021B0006930FDF7DBFFFF216931081A0D90FEF74A
:1021C00089FA0F90608AFEF790FA0D901599FEF744
:1021D00071F80E900F99FEF7AAF87F21C9051090AB
:1021E000FEF70FF81190FEF7C2FAA08526E0608A8C
:1021F000FEF77BFA0E901599FEF75CF814490F90E4
:10220000FEF795F87F21C9051090FDF7FAFF1190B0
:10221000FEF7ADFAA085A08D618A88420EDD608A46
:10222000A0850BE00020A085617C2820005D23466E
:10223000343322461832119000F00CF81FB0F0BD74
:102240004C03002000005940000010400000C8422C
:102250000000B443FFB581B01F4639880198814220
:102260007EDD002038800026B0E00398845D0620E3
:1022700060435949095A06206043574A80184088EC
:10228000081A05B2204600F0D9F900B20090534870
:10229000002141564842854242DB504800214156C8
:1022A0008D423DDC60004E49085A401900B2610081
:1022B0004B4A505200F084F96100494A515E88420D
:1022C00010DC06206043444940184088401C81B21D
:1022D00006206043404A8018418000206100404A47
:1022E000505217E000F06CF9404261003C4A515EE8
:1022F00088420FDD06206043374940184088401E61
:1023000081B206206043344A801841800020610079
:10231000334A50520020334908553349085553E099
:102320002E4800214156484285422DDA2D48005D55
:10233000401C2C490855085D2C490978FDF716FF0B
:10234000002941D12748015D28480078284A1278A1
:102350005043814208DB002022490855012000E05B
:1023600038E0244908702FE0062060431A494018DD
:1023700040881A4900228A56801A81B2062060439A
:10238000154A801841801FE01448002141568D42B3
:102390001ADD1548005D401C134908550846005DCC
:1023A000202811D1002008550C490856C10F0918E2
:1023B0004A1006216143084BC918498851188AB24E
:1023C00006216143C9184A80701CC6B20298864231
:1023D00000DA4AE705B0F0BD4C030020640000209D
:1023E0003C0300202B0000204B000020A100002017
:1023F000A0000020D600002070B51B48057800BF63
:1024000000F038F800240DE0062060431749095A0F
:1024100006206043154A80184180204600F06EFD7A
:10242000601CC4B2124800788442EDDB2846691E65
:10243000CDB20028E4D100F0A7F800F011F905466C
:1024400000BF00F017F8002404E0204600F03CF83C
:10245000601CC4B2064800788442F6DB2846691E38
:10246000CDB20028EDD170BDA20000204C030020A9
:10247000C400002000B50022104800784006400E3D
:102480000E4908700E48C068012108430C49C86015
:102490000CE001F01DFA0B48C06B0121084309490B
:1024A000C863501CC2B2642A00DB05E00348007810
:1024B000802108400028ECD000BF00BD2200002091
:1024C000002202400003004070B50446062060432D
:1024D0002C49095A062060432A4A801880880D1A20
:1024E000204600F0ABF80646B54202DC7042854259
:1024F00009DA062060432349095A06206043214A2D
:102500008018818033E07010A84203DB70104042D5
:10251000A84216DD062060431A494018818806202B
:102520006043184A801880884010091A06206043CA
:10253000105A4010081881B206206043801881802C
:1025400015E0062060430F4940188188062060434B
:102550000C4A80188088C010091A06206043105A5F
:10256000C010081881B206206043801881800620C0
:10257000604304494018818806206043014A115293
:1025800070BD00004C03002000200AE006214143FA
:10259000064A525A06214143044BC9188A80411CFD
:1025A000C8B2034909788842F0DB70474C03002029
:1025B000C400002001460148405C704753000020E1
:1025C0000148808B80B270478041000810B50246F8
:1025D0000C46230001F061FA07050A10161A1E24A2
:1025E0002A000A2050431249085C10BD0A205043BB
:1025F0000F4940188078F8E70A2050430C494018EA
:10260000C078F2E71046FFF7D5FFEEE70948008DE6
:10261000C0B2EAE70A205043054940184078E4E791
:102620000A205043024940184079DEE70020DCE7E9
:10263000C4410008804100080120704701460A207B
:102640004843064A8018007A02020A204843034B96
:10265000C018407A101880B270470000C4410008CA
:102660000148007C70470000804100080148007864
:1026700070470000D600002001460A204843024A65
:102680008018007970470000C441000810B503218C
:1026900002480078FDF76AFDC0B210BD630000205B
:1026A00070B505462846FFF7C9FF0446E0000A2139
:1026B000FDF75CFD84B2204670BD00000148007843
:1026C000401070476300002010B500F0B9FD10BD48
:1026D00010B50120FEF708FD5348C0680121090428
:1026E00088435149C860002050490870504908701B
:1026F0005049087000F0BCF800F094FC4A48C068EB
:10270000802108434849C86000210846FFF75EFF62
:10271000441C21467D204001FDF728FD46490880E4
:102720000020FFF7A9FF44490988484380B23E4989
:10273000C86102210020FFF749FF000700093A495C
:1027400009690F22120691430843374908610021A5
:102750000846FFF73BFF0007000C3349C9680F220A
:102760001203914308433049C86006210020FFF757
:102770002DFF80072C4909698900890808432A49E7
:10278000086103210020FFF721FF000226490969A3
:102790007F2252029143084323490861052100200A
:1027A000FFF714FF800780081F49096903221207F9
:1027B000914308431C49086101210020FFF706FFEF
:1027C00019490969090A09020843174908610421DE
:1027D0000020FFF7FBFE00280BD01348C068202123
:1027E00088431149C8600846C068402108430E4923
:1027F000C8601F20002805DBC206D20E01219140CF
:102800000E4A116000BF0848C068102108430649FD
:10281000C8600B4801780120884003490860FFF731
:10282000EBFD00F00FF810BD00220240D6000020A2
:10283000D100002022000020D200002000E100E0B2
:102840002300002000200AE006214143064A525A94
:1028500006214143044BC9184A80411CC8B20349B0
:1028600009788842F0DB70474C030020C400002048
:1028700000200DE000210E4A11540E4A11540E4A58
:10288000115442000D4B99520D4A1154411CC8B2CB
:102890000C4909788842EDDB00210B4A1160FF21C9
:1028A0000A4A117000210A4A11800A4A11707047C1
:1028B000330000202B0000203B0000203C030020C0
:1028C00043000020C4000020C8000020D8000020E1
:1028D000DA000020D600002001480079704700008F
:1028E0008041000870B505464B480078032820DB7E
:1028F00000204949087049480078002811D1002477
:102900000BE006206043464940188188062060435A
:10291000434A80184180601CC4B242480078844217
:10292000EFDBFFF7A5FF00203F4908703B49087027
:1029300070BD3E480078401C3C490870084600784D
:10294000A84204D1FFF720FE00203949087037481B
:102950000078A8425DDD00242FE006206043304966
:10296000095A062060432E4A80188088081A06B249
:102970002A48007800280DD12E48002141568800B1
:10298000B04215DA2B480021415648428000B0423F
:102990000EDD16E0274800214156C800B04207DA94
:1029A0002448002141564842C000B04200DD08E002
:1029B0002046FFF789FD601CC4B21A4800788442A3
:1029C000CBDB00BF17480078844204D11848007858
:1029D000401C17490870E80014490978884218DC3F
:1029E000002012490870144908700B480078401CF8
:1029F00009490870A8000E490978884209DC0020BE
:102A000005490870FFF71EFFFFF732FF0020064957
:102A1000087000BF8CE70000D70000206500002090
:102A20004C030020C4000020D6000020DC00002061
:102A3000D800002064000020D50000200348C068B2
:102A4000012108430149C86070470000002202408C
:102A500070B50026002015490870002510E00126F9
:102A60002846FFF731FD2846FFF714FA002800D06A
:102A70000026012E02D1284600F022F8681CC5B2BB
:102A80000B4800788542EADB002407E036216143E9
:102A9000084A8818FFF734FA601CC4B20648007868
:102AA0008442F3DB0548006870BD0000D4000020BC
:102AB000C40000206A000020D0000020C8000020D0
:102AC000FEB5044606206043F349095A06206043D8
:102AD000F14A80184088081A07B20120A040EF4947
:102AE00008602046FFF7AAFD00B2009000988742D8
:102AF00001DB012600E00026012E7DD1E848005DC3
:102B0000FA2804DAE648005D401CE5490855E54826
:102B10000068E24909680840002879D1E248007855
:102B20000190FFF789FD002814D00026002507E05A
:102B3000DB48405D012801DB701CC6B2681CC5B2D1
:102B4000DA4800788542F3DB032E03DB01980F306F
:102B5000C0B20190D248015D0198814258DB002645
:102B6000FFF7BAFE00282BD100250BE0AC4207D0BE
:102B7000FFF78CFDCA49495D884201DC012605E06A
:102B8000681CC5B2C94800788542EFDB00BFFFF77B
:102B900053FD00282DD1002E2BD100250BE0AC4297
:102BA00007D0FFF773FDC249495D884201DC012669
:102BB00005E0681CC5B2BD4800788542EFDB18E02F
:102BC000FFF73AFD002814D10190002509E0B44830
:102BD000405D022803DB0198401CC0B20190681CD4
:102BE000C5B2B24800788542F1DB0198032800DBCA
:102BF0000126012E05D101E015E009E00120AD49D3
:102C00000870A8480068A54909680843A5490860F4
:102C10000020A9490855A94908556100A84A505201
:102C2000A849085535E12046FFF73AFDB84209DAD0
:102C30009F48005DFA280DDA9D48005D401C9C49C4
:102C4000085507E0A0480078401C9F490870002004
:102C5000974908559D48002141564842874246DB26
:102C60009A48002141568F4241DC00209249085584
:102C7000944908558B48006800281ED1600090498F
:102C8000085AC01900B261008D4A5052FFF798FCF3
:102C900061008B4A515E884210DC062060437E4909
:102CA00040184088401C81B2062060437A4A801850
:102CB000418000206100824A505281E0FFF780FC91
:102CC000404261007E4A515E884279DD06206043C1
:102CD000714940184088401E81B2062060436E4A08
:102CE0008018418000206100754A505268E07748A2
:102CF00000214156484287423ADA6F48005D401C45
:102D00006D49085500206F4908556B49085D7049A9
:102D10000978FDF72BFA002922D16748015D6C483C
:102D200000786C4A12785043814208DB00206249E7
:102D300008550120684908706849087010E0634927
:102D400000200856C10F09184A1006216143524B52
:102D5000C9184988891A8AB206216143C9184A806C
:102D60005F480078A0422BD1FF205D49087027E022
:102D70005648002141568F4222DD00204E49085519
:102D80004848006800281BD14E48005D401C4D4952
:102D900008550846005D202812D1002008554B49EF
:102DA0000856C117890F09188A10062161433A4B4A
:102DB000C918498851188AB206216143C9184A8046
:102DC00038480068354909680840002838D000981C
:102DD0008110401AB8422DDD3848005D401C37494B
:102DE0000855FFF76BFC0190002507E02C48405D7B
:102DF000012801DB701CC6B2681CC5B22B480078E4
:102E00008542F3DB032E02DB2748007801902B4834
:102E1000015D019881423CDB00202849085521488A
:102E200000681E49096888431E49086000201C4943
:102E300008552EE02148005D401E2049085528E035
:102E400000201749085517480068002802D120467D
:102E500000F054F815480078401EA04200D0FEBD96
:102E60001948007811490978884200DAF7E7002507
:102E700006E00B48405D002800D00126681CC5B262
:102E80000A4800788542F4DB002E02D1002009496F
:102E9000087000BFE3E700004C030020CC000020D6
:102EA00033000020C800002063000020C400002080
:102EB00043000020D50000202B0000203B00002014
:102EC0003C0300204B000020D400002064000020C0
:102ED000A0000020A1000020D600002065000020F6
:102EE000D80000200120014908707047D60000205A
:102EF0000148808A80B270478041000870B504465E
:102F00002046FFF757FB05461B49098848000A2160
:102F1000FDF72CF906462046FFF7AEFB4643062098
:102F20006043164940184088864208DD022D21DBA7
:102F3000A81E134908550120124908701AE00E49CD
:102F40000988CA00501A0A21FDF710F906462046E2
:102F5000FFF792FB4643062060430849401840882B
:102F6000864207DAFC2D05DCA81C0549085501201E
:102F70000449087070BD0000D20000204C030020FE
:102F800053000020D600002070B50020002300214F
:102F90000022FF24E40200BF0DE00125854025400A
:102FA000002D06D01B4DA854551CEAB2082A00DBA0
:102FB00003E0451CE8B22028EFDB00BF002122E03F
:102FC000002017E0002311E036254D43124EAD19C5
:102FD0006D1C2D5C0F4EF65CB54205D136254D4378
:102FE0000D4EAD1918352B545D1CEBB29342EBDB43
:102FF000451CE8B236254D43074EAD196D7C854220
:10300000E0DC4D1CE9B2054D2D78A942D8DB044D1A
:103010002A7070BD230000206A000020D00000202C
:10302000C400002030B50120164908701648007B06
:10303000164908701448006C40B215490870FFF733
:10304000A3FF002508E00A20684312494018807950
:1030500011494855681CC5B2104800788542F2DB1A
:1030600000200F490880002407E00021362060433B
:103070000C4A8018C185601CC4B2024800788442A2
:10308000F3DB30BDD0000020804100086300002049
:1030900064000020C441000853000020C400002048
:1030A000660000206A000020F8B50026002000908D
:1030B000FFF7DCFA002871D1FFF7CAFC07460025AC
:1030C0000FE00120A8403840002808D05348415D57
:1030D00001208840009908430090701CC6B2681C0B
:1030E000C5B24F4800788542EBDB022E0EDB012093
:1030F0004C490870032E02DBFFF7F4FE06E0FFF7F1
:10310000EBFB002802D000204649087045480078B3
:1031100000280CD10098002805D043480088401CA6
:10312000414908800AE000203F49088006E03F4806
:103130000088401C3D49088000200090002447E0A2
:10314000362060433A494018808D002827D0362029
:1031500060434018818D36206043354A8018408D89
:1031600081420BD13620604311464018C08D401C6F
:1031700081B2362060438018C18516E03620604356
:103180002B494018818D36206043294A801841859B
:103190000021362060438018C18506E036E000211A
:1031A00036206043224A8018C185FFF7A1FE3621F0
:1031B00061431F4A8918C98D884207DCFFF792FED8
:1031C0000021362060431A4A8018C185601CC4B2B1
:1031D000184800788442B3DBFFF78AFE1249098859
:1031E000884204DCFFF77EFE00200F4908800F486C
:1031F0000088FF212D3188420DDDFFF773FE01208D
:103200000D49087000200949088004E00B49098C29
:10321000C8B2FFF767FB0098F8BD0000230000204C
:10322000C4000020D50000206600002068000020B7
:103230006A000020D00000206500002080410008C6
:1032400010B500244948C068022108434749C860B6
:103250000846806981B24648007806225043454AB4
:10326000115243480078401C4149087008460078D4
:1032700041490978884209DB00203D4908703F48F0
:103280000078802108433D49087000E00124384857
:103290000078FFF7F1F93A490988484380B2334989
:1032A000C861022132480078FFF790F90007000951
:1032B0002E4909690F221206914308432B490861E0
:1032C00000212B480078FFF781F90007000C2749FF
:1032D000C9680F221203914308432449C86006219C
:1032E00023480078FFF772F98007204909698900AF
:1032F000890808431D49086103211D480078FFF72C
:1033000065F90002194909697F2252029143084375
:1033100016490861052116480078FFF757F980071C
:1033200080081249096903221207914308430F4993
:10333000086101210E480078FFF748F90B49096937
:10334000090A09020843094908610E480849097831
:10335000415C0120884005490860012C05D10846E0
:10336000C068012108430149C86010BD0022024025
:10337000D10000204C030020C400002022000020C7
:10338000D20000202300002070477047002904D09D
:10339000026880231A43026003E00268014B1A406E
:1033A000026070477FFF000010B5002A03D0036958
:1033B0000B43036104E00369CC43A4B223400361DF
:1033C00010BD10B5002A03D003690B43036104E06C
:1033D0000369CC43A4B22340036110BD30B502465B
:1033E00010680A4B18400B884C8823438C88234371
:1033F000184310609068000A0002CB888C68640053
:10340000FE252C4023431843906030BDFC3FFFFF56
:1034100010B50A46074B984200D100E000BF016892
:103420000324A4030B46A34319460B461343194632
:10343000016010BD6000024010B500F055F8032196
:10344000014800F0DDF810BD2010024010B500F07A
:1034500007F80321014800F0D3F810BD80000240B6
:1034600010B52FE001211B4800F0CAF8194800F000
:1034700085F9C4B218490878411C174A11701749D8
:103480000C5410460078642802DB002011460870B6
:103490001148007802280FDB0F480078801E0F4982
:1034A000085C4F2808D10C480078401E085C4B2867
:1034B00002D101200A490870232C02D101200949B8
:1034C000087000BF0121034800F0FAF80128C9D0B4
:1034D00010BD000080000240A40000207C030020FA
:1034E000A6000020A70000207CB501213F4800F085
:1034F000E7F8012878D101213C4800F081F83B48E9
:1035000000F03CF9C5B23A490878411C384A1170BC
:1035100038490D5410460078642802DB002011461B
:1035200008703348007801285DDBAA2168460170E5
:10353000552141702E480078401E2E49085CF13814
:10354000030000F0AAFA08050D12181E23292E2FD9
:103550000121684681700021C1702821017122E09B
:1035600010212548FDF722FC1DE001218902224897
:10357000FDF71CFC17E00121C9021F48FDF716FCEE
:1035800011E080211D48FDF711FC0CE0FF21013105
:103590001A48FDF70BFC06E020211748FDF706FC52
:1035A00001E000E07CBD00BF552168464171AA21C1
:1035B0008171002411E06846015D0C4800F0E3F8D9
:1035C00000BF0221094800F07BF80028F9D0022151
:1035D000064800F015F8601CC4B2072CEBD300209D
:1035E0000349087000BF00BF00BFDBE720100240A6
:1035F0001E00002074020020001201400010014053
:103600004160704710B5002A03D003690B43036182
:1036100004E00369CC43A4B22340036110BD000061
:1036200010B51248007801281ED100200F490870FB
:103630000F48FDF70DFBC821081A0E490880C82164
:103640000D48FCF7C0FDC8210948FDF735FB0021F6
:103650000748FDF7E7FA01210548FDF7E3FA0122E3
:1036600040210648FFF7CEFF10BD000018000020E3
:10367000400801401A000020AC01002080000240F8
:1036800070B504460D462A4621460B48FCF782FDDC
:1036900029460A48FDF710FB0848FDF70FFB00BF5D
:1036A00002210648FDF7D7FA0028F9D00221034885
:1036B000FDF7B6FA70BD0000E400002000080140EC
:1036C0000246002053680B40002B01D0012000E08F
:1036D0000020704710B5002A03D003690B43036133
:1036E00004E00369CC43A4B22340036110BD000091
:1036F00070B504460D462668F608F600A86806432D
:103700002660A868002808D120681021884320601E
:1037100020686968084320600DE069682868FCF744
:103720000FFD06460448864204D92068102108434C
:1037300020603609A66070BDFFFF000010B50A4684
:10374000064B984209D101680324A4030B46A34306
:1037500019460B4613431946016010BD2010024064
:10376000002904D0026840231A43026003E0026883
:10377000014B1A4002607047BFFF00000146C86855
:10378000C005C00D7047CA05D20DC2607047000069
:10379000002904D0026880231A43026003E0026813
:1037A000014B1A40026070477FFF000070B505466C
:1037B0000C461248854208D12046FCF71BFD86B214
:1037C00031462046FFF75CFF16E00D48854213D1D5
:1037D0000FE021780A48FFF7D6FF00BF0221084812
:1037E000FFF76EFF0028F9D002210548FFF708FF18
:1037F000641C20780028ECD170BD000080000240DD
:103800002010024000B5B3B0C822074901A8FCF758
:10381000C1FC06A10B48FFF7C9FF01A90A48FFF741
:10382000C5FF33B000BD0000DC420008E794A8E605
:1038300088B7E8AEBEE5A487E8BF9EE68EA52E2E2B
:103840002E0D0A00201002408000024010B50446F0
:103850001A480078FF282BD0012019490870194810
:103860000078002829D1112C0AD10121090316481A
:10387000FDF7BEFA012149021348FDF7A8FA10E04E
:10388000122C0ED1C32109011048FDF7A0FAFF2127
:1038900081310D48FDF79BFA012149020A48FDF7E5
:1038A00096FA6420FDF728FA01200649087004E022
:1038B0000020034908700349087010BD050000206E
:1038C000060000200C000020001001400012014002
:1038D0007D20C00001E0411E88B20028FBD1704766
:1038E00030B599B004460D4664220F496846FCF78E
:1038F00051FC21466846FCF771FC0CA16846FCF7B8
:103900006DFC29466846FCF769FC09A16846FCF78E
:1039100065FC08A10D48FFF749FF69460C48FFF711
:1039200045FF19B030BD0000784200082C000000AF
:103930000D0A0000E8BF9EE68EA5E5B7B2E79FA599
:10394000576946692E2E2E0D0A00000020100240F5
:103950008000024010B500F037F814A0FEF750F9CF
:1039600000F0DEFBFDF7BCFA00F0DAFB10A113A0BB
:10397000FFF7B6FF00F0D4FBFFF744FF00F0D0FBE9
:10398000FDF7C8F800F0CCFBFDF70EF900F0C8FB1E
:10399000FDF7E4F800F0C4FBFDF746FA09480078AB
:1039A000002802D101200749087010BD3100000035
:1039B0002231323334353637383922002273637975
:1039C00031220000A80000200EB515A207CA6B46E0
:1039D00007C316A11A48FFF7E9FE69461948FFF721
:1039E000E5FE7D20C000FDF787F97D20C000FDF7D2
:1039F00083F97D20C000FDF77FF97D20C000FDF731
:103A00007BF97D20C000FDF777F97D20C000FDF730
:103A100073F9FDF76FF800200B4908700EBD000028
:103A200041542B5253540D0A0D0A0000E9878DE5CD
:103A300090AFE6A8A1E59D972E2E2E0D0A0000005E
:103A40002010024080000240A60000200FB410B5F4
:103A500003A9044B044A029800F086F810BC08BC85
:103A600004B01847DD3F0008E00000202021020CD0
:103A700001D010211046020A01D01046083902096F
:103A800001D01046091F820801D01046891E420845
:103A900001D0881E7047081A704730B47446641EFF
:103AA0002578641CAB4204D3635D5B00E31830BC33
:103AB00018471D46F8E70000002805DBC206D20EB5
:103AC00001219140014A11607047000000E100E0CF
:103AD00010B5002819DB1A4A03231B02D2188308E9
:103AE0009B00D2588307DC0EFF23A3409A438B0729
:103AF0001B0E8407E40EA3401A43114B0324240237
:103B00001B198408A4001A5118E00E4A03071B0F62
:103B1000083B9B089B00D2588307DC0EFF23A34081
:103B20009A438B071B0E8407E40EA3401A43054BF0
:103B30000407240F083CA408A4001A5110BD00007B
:103B400000E100E01CED00E002E008C8121F08C11F
:103B5000002AFAD170477047002001E001C1121F0E
:103B6000002AFBD170470000FFB591B00F46054613
:103B7000002606E025280AD0149A139990476D1C58
:103B8000761C28780028F5D1304615B0F0BD002409
:103B900000940121F34A029400E004436D1C2B7849
:103BA0000846203B98401042F7D128782A280ED0AA
:103BB0000222287801463039092915D800990A23AC
:103BC00059433039401814436D1C0090F1E701CF80
:103BD0000090002805DA0120400304430098404289
:103BE0000090022004436D1C28782E2815D1042053
:103BF000044368786D1C2A280AD101CF6D1C0290FD
:103C00000BE002990A225143303940186D1C029092
:103C10002878014630390929F3D928786C2810D042
:103C200006DC4C281AD068280ED06A2817D104E088
:103C3000742813D07A2812D110E0012040050443E3
:103C40000CE00121090501E0032109050C43697815
:103C5000814203D10120000524186D1C6D1C2878B9
:103C60006E281ED00CDC632831D004DC00288BD0F9
:103C7000582811D1B2E064287BD069280CD178E0B3
:103C800073282DD004DC6F2870D0702804D1A7E0F1
:103C900075286CD078286BD0149A13999047761CAD
:103CA00062E06002400F022807D003280AD00428EF
:103CB00038680AD006603F1D56E03868F117066084
:103CC0004160F8E738680680F5E70670F3E7387872
:103CD000694608740020487404A80390012003E09A
:103CE000386803900020C0433F1D61070FD50021B5
:103CF00001E00199491C029A0191914213DA814233
:103D0000F7DB019A0399895C0029F2D10BE00021CD
:103D100001E00199491C01918142FADB019A039962
:103D2000895C0029F5D101990098139A401A0090F6
:103D30002146149B00F03CF901998019461807E0D0
:103D4000039803990078491C0391149A139990479A
:103D50000198401E0190401CF2D12146149B139AF9
:103D6000009800F015F986196D1C0AE741E033E070
:103D700034E00A200021049005916002410F0229DD
:103D800005D001CFC2179446032905D007E0FF1DD7
:103D9000FF08FF0003CF06E000B2C21794460429D3
:103DA00002D140B2C1178C4600226146944506DA22
:103DB0000A460021404291418C462D2102E0210516
:103DC00004D52B216A461176012103E0E10701D0D9
:103DD0002021F7E7019155E00A200BE0102009E0CF
:103DE0001020049000210420044308200591029033
:103DF00003E008200021059104906002410F022990
:103E000005D001CF00229446032906D006E0FF1D0D
:103E1000FF08FF0003CF8C4603E080B2042900D1E5
:103E2000C0B20021019121072CD529780391702976
:103E300006D0049A1021059B4A401A4305D00EE093
:103E400040216A461176012108E06146014306D00F
:103E500030216A4611760399517602210191049A24
:103E60000821059B4A401A430CD16146014301D108
:103E7000610707D530216A46117601210191029927
:103E8000491E02912978582904D037A103910FA91E
:103E90000F910DE039A1F9E76146059B049AFCF703
:103EA000BFFC039B8C469B5C0F9A521E0F921370B3
:103EB00061460143F0D10F9807A9081A20300390FA
:103EC000600704D5012000048443029801E001202A
:103ED00002900399884201DD401A00E00020411859
:103EE0000290019809180098401A0090E00306D447
:103EF0002146149B139A009800F05AF88619002066
:103F0000049008E006A9085C149A13999047049855
:103F1000401C761C049001998842F3DBE0030CD529
:103F20002146149B139A009800F042F8861904E089
:103F3000149A302013999047761C0299481E0290DB
:103F40000029F5DC08E00F980F990078491C0F91C3
:103F5000149A13999047761C0399481E03900029E0
:103F6000F1DCFAE6092801003031323334353637D6
:103F700038396162636465660000000030313233B5
:103F80003435363738394142434445460000000055
:103F9000F8B5044600251E461746880404D405E0FB
:103FA00039462020B0476D1C641EF9D52846F8BD5F
:103FB000FFB50446002581B01E46C80301D5302751
:103FC00000E02027880404D505E038460399B0476F
:103FD0006D1C641EF9D5284605B0F0BD70B50446C9
:103FE0000D46E1B20548FFF7CEFB00BF02210348B2
:103FF000FFF766FB0028F9D0204670BD2010024074
:10400000FCF768FF00213C48FDF76EFE3220FCF70C
:1040100067FDFEF75DFBFFF79DFC6CE0FCF7FEFE25
:10402000002801D0FCF726FF344800780300FFF792
:1040300034FD05041F5E5F60610010213048FCF70D
:10404000B5FE012189022E48FCF7B0FE0121C9020C
:104050002B48FCF7ABFE80212A48FCF7A7FEFF2186
:1040600001312848FCF7A2FE01202449087041E0F4
:104070002548C06B012108432349C86323480078C1
:1040800080210840002813D0204800784006400EC8
:104090001E490870FFF708F81D49086008460068C7
:1040A000FCF710FE1B480078FFF7D0FBFEF7C6FCBC
:1040B000FF212D3118480068FCF742F8002910D183
:1040C00016480068401C15490860502113480068D4
:1040D000FCF736F8002904D1FF2101310948FCF72B
:1040E00087FE0D480068401C0B49086002E001E0B3
:1040F00000E000BF00BF91E7800102400700002000
:104100000012014000100140000300402200002086
:1041100008000020050000201000002014000020EE
:1041200070B50E4D00240DE06420FCF7F1FD643401
:10413000AC4207D301200A4908700AA10E48FFF7D4
:1041400035FB03E00D4800780028EDD000BF0020CB
:104150000A490870FCF7CEFC70BD0000404B4C00D3
:10416000A9000020E8B685E697B6EFBC81EFBC81D8
:10417000EFBC815C720A000020100240A600002003
:10418000000000000000000000000000050000002A
:104190000A000000B80B0000C80000006400000026
:1041A0000200000001000000000000000400000008
:1041B0000000000001000000FFFF0000FFFF000002
:1041C00040000000040228040803300505E704024B
:1041D00028040803380506300402280408033205C1
:1041E0000615040228040803360505F20402280413
:1041F0000803400506760402280408033805064033
:1042000004022804080328050650040228040803B1
:104210002E0505FF41542B434950534E54504346FD
:10422000473D312C382C22696F742E636F6E736F8B
:104230006C652E616C6979756E2E636F6D220D0A47
:104240000D0A000000000000000000000000000057
:10425000000000000000000000000000000000005E
:10426000000000000000000000000000000000004E
:10427000000000000000000041542B43574A415009
:104280003D000000000000000000000000000000F1
:10429000000000000000000000000000000000001E
:1042A000000000000000000000000000000000000E
:1042B00000000000000000000000000000000000FE
:1042C00000000000000000000000000000000000EE
:1042D00000000000000000000000000041542B4DD1
:1042E000515454555345524346473D302C312C22AE
:1042F0004E554C4C222C22534333324631305453CA
:1043000038266B32336D364C414A305639222C22D6
:1043100043324238314636393146384146433630E9
:10432000333437413731354630313535443044390F
:104330003746414645324643222C302C302C22222F
:104340000D0A0D0A0000000000000000000000003F
:10435000000000000000000000000000000000005D
:10436000000000000000000000000000000000004D
:10437000000000000000000000000000000000003D
:10438000000000000000000000000000000000002D
:10439000000000000000000000000000000000001D
:1043A0000000000041542B4D515454434C49454E9C
:1043B0005449443D302C2231323334357C736563AB
:1043C0007572656D6F64653D335C2C7369676E6DE6
:1043D0006574686F643D686D6163736861317C22E8
:1043E0000D0A0D0A0000000000000000000000009F
:1043F00000000000000000000000000000000000BD
:10440000000000000000000041542B4D5154544363
:104410004F4E4E3D302C226B32336D364C414A307C
:1044200056392E696F742D61732D6D7174742E63FE
:104430006E2D7368616E676861692E616C6979754C
:104440006E63732E636F6D222C313838332C310D2F
:104450000A0D0A000000000000000000000000003B
:1044600000000000000000000000000041542B4D3F
:104470005154545355423D302C222F6B32336D36FC
:104480004C414A3056392F5343333246313054531E
:10449000382F757365722F54657374222C310D0A91
:1044A0000D0A0000000000000000000000000000F5
:1044B00000000000000000000000000000000000FC
:1044C00000000000000000000000000000000000EC
:1044D00041542B434950534E54504346473D312C91
:1044E000382C22636E2E6E74702E6F72672E636E80
:1044F000222C226E74702E736A74752E6564752E6C
:10450000636E220D0A0D0A0D0A0000000000000073
:10451000000000000000000000000000000000009B
:10452000000000000000000000000000000000008B
:104530000000000041542B434950534E54505449FD
:104540004D453F0D0A0D0A0000000000000000006C
:10455000000000000000000000000000000000005B
:10456000000000000000000000000000000000004B
:10457000000000000000000000000000000000003B
:10458000000000000000000000000000000000002B
:104590000000000000000000B845000800000020F6
:1045A000E4000000483B00089C460008E4000020AE
:1045B000A4070000583B00080000000000000000B5
:1045C00000000000000000000000000000000000EB
:1045D00000000000000000000000000000000000DB
:1045E00000000000000000000000000000000000CB
:1045F00000000000000000000000000000000000BB
:1046000000000000000000000000000000000000AA
:10461000000000000000000000000000000000009A
:104620000000010B0C0D0E0F100000000000000038
:1046300000000006400014006400000000000000BC
:104640000000000000000000000001000000000069
:1046500000009600000000000A0A20000000000090
:10466000000000000000000000000000000000004A
:10467000000000000000000000000000000000003A
:10468000000000000000000000000000000000002A
:0C4690000000000000000000000000001E
:04000005080000C12E
:00000001FF
