:020000040800F2
:1000000050070020D9000008FF0000080101000887
:1000100003010008050100080701000800000000B6
:1000200000000000000000000000000009010008BE
:100030000B010008000000000D010008CD180008A9
:10004000530C0008570C0008590C0008550C000808
:10005000DD0E000800000000330A000859300008D7
:100060006D300008C9180008CB1800084B0A0008BA
:10007000530A0008550A0008570A0008E11800084A
:10008000E5180008F51800080519000815190008FA
:1000900017190008650C0008630C0008A92F000858
:1000A000AB2F00080000000000000000000000006E
:1000B00000000000DD090008490A0008E9220008E4
:1000C0000448854600F05AFC00480047D534000833
:1000D000C046C046500700200E480F4901600F4837
:1000E0000F4901600F481049016010481049016034
:1000F0000C48104901601048804710480047FEE74F
:10010000FEE7FEE7FEE7FEE7FEE7FEE7FEE7FEE7C7
:10011000FEE700001030004010005FA0DC0300404C
:1001200001005FA000100240000080005C1002404F
:1001300060005FA000000000D1180008C1000008A6
:1001400030B50B46014600202022012409E00D466F
:10015000D5409D4205D31D469540491B25469540F7
:1001600040191546521E002DF1DC30BD70B500243B
:100170002546002801DA01244042002901DA012540
:100180004942FFF7DDFFAC4200D04042002C00D0D6
:10019000494270BD03460B439B0703D009E008C9E1
:1001A000121F08C0042AFAD203E00B780370401C27
:1001B000491C521EF9D27047F8B502464A40D40F86
:1001C00042004B0052085B089A4202D2024608469F
:1001D00011464A0023D0C30D4A00DDB2120EAD1AFB
:1001E000202D35DA49020126490AF6058A19002C24
:1001F00000D0524220214F1B1146B9402A4110180D
:10020000C20D9A4221D0002C17D0012D08DCDA054E
:10021000801AD20F8019D207DBB200F017FBF8BDAD
:10022000DA05801A012340001B06C01880185A42C4
:100230008018CA0F1043490007E04908C20711435C
:10024000DA05801A80194008801800F0F7FAF8BD26
:1002500061000122511A001BF7E70122D207514029
:10026000AAE70122D2075040A6E7024670B54A40ED
:10027000D30FDB0740002DD04A002AD0010E140E08
:10028000000212020919400A520A8418E5010446C4
:100290005443000A120A2E045043A4194219200C98
:1002A000C543AA18120C0125AD03521C52191204A1
:1002B0007F39240400D0521C104301D44000491E51
:1002C000C2B20C06C0092018401C4008802A02D087
:1002D00003E0002070BD40084000002900DA002043
:1002E000184370BD70B502464A40D50F40004A0021
:1002F000ED0740085208002814D0002A12D0C40D7F
:10030000D30D41020120C0055202490A520AE41AE3
:10031000091812187D34914201D3641C00E0490091
:10032000002C01DA002070BD0023914201D3891A0C
:100330000343400849000028F7D100290AD0914220
:1003400002D10121C90705E0914201D2012101E05A
:100350000121C943E005C018401900F06FFA70BDD3
:10036000F0B507460846584087B0C00F04904800D3
:100370000E46590040084908BC1A884105D2384643
:1003800031461E4617460B460246580040081043A9
:100390004DD0300D039040055900400D490D05909A
:1003A000401A0290402873DA18030121000B090556
:1003B0000843019004980092002806D01146019A43
:1003C00049420020904100910190029840210A1A70
:1003D0000199009800F0FEF905460C466B4607CBE4
:1003E00000F019FAC0197141039A0E0D0023D717B6
:1003F00056401A467A40164344D0049A002A2DD01B
:10040000029A012A039A15DC1205C01A91410126AD
:100410003605001C7141D20F059ED2070093019250
:1004200002962A46234600F057FA07B0F0BD384638
:100430003146FAE71605234A0F46B218C01AB741EB
:1004400001210905001C4F4100187F411146181871
:100450007941E20F10436D19644113E0E2076D0822
:1004600015436408C2071443039A01261205C01AF3
:1004700091413605001C7141CE07400830434908C0
:10048000C01851412A46234600F019FACDE7FFE78C
:10049000049801224000C117121A00238B410498CE
:1004A0003146C417381AA141EEE730B40124E407FD
:1004B000634030BC54E730B40124E407614030BCF1
:1004C0004EE700000000E0FFF0B51FB488B00B99C4
:1004D0000998002448400999C00F4900490809912A
:1004E000C0070B990090490049080B910999089899
:1004F000A64608431CD00B990A98084318D00998BF
:1005000001244000420D4800410D099824050003D4
:10051000000B204309900B980003000B20430B9025
:1005200050181C494018002201901446104605E05E
:10053000002001460DB0F0BD032801DA034600E0BB
:1005400003239C46C11A0AAE0AE05F0008ADED5BCA
:100550004F00F75B7D430027AA187C41491C5B1EB6
:100560006145F2DD410004AB5A522104120C0A43EA
:10057000240C401C0828DFDB01980290009970468B
:1005800001910090059B049A0799069800F0A4F940
:10059000D0E700000DFCFFFFF0B50C465C4085B0D5
:1005A000E40FE40703944C000026640859009446C5
:1005B000490802460296224321D062460A431ED0D1
:1005C0006200570D4A000E032303550D0124024615
:1005D0002C492405781B1B0B360B4018234326435C
:1005E000614600901C46501AB44103D30098401C49
:1005F000009002E0921800985B41002803DA002086
:10060000014605B0F0BD00200121090507468646D8
:1006100011E064461D46141BB54106D36546521BC6
:10062000B341744607430C43A646CD07400849082A
:10063000284392185B4105460D43EAD11046184302
:1006400013D06046194650407140084306D06046BA
:10065000101AB34106D20122002306E00022012332
:10066000DB0702E00122D2435310009874460105D3
:10067000381C6141029C039D0019694100F01FF97B
:10068000BFE70000FD030000C217C10F504010B5C6
:100690004018CA079623002100F0D8F810BD10B505
:1006A00000229623114600F0D1F810BD0EB5C217F6
:1006B000C10F5040CA0740180021054B0293019218
:1006C00000910A460B4600F007F903B000BD000098
:1006D000330400000EB505490291002100910A463D
:1006E0000B46019100F0F8F803B000BD33040000A0
:1006F000C20F410040020123400ADB05D207090E68
:10070000C0187F2901DA00207047962903DC962360
:10071000591AC84001E096398840002AF4D0404276
:100720007047410040020122400AD205090E80189C
:100730007F2901DA00207047962903DC9622511A9E
:10074000C8407047963988407047C20FD2074000B2
:1007500040080BD0C10D0723DB01C9184002090571
:10076000400A1143C2084007114370470020014668
:100770007047CB0FDB07490010B5490802460A4312
:1007800007D00A0D07240903E401090B121B002AF4
:1007900001DC002010BDC900440F0C43C100E0186B
:1007A000D205801800F04AF810BD00000122D207DF
:1007B000002800DB101A002900DB511A8142704723
:1007C0000122D207002800DB101A002900DB511A91
:1007D0008842704710B5202A04DB0146203A914038
:1007E000002010BD914020239C1A0346E34019438A
:1007F000904010BD10B5202A04DB0846203AD040B6
:10080000002110BD0B46D340D0402024A21A9140B5
:100810000843194610BD10B5202A06DBCB17084641
:10082000203A1041C1170B4306E00B461341D0405C
:100830002024A21A91400843194610BD002904DA69
:10084000401C490001D140084000704770B40024AA
:10085000050C05D11024000402D1002921D0112457
:10086000050E01D100020834050F01D10001241D3D
:10087000850F01D18000A41C002801DB4000641C0E
:10088000002908D020252E1B0D46F540A14000D0A0
:1008900001212943084301061B1B000ADB1D02D569
:1008A000002070BC7047DB05181880180029F8DAA2
:1008B000401C4900F5D170BC40084000704710B59D
:1008C000002B08DA0024401C614192185B411A4356
:1008D00001D14008400010BDF0B51FB482B00546FC
:1008E0000C0003D0084602F077FD02E002F074FD30
:1008F00020300246009021462846FFF76BFF049BFC
:10090000059A04460F4618431143084314D018466D
:1009100010431BD0009840210A1A18460599FFF78A
:1009200069FF05460E46009A05990498FFF752FFA5
:10093000084305D0012004E02046394607B0F0BD49
:100940000020C11705430E432C43374300990E98EE
:100950006305401A7905E40A00220C43FD0A0A30B7
:1009600002D500200146E9E70105101969410C9CF8
:100970000D9D00196941FFF7A2FFDFE7064C012535
:10098000064E05E0E36807CC2B430C3C9847103437
:10099000B442F7D3FFF798FBAC360008CC3600081A
:1009A00041607047002905D002680123DB031A4328
:1009B000026004E002680123DB039A43026070478F
:1009C000002905D0026801231B031A43026004E0DA
:1009D000026801231B039A430260704710B501218E
:1009E0000148FFF7DDFF10BD10210240002A03D0AF
:1009F00003680B43036002E003688B4303607047A6
:100A000010B50268054B1A408C680B6823438C892B
:100A100023431A4302604B68C36010BDE0F7C8FF70
:100A20000A460168490949010B461343194601600A
:100A30007047704710B5044622460221014800F075
:100A4000FBFF10BD80010240704710B501F01EF899
:100A500010BD70477047704701617047002904D08E
:100A6000826880231A43826003E0826880239A436D
:100A700082607047002A03D083680B43836002E0E2
:100A800083688B43836070470246002013690B40E4
:100A9000002B01D0012000E000207047002A03D085
:100AA00083680B43836002E083688B4383607047F5
:100AB00010B582680B4B1A400B884C8823438C88F6
:100AC0002343CC8823430C8923434C8923430C695B
:100AD00023431A4382604B6903608B694360CB6890
:100AE000C36010BD20007FFF0A490968012252043B
:100AF000891A05D0891A07D11221074A117007E017
:100B00001121054A117003E0FF21034A117000BF53
:100B100000BF7047040000200000002070B50446AC
:100B2000002504E07D20C00000F004F86D1CA54203
:100B3000F8DB70BD10B504460121084800F0EEFE58
:100B400000BF06484068A042FBD30020034948602C
:100B50000021024800F0E2FE10BD0000400102400A
:100B600070B54D88022D04D1056A0E8835430562A3
:100B700016E04D88012D08D1056A0E88B54305623F
:100B8000056C0E88354305640AE04D88002D07D1B9
:100B9000056A0E88B5430562056C0E88B543056489
:100BA000036E002210E0012494400D882540002DA2
:100BB00009D056000325B5401E46AE4333468D8806
:100BC0005600B5402B43521C102AECD3036670BD6F
:100BD000024613680B40002B01D0012000E00020EA
:100BE000704708B500900AE0CA07D20F002A02D069
:100BF0000022009B1A704910009A521C0092002992
:100C0000F2D108BD08B500900AE0CA07D20F002A49
:100C100002D00122009B1A704910009A521C0092C7
:100C20000029F2D108BD18B5034610330093002205
:100C30000CE0CB07DB0F002B04D0009B1B78DA43C2
:100C4000009C22704910009B5B1C00930029F0D18E
:100C500018BD704770477047704710B500F090FBA3
:100C600010BD704710B50321014800F003F810BD16
:100C70000002024081607047002904D0026880238E
:100C80001A43026003E00268014B1A400260704799
:100C90007FFF0000002904D0426980231A4342618B
:100CA00003E04269014B1A40426170477FFF000038
:100CB000426933239A4342618A880B881A434B88DE
:100CC0001A4343691A434261704710B5002A03D0A2
:100CD00003680B43036004E00368CC43A4B22340E1
:100CE000036010BD10B502686F241346A3431A4673
:100CF0000B884C8823438C8823431A4302608B68FB
:100D00004360CB68C360CB88836110BD70B5034678
:100D1000012400200AE00D462540002D03D0850067
:100D20001E46303672516400451CE8B20828F2DBDA
:100D300070BD0000002905D0054A12680243044B2B
:100D40001A6004E0024A12688243014B1A6070473D
:100D500000300040002807D0074909680122D20569
:100D60001143054A116006E0034909680122D205D2
:100D70009143014A1160704700000240054909682B
:100D8000072212059143034A116011460968014385
:100D90001160704700000240002905D0054A126822
:100DA0000243044B1A6004E0024A12688243014B7A
:100DB0001A60704700000240002807D00749096800
:100DC0000122D2051143054A116006E00349096872
:100DD0000122D2059143014A116070470010024080
:100DE00005490968072212059143034A116011461B
:100DF000096801431160704700100240002905D0C6
:100E0000054A12680243044B1A6004E0024A126861
:100E10008243014B1A60704700100240002807D03F
:100E2000074909680122D2051143054A116006E00D
:100E3000034909680122D2059143014A11607047B4
:100E40000020024005490968072212059143034A20
:100E5000116011460968014311607047002002408B
:100E600005490968072212059143034A116011469A
:100E700009680143116070470030004000B5024628
:100E8000FF2000F027F9002A06D0074840694021DA
:100E900008430549486105E003484069402188430B
:100EA0000149486100BD00000030004000B5024625
:100EB000FF2000F00FF9002A06D0074840692021E2
:100EC00008430549486105E00348406920218843FB
:100ED0000149486100BD000000300040704700003B
:100EE00000B50246FF2000F0F5F8002A07D00848B8
:100EF00040690121C90308430549486106E00448E7
:100F000040690121C90388430149486100BD0000CF
:100F10000030004000B50246FF2000F0DBF8002A58
:100F200006D007484069022108430549486105E0A9
:100F300003484069022188430149486100BD00001F
:100F40000030004000B50246FF2000F0C3F8002A40
:100F500006D007484069012108430549486105E07A
:100F600003484069400840000149486100BD000055
:100F70000030004070B50446FF2000F0ABF8314867
:100F8000844242D00126012001E07600401C2E4917
:100F9000C9698907890F491C8142F6D22A49C96962
:100FA000FF2212021140090A48003146FFF7C8F833
:100FB00040280CD32448406903210903884322496F
:100FC000486108464069891408431F494861FF2069
:100FD00000F080F81C4845690721C901284688436C
:100FE000054628462043054617484561406980214B
:100FF0000843154948610846406980210840002897
:1010000001D0002070BD0120FCE70F48406903219A
:10101000090388430C49486108464069891408431C
:10102000094948610846406980218843064948616A
:101030000846406980210840002800D1E2E70120ED
:10104000E0E700007FFF00000030004000B50246EE
:10105000012A06D10D480069042108430B490861A3
:1010600012E0FF2000F036F80848006904218843A8
:1010700006490861064880696021884304498861FF
:10108000084680691043886100BD000000E000E070
:1010900000300040002806D00649096903221143A8
:1010A000044A116105E00349096989088900014A78
:1010B0001161704700E000E0411E044A914203D8EC
:1010C000034A51610021916170470000FFFFFF005A
:1010D00000E000E00146402903DB0348C160002036
:1010E00070470120FCE70000003000401FB50020E1
:1010F000694688810120800400900320400301900C
:10110000C00102900E48FFF77BFC1F210C48FFF73F
:1011100087FC0022FF2101310948FFF767FC01210C
:101120000748FFF74DFC03211D2002F087F91D2021
:1011300002F078F901210248FFF734FC1FBD0000DE
:101140001021024000B587B001210846FFF7F2FDEB
:1011500002216846018003210902C18089000181C2
:101160001D4805901D4806900021684681804181F8
:10117000092080060490C820039068464180694693
:101180001748FFF795FC012211041548FFF786FC6C
:1011900000220121C9041248FFF780FC002201212E
:1011A00089040F48FFF77AFC012251040C48FFF72D
:1011B00075FC00220121C9050948FFF75BFC0321EA
:1011C0000B2002F03BF90B2002F02CF9012104481E
:1011D000FFF744FC07B000BD80010020480200205A
:1011E0000008014000B5A3B0802120A88180022121
:1011F000C1800021018121A95E48FFF7B1FCFF21D8
:10120000013110A881870221C187002120A8018017
:101210001FA95848FFF7A4FC102110A881860221BD
:10122000C186002101871DA95348FFF799FC2021A1
:1012300010A881850221C185002101861BA94E4885
:10124000FFF78EFC0121890210A881840221C1844C
:101250000021018519A94848FFF782FC0121C90234
:1012600010A881830221C1830021018417A942486B
:10127000FFF776FC802110A881820221C182002123
:10128000018315A93D48FFF76BFCFF21013110A830
:1012900081810221C1810021018213A93748FFF712
:1012A0005FFC0121490210A881800221C180002138
:1012B000018111A93148FFF753FC0121C902684699
:1012C00081870121C187002110A801800FA92B4827
:1012D000FFF746FC01210903684681860221C18689
:1012E000002101870DA92548FFF73AFC0221684635
:1012F0008185C185002101860BA91E48FFF730FCBE
:101300000421684681840221C1840021018509A944
:101310001848FFF725FC0821684681830221C18314
:101320000021018407A91348FFF71AFC1021684621
:1013300081820221C1820021018305A90D48FFF7A6
:101340000FFC2021684681810221C1810021018298
:1013500003A90848FFF704FC402168468180022168
:10136000C1800021018101A90248FFF7F9FB23B0E8
:1013700000BD0000001101400012014000100140BA
:1013800010B5FFF72FFF00F017F800F087F800F016
:10139000B3F800F0EFF900F043FA00F099F900F02B
:1013A000BFF800F009F900F051F900F017F8FFF765
:1013B0009DFEFFF7C7FE10BD0648006A06210843E0
:1013C000044908620448006A0921090308430249E4
:1013D00008627047001001400011014000B587B05D
:1013E000FF20FFF777FE01210802FFF7D5FC00225E
:1013F00001212948FFF78AFC632202212648FFF7D2
:1014000085FC632204212448FFF780FC6322082125
:101410002148FFF77BFC002210211F48FFF776FCD4
:10142000002220211C48FFF771FC002240211A48AD
:10143000FFF76CFC002280211748FFF767FC0021B2
:101440006846018203218181632141820E2005903B
:101450000020069000216846C18103A90E48FFF7CD
:1014600041FC2021684681800021C180018101A9C1
:101470000948FFF71DFC00210748FFF70BFC00227D
:10148000FF2101310448FFF720FC01210248FFF74A
:10149000F3FB07B000BD00000002024010B5FF20C2
:1014A000FFF718FE0020FFF701FD0020FFF74AFDBF
:1014B0000120FFF72FFD0120FFF7E0FC0120FFF7DF
:1014C0000FFD0C48FFF756FD0020FFF7C9FC002078
:1014D000FFF754FC0120FFF73DFC0020FFF780FCE4
:1014E0000120FFF769FC0020FFF7ACFC0120FFF7AB
:1014F00095FC10BD7FFF000010B5FF20FFF7EAFD4F
:101500000020FFF7A3FD7D20C001FFF7D5FD0021DE
:10151000481E01F093FF0120FFF7BCFD10BD000045
:1015200000B585B001210220FFF736FC0021684696
:101530004181052109020181002181818321090264
:1015400001820021C18102A91A4800F08BFA002112
:1015500068468180C18001A9164800F009FA00217F
:10156000144800F0F7F9002168460180418069467F
:10157000104800F02FFA322202210E4800F05CFAE7
:10158000002201210B4800F017FA0122202109480E
:1015900000F0D2F901224021064800F0CDF90122E5
:1015A0001021044800F0C8F90121024800F0B6F902
:1015B00005B000BD4001024000B585B00121042006
:1015C000FFF7EAFB00216846418101818181832187
:1015D000090201820021C18102A91B4800F042FAE0
:1015E000002168468180C18001A9174800F0C0F938
:1015F0000021154800F0AEF90021684601804180C5
:101600006946114800F0E6F9322202210E4800F046
:1016100013FA002201210C4800F0CEF9012220210A
:10162000094800F089F900224021074800F084F9B8
:1016300001221021044800F07FF90121024800F046
:101640006DF905B000BD00008001024000B585B015
:1016500001210820FFF7A0FB00216846418101819C
:1016600081818321090201820021C18102A91748D9
:1016700000F0F8F9002168468180C18001A9134873
:1016800000F076F90021114800F064F90021684665
:101690000180418069460D4800F09CF93222022108
:1016A0000A4800F0C9F900220121084800F084F935
:1016B0000321122001F0C2FE122001F0B3FE01212D
:1016C000024800F02BF905B000BD0000C001024047
:1016D00000B587B02021684681820121C1820021A6
:1016E000018305A92148FFF73BFA40216846818123
:1016F0000121C1810021018203A91C48FFF730FAB2
:1017000001211020FFF748FB0221684601800521D6
:101710000902418000218180502002906846C180EA
:101720006946134801F06AFC0121C903104801F021
:101730007FFC012211460E4801F053FC002280215B
:101740000B4801F041FC00224021094801F03CFC1B
:101750000321172001F072FE172001F063FE012122
:10176000034801F023FC07B000BD00000010014059
:101770006000024000B587B00121490368468182BC
:101780000121C1820021018305A92248FFF7E8F960
:1017900001218903684681810121C18100210182E3
:1017A00003A91C48FFF7DCF901218020FFF7F4FAB8
:1017B00019480090E1204002019001200290694602
:1017C000164801F05BFD01221146144801F048FD66
:1017D00001220421114801F043FD012202210F489A
:1017E00001F03EFD012280210C4801F095FC012210
:1017F00040210A4801F090FC0021084801F064FDF6
:101800000121064801F08AFD0121044801F06EFD26
:1018100007B000BD001001400048E8018000024010
:1018200000B587B00121C903684681820121C182C8
:101830000021018305A92048FFF792F9012168469C
:101840008181C1810021018203A91C48FFF788F929
:1018500001218020FFF7D2FA19480090E1204002D0
:101860000190012002906946164801F007FD01220F
:101870001146144801F0F4FC01220421114801F042
:10188000EFFC012202210F4801F0EAFC03210720AE
:1018900001F0D4FD072001F0C5FD0021094801F049
:1018A00013FD0121074801F039FD0121054801F030
:1018B0001DFD07B000BD00000010014000110140F7
:1018C0000048E80120100240704770477047000050
:1018D0000120C006014988607047000000ED00E06B
:1018E0007047000010B50721014800F015F810BD41
:1018F0004001024010B50721014800F00DF810BD6D
:101900008001024010B50721014800F005F810BD24
:10191000C001024070477047C1607047002904D081
:10192000026880231A43026003E00268014B1A40F8
:10193000026070477FFF000010B5002A03D0836962
:101940000B43836104E08369CC43A4B223408361E9
:1019500010BD0000002904D0026801231A43026070
:1019600003E00268014B1A4002607047FEFF00006E
:1019700010B54B88302B00D100BF4B88082B02D00C
:101980000B88042B00D100BF03689AB23C24134695
:10199000A3431A46074B984205D14B88082B06D023
:1019A0004B881A4303E04B880C8823431A43026098
:1019B00010BD00000001024010B5002A03D0836969
:1019C0000B43836104E08369CC43A4B22340836169
:1019D00010BD000010B54B88022B02D00B88022BE3
:1019E00000D100BF4B88012B02D00B88012B00D106
:1019F00000BF02680F24E4021346A3431A460D4BAE
:101A0000984205D10B88022B02D04B88022B08D1BB
:101A1000084B98420BD00B88012B08D04B88012B28
:101A200005D00B885B034C88E40223431A43026011
:101A300010BD000000010240022900D100BF0129B1
:101A400000D100BF064B984203D0022901D10261A8
:101A500005E0034B984202D1012900D14261704751
:101A60000001024010B50268074B1A400B888C88B1
:101A700023434C882343CC88640123431A430260E8
:101A80000B898360436010BD9DF8FFFF10B50221F4
:101A90000648FEF7F9FF012806D102210348FEF7A8
:101AA000DBFF01200249087010BD00000008014062
:101AB0001600002010B5034600211EE000220AE0B7
:101AC00036204843144C00191830805C984200D1ED
:101AD00008E0501CC2B2362048430F4C0019407C2D
:101AE0009042EDDC00BF362048430B4C0019407C8F
:101AF000904200D005E0481CC1B2084800788142FD
:101B0000DCDB00BF05480078814201D0012010BD18
:101B100000BF0020FBE7000060000020A8000020BC
:101B2000F0B59FB004460020169014901390A08E3C
:101B3000401CA086002537E020461830475D06206F
:101B40007843C749095A06207843C54A8018408817
:101B5000081A00B2690017AA5052680017A9085E57
:101B60001621615E884201DD0020A086680017A969
:101B7000085E1421615E884203DA0020690017AA1A
:101B80005052384600F06AFB690017AA1190515E66
:101B90006422514308461199FEF7E8FA00B2690041
:101BA00017AA5052681CC5B2607CA842C4DCA08E43
:101BB00000287CD100250CE0680017A9095E169862
:101BC000814204DD6EB2680017A9085E1690681C99
:101BD000C5B2607CA842EFDC002526E0701E4019EB
:101BE000002806DA607C401E400017A9085E1690A7
:101BF0000FE0701E4019617C884204DB10A91C2094
:101C0000085E169005E0701E4019400017A9085E96
:101C10001690691C16984843149940181490169908
:101C2000139840181390681CC5B2032DD6DB208E84
:101C3000FEF750FD00228B4B0B910A90FEF7ACFC97
:101C4000002201239B070D910C90FEF73DFC002222
:101C5000854B0F910E90FEF72EFC11911090FEF720
:101C600088FD12901398FEF71AFD0F901498FEF756
:101C700016FD0E900F99FEF735FB7C491090FEF78C
:101C8000F4FA1190FEF734FD60861298FEF75DFDC0
:101C90000F910E90208EFEF71DFD0022714B0391D7
:101CA0000290FEF779FC07910690139800E0C9E0D6
:101CB000FEF7F5FC02901498FEF7F1FC01900299F2
:101CC000FEF710FB0390FEF740FD05910490079B83
:101CD000069AFEF7EAFB0B910A90617CFF206930BF
:101CE000FEF744FA0790FEF7E1FC099108900B9B80
:101CF0000A9AFEF7E9FB0D910C900F9B0E9AFEF7E6
:101D00004BFC11911090FEF734FD1290701E0028CC
:101D10000AD5617C721EFF2369335A431046FEF7D1
:101D200025FAFF30693007E0617C721EFF236933BA
:101D30005A431046FEF71AFA0E90FEF7A5FC1090D3
:101D4000617CFF206930FEF711FAC20F1118119063
:101D50004810FEF799FC0E901299FEF72DFA0F909D
:101D60001099FEF729FA12901298159004E0404954
:101D70001598FEF772FA15903D491598FEF720FD6B
:101D8000F5D32078012842D1617CFF206930FEF72D
:101D9000EDF9FF216931081A1090FEF775FC1190DA
:101DA0001599FEF703FD11D8617CFF206930FEF71D
:101DB000DDF9FF216931081A401E1190FEF764FC1D
:101DC0001590002E02D17F20C0051590617CFF2068
:101DD0006930FEF7CBF9FF216931081A0D90FEF743
:101DE00053FC0F90608AFEF75AFC0D901599FEF790
:101DF0003CFA0E900F99FEF775FA7F21C9051090F5
:101E0000FEF7DAF91190FEF78CFCA08526E0608AD7
:101E1000FEF745FC0E901599FEF727FA14490F902E
:101E2000FEF760FA7F21C9051090FEF7C5F9119001
:101E3000FEF777FCA085A08D618A88420EDD608A5E
:101E4000A0850BE00020A085617C2820005D234652
:101E5000343322461832119000F00CF81FB0F0BD58
:101E60002003002000005940000010400000C8423C
:101E70000000B443FFB581B01F4639880198814204
:101E80007EDD002038800026B0E00398845D0620C7
:101E900060435949095A06206043574A80184088D0
:101EA000081A05B2204600F0D9F900B20090534854
:101EB000002141564842854242DB504800214156AC
:101EC0008D423DDC60004E49085A401900B2610065
:101ED0004B4A505200F084F96100494A515E8842F1
:101EE00010DC06206043444940184088401C81B201
:101EF00006206043404A8018418000206100404A2B
:101F0000505217E000F06CF9404261003C4A515ECB
:101F100088420FDD06206043374940184088401E44
:101F200081B206206043344A80184180002061005D
:101F3000334A50520020334908553349085553E07D
:101F40002E4800214156484285422DDA2D48005D39
:101F5000401C2C490855085D2C490978FEF706F904
:101F6000002941D12748015D28480078284A127885
:101F70005043814208DB002022490855012000E03F
:101F800038E0244908702FE0062060431A494018C1
:101F900040881A4900228A56801A81B2062060437E
:101FA000154A801841801FE01448002141568D4297
:101FB0001ADD1548005D401C134908550846005DB0
:101FC000202811D1002008550C490856C10F0918C6
:101FD0004A1006216143084BC918498851188AB232
:101FE00006216143C9184A80701CC6B20298864215
:101FF00000DA4AE705B0F0BD200300205A000020B7
:102000001003002021000020410000209700002044
:1020100096000020AE00002070B51B48057800BF78
:1020200000F038F800240DE0062060431749095AF3
:1020300006206043154A80184180204600F06EFD5E
:10204000601CC4B2124800788442EDDB2846691E49
:10205000CDB20028E4D100F0A7F800F011F9054650
:1020600000BF00F017F8002404E0204600F03CF820
:10207000601CC4B2064800788442F6DB2846691E1C
:10208000CDB20028EDD170BD9800002020030020C3
:102090009C00002000B50022104800784006400E49
:1020A0000E4908700E48C068012108430C49C860F9
:1020B0000CE001F089F90B48C06B01210843094984
:1020C000C863501CC2B2642A00DB05E003480078F4
:1020D000802108400028ECD000BF00BD180000207F
:1020E000002202400003004070B504460620604311
:1020F0002C49095A062060432A4A801880880D1A04
:10210000204600F0ABF80646B54202DC704285423C
:1021100009DA062060432349095A06206043214A10
:102120008018818033E07010A84203DB70104042B9
:10213000A84216DD062060431A494018818806200F
:102140006043184A801880884010091A06206043AE
:10215000105A4010081881B2062060438018818010
:1021600015E0062060430F4940188188062060432F
:102170000C4A80188088C010091A06206043105A43
:10218000C010081881B206206043801881800620A4
:10219000604304494018818806206043014A115277
:1021A00070BD00002003002000200AE0062141430A
:1021B000064A525A06214143044BC9188A80411CE1
:1021C000C8B2034909788842F0DB70472003002039
:1021D0009C00002001460148405C704749000020F7
:1021E0000148808B80B270471836000810B502464F
:1021F0000C46230001F007F907050A10161A1E24E1
:102200002A000A2050431249085C10BD0A2050439E
:102210000F4940188078F8E70A2050430C494018CD
:10222000C078F2E71046FFF7D5FFEEE70948008DCA
:10223000C0B2EAE70A205043054940184078E4E775
:102240000A205043024940184079DEE70020DCE7CD
:102250005C360008183600080120704701460A2045
:102260004843064A8018007A02020A204843034B7A
:10227000C018407A101880B2704700005C36000821
:102280000148007C704700001836000801480078BB
:1022900070470000AE00002001460A204843024A71
:1022A00080180079704700005C36000810B50321E3
:1022B00002480078FDF75AFFC0B210BD5900002057
:1022C00070B505462846FFF7C9FF0446E0000A211D
:1022D000FDF74CFF84B2204670BD00000148007835
:1022E000401070475900002010B500F0B9FD10BD36
:1022F00010B50120FEF792FD5348C0680121090482
:1023000088435149C86000205049087050490870FE
:102310005049087000F0BCF800F094FC4A48C068CE
:10232000802108434849C86000210846FFF75EFF46
:10233000441C21467D204001FDF718FF46490880D6
:102340000020FFF7A9FF44490988484380B23E496D
:10235000C86102210020FFF749FF000700093A4940
:1023600009690F2212069143084337490861002189
:102370000846FFF73BFF0007000C3349C9680F22EE
:102380001203914308433049C86006210020FFF73B
:102390002DFF80072C4909698900890808432A49CB
:1023A000086103210020FFF721FF00022649096987
:1023B0007F225202914308432349086105210020EE
:1023C000FFF714FF800780081F49096903221207DD
:1023D000914308431C49086101210020FFF706FFD3
:1023E00019490969090A09020843174908610421C2
:1023F0000020FFF7FBFE00280BD01348C068202107
:1024000088431149C8600846C068402108430E4906
:10241000C8601F20002805DBC206D20E01219140B2
:102420000E4A116000BF0848C068102108430649E1
:10243000C8600B4801780120884003490860FFF715
:10244000EBFD00F00FF810BD00220240AE000020AE
:10245000A900002018000020AA00002000E100E0F0
:102460001900002000200AE006214143064A525A82
:1024700006214143044BC9184A80411CC8B2034994
:1024800009788842F0DB7047200300209C00002080
:1024900000200DE000210E4A11540E4A11540E4A3C
:1024A000115442000D4B99520D4A1154411CC8B2AF
:1024B0000C4909788842EDDB00210B4A1160FF21AD
:1024C0000A4A117000210A4A11800A4A11707047A5
:1024D00029000020210000203100002010030020EE
:1024E000390000209C000020A0000020B000002047
:1024F000B2000020AE0000200148007970470000C3
:102500001836000870B505464B480078032820DBD4
:1025100000204949087049480078002811D100245A
:102520000BE006206043464940188188062060433E
:10253000434A80184180601CC4B2424800788442FB
:10254000EFDBFFF7A5FF00203F4908703B4908700B
:1025500070BD3E480078401C3C4908700846007831
:10256000A84204D1FFF720FE0020394908703748FF
:102570000078A8425DDD00242FE00620604330494A
:10258000095A062060432E4A80188088081A06B22D
:102590002A48007800280DD12E4800214156880095
:1025A000B04215DA2B480021415648428000B04223
:1025B0000EDD16E0274800214156C800B04207DA78
:1025C0002448002141564842C000B04200DD08E0E6
:1025D0002046FFF789FD601CC4B21A480078844287
:1025E000CBDB00BF17480078844204D1184800783C
:1025F000401C17490870E80014490978884218DC23
:10260000002012490870144908700B480078401CDB
:1026100009490870A8000E490978884209DC0020A1
:1026200005490870FFF71EFFFFF732FF002006493B
:10263000087000BF8CE70000AF0000205B000020A6
:10264000200300209C000020AE000020B4000020E9
:10265000B00000205A000020AD0000200348C068F0
:10266000012108430149C860704700000022024070
:1026700070B50026002015490870002510E00126DD
:102680002846FFF731FD2846FFF714FA002800D04E
:102690000026012E02D1284600F022F8681CC5B29F
:1026A0000B4800788542EADB002407E036216143CD
:1026B000084A8818FFF734FA601CC4B2064800784C
:1026C0008442F3DB0548006870BD0000AC000020C8
:1026D0009C00002060000020A8000020A000002036
:1026E000FEB5044606206043F349095A06206043BC
:1026F000F14A80184088081A07B20120A040EF492B
:1027000008602046FFF7AAFD00B2009000988742BB
:1027100001DB012600E00026012E7DD1E848005DA6
:10272000FA2804DAE648005D401CE5490855E5480A
:102730000068E24909680840002879D1E248007839
:102740000190FFF789FD002814D00026002507E03E
:10275000DB48405D012801DB701CC6B2681CC5B2B5
:10276000DA4800788542F3DB032E03DB01980F3053
:10277000C0B20190D248015D0198814258DB002629
:10278000FFF7BAFE00282BD100250BE0AC4207D0A2
:10279000FFF78CFDCA49495D884201DC012605E04E
:1027A000681CC5B2C94800788542EFDB00BFFFF75F
:1027B00053FD00282DD1002E2BD100250BE0AC427B
:1027C00007D0FFF773FDC249495D884201DC01264D
:1027D00005E0681CC5B2BD4800788542EFDB18E013
:1027E000FFF73AFD002814D10190002509E0B44814
:1027F000405D022803DB0198401CC0B20190681CB8
:10280000C5B2B24800788542F1DB0198032800DBAD
:102810000126012E05D101E015E009E00120AD49B6
:102820000870A8480068A54909680843A5490860D8
:102830000020A9490855A94908556100A84A5052E5
:10284000A849085535E12046FFF73AFDB84209DAB4
:102850009F48005DFA280DDA9D48005D401C9C49A8
:10286000085507E0A0480078401C9F4908700020E8
:10287000974908559D48002141564842874246DB0A
:102880009A48002141568F4241DC00209249085568
:10289000944908558B48006800281ED16000904973
:1028A000085AC01900B261008D4A5052FFF798FCD7
:1028B00061008B4A515E884210DC062060437E49ED
:1028C00040184088401C81B2062060437A4A801834
:1028D000418000206100824A505281E0FFF780FC75
:1028E000404261007E4A515E884279DD06206043A5
:1028F000714940184088401E81B2062060436E4AEC
:102900008018418000206100754A505268E0774885
:1029100000214156484287423ADA6F48005D401C28
:102920006D49085500206F4908556B49085D70498D
:102930000978FDF71BFC002922D16748015D6C482E
:1029400000786C4A12785043814208DB00206249CB
:1029500008550120684908706849087010E063490B
:1029600000200856C10F09184A1006216143524B36
:10297000C9184988891A8AB206216143C9184A8050
:102980005F480078A0422BD1FF205D49087027E006
:102990005648002141568F4222DD00204E490855FD
:1029A0004848006800281BD14E48005D401C4D4936
:1029B00008550846005D202812D1002008554B49D3
:1029C0000856C117890F09188A10062161433A4B2E
:1029D000C918498851188AB206216143C9184A802A
:1029E00038480068354909680840002838D0009800
:1029F0008110401AB8422DDD3848005D401C37492F
:102A00000855FFF76BFC0190002507E02C48405D5E
:102A1000012801DB701CC6B2681CC5B22B480078C7
:102A20008542F3DB032E02DB2748007801902B4818
:102A3000015D019881423CDB00202849085521486E
:102A400000681E49096888431E49086000201C4927
:102A500008552EE02148005D401E2049085528E019
:102A600000201749085517480068002802D1204661
:102A700000F054F815480078401EA04200D0FEBD7A
:102A80001948007811490978884200DAF7E70025EB
:102A900006E00B48405D002800D00126681CC5B246
:102AA0000A4800788542F4DB002E02D10020094953
:102AB000087000BFE3E7000020030020A40000200E
:102AC00029000020A0000020590000209C000020C8
:102AD00039000020AD00002021000020310000203E
:102AE0001003002041000020AC0000205A0000200C
:102AF0009600002097000020AE0000205B00002020
:102B0000B00000200120014908707047AE0000208D
:102B10000148808A80B270471836000870B50446B4
:102B20002046FFF757FB05461B49098848000A2144
:102B3000FDF71CFB06462046FFF7AEFB464306208A
:102B40006043164940184088864208DD022D21DB8B
:102B5000A81E134908550120124908701AE00E49B1
:102B60000988CA00501A0A21FDF700FB06462046D4
:102B7000FFF792FB4643062060430849401840880F
:102B8000864207DAFC2D05DCA81C05490855012002
:102B90000449087070BD0000AA0000202003002036
:102BA00049000020AE00002070B500200023002165
:102BB0000022FF24E40200BF0DE0012585402540EE
:102BC000002D06D01B4DA854551CEAB2082A00DB84
:102BD00003E0451CE8B22028EFDB00BF002122E023
:102BE000002017E0002311E036254D43124EAD19A9
:102BF0006D1C2D5C0F4EF65CB54205D136254D435C
:102C00000D4EAD1918352B545D1CEBB29342EBDB26
:102C1000451CE8B236254D43074EAD196D7C854203
:102C2000E0DC4D1CE9B2054D2D78A942D8DB044DFE
:102C30002A7070BD1900002060000020A80000204C
:102C40009C00002030B50120164908701648007B12
:102C5000164908701448006C40B215490870FFF717
:102C6000A3FF002508E00A20684312494018807934
:102C700011494855681CC5B2104800788542F2DBFE
:102C800000200F490880002407E00021362060431F
:102C90000C4A8018C185601CC4B202480078844286
:102CA000F3DB30BDA80000201836000859000020D2
:102CB0005A0000205C360008490000209C000020DB
:102CC0005C00002060000020F8B500260020009085
:102CD000FFF7DCFA002871D1FFF7CAFC0746002590
:102CE0000FE00120A8403840002808D05348415D3B
:102CF00001208840009908430090701CC6B2681CEF
:102D0000C5B24F4800788542EBDB022E0EDB012076
:102D10004C490870032E02DBFFF7F4FE06E0FFF7D4
:102D2000EBFB002802D00020464908704548007897
:102D300000280CD10098002805D043480088401C8A
:102D4000414908800AE000203F49088006E03F48EA
:102D50000088401C3D49088000200090002447E086
:102D6000362060433A494018808D002827D036200D
:102D700060434018818D36206043354A8018408D6D
:102D800081420BD13620604311464018C08D401C53
:102D900081B2362060438018C18516E0362060433A
:102DA0002B494018818D36206043294A801841857F
:102DB0000021362060438018C18506E036E00021FE
:102DC00036206043224A8018C185FFF7A1FE3621D4
:102DD00061431F4A8918C98D884207DCFFF792FEBC
:102DE0000021362060431A4A8018C185601CC4B295
:102DF000184800788442B3DBFFF78AFE124909883D
:102E0000884204DCFFF77EFE00200F4908800F484F
:102E10000088FF212D3188420DDDFFF773FE012070
:102E20000D49087000200949088004E00B49098C0D
:102E3000C8B2FFF767FB0098F8BD0000190000203A
:102E40009C000020AD0000205C0000205E000020FF
:102E500060000020A80000205B0000201836000859
:102E600010B500244948C068022108434749C8609A
:102E70000846806981B24648007806225043454A98
:102E8000115243480078401C4149087008460078B8
:102E900041490978884209DB00203D4908703F48D4
:102EA0000078802108433D49087000E0012438483B
:102EB0000078FFF7F1F93A490988484380B233496D
:102EC000C861022132480078FFF790F90007000935
:102ED0002E4909690F221206914308432B490861C4
:102EE00000212B480078FFF781F90007000C2749E3
:102EF000C9680F221203914308432449C860062180
:102F000023480078FFF772F9800720490969890092
:102F1000890808431D49086103211D480078FFF70F
:102F200065F90002194909697F2252029143084359
:102F300016490861052116480078FFF757F9800700
:102F400080081249096903221207914308430F4977
:102F5000086101210E480078FFF748F90B4909691B
:102F6000090A09020843094908610E480849097815
:102F7000415C0120884005490860012C05D10846C4
:102F8000C068012108430149C86010BD0022024009
:102F9000A9000020200300209C0000201800002031
:102FA000AA0000201900002070477047002904D0B3
:102FB000026880231A43026003E00268014B1A4052
:102FC000026070477FFF000010B5002A03D003693C
:102FD0000B43036104E00369CC43A4B223400361C3
:102FE00010BD10B5002A03D003690B43036104E050
:102FF0000369CC43A4B22340036110BD30B502463F
:1030000010680A4B18400B884C8823438C88234354
:10301000184310609068000A0002CB888C68640036
:10302000FE252C4023431843906030BDFC3FFFFF3A
:1030300010B50A46074B984200D100E000BF016876
:103040000324A4030B46A34319460B461343194616
:10305000016010BD6000024010B500F075F803215A
:10306000014800F00DF810BD2010024010B500F02E
:1030700009F80321014800F003F810BD8000024068
:103080004160704770B537E001211F48FFF7F8FF36
:103090001D4800F039F9C5B21C490878411C1B4A8B
:1030A00011701B490D5410460078642802DB002083
:1030B000114608701548027815491648FDF76AF858
:1030C000002411E01348015D0F4800F022F900BF11
:1030D00002210D4800F02DF80028F9D002210A48FD
:1030E000FFF7CEFF601CC4B2084800788442E9DBD9
:1030F00000200649087000BF0121034800F019F8BC
:103100000128C1D070BD00008000024014000020E2
:10311000B80000201C01002010B5002A03D003696C
:103120000B43036104E00369CC43A4B22340036171
:1031300010BD0246002053680B40002B01D0012037
:1031400000E00020704700007CB501213F48FFF7F8
:10315000F0FF012878D101213C48FFF791FF3B485F
:1031600000F0D2F8C5B23A490878411C384A1170CB
:1031700038490D5410460078642802DB00201146BF
:1031800008703348007801285DDBAA216846017089
:10319000552141702E480078401E2E49085CF138B8
:1031A000030000F030F908050D12181E23292E2FF8
:1031B0000121684681700021C1702821017122E03F
:1031C00010212548FDF70DFD1DE00121890222484F
:1031D000FDF707FD17E00121C9021F48FDF701FDBA
:1031E00011E080211D48FDF7FCFC0CE0FF210131BE
:1031F0001A48FDF7F6FC06E020211748FDF7F1FC20
:1032000001E000E07CBD00BF552168464171AA2164
:103210008171002411E06846015D0C4800F079F8E6
:1032200000BF02210948FFF784FF0028F9D00221DE
:103230000648FFF725FF601CC4B2072CEBD3002023
:103240000349087000BF00BF00BFDBE72010024049
:1032500014000020B80000200012014000100140BE
:1032600010B5002A03D003690B43036104E003692E
:10327000CC43A4B22340036110BD000070B50446E6
:103280000D462668F608F600A86806432660A8687A
:10329000002808D1206810218843206020686968D0
:1032A000084320600DE069682868FCF749FF06467E
:1032B0000448864204D9206810210843206036095A
:1032C000A66070BDFFFF000010B50A46064B98428D
:1032D00009D101680324A4030B46A34319460B46F6
:1032E00013431946016010BD20100240002904D08C
:1032F000026840231A43026003E00268014B1A404F
:1033000002607047BFFF00000146C868C005C00DDD
:103310007047CA05D20DC26070470000002904D072
:10332000026880231A43026003E00268014B1A40DE
:10333000026070477FFF000010B504461D4800780A
:10334000FF2830D001201C4908701C480078002854
:103350002ED1112C0FD1012109031948FDF763FC6F
:10336000012189021748FDF75EFC0121490214483A
:10337000FDF748FC10E0122C0ED1C32109011148C1
:10338000FDF740FCFF2181310D48FDF73BFC012199
:1033900049020B48FDF736FC6420FDF7BFFB012016
:1033A0000649087004E000200349087003490870CA
:1033B00010BD0000000000200100002008000020D7
:1033C00000100140001201407D20C00001E0411EBC
:1033D00088B20028FBD170472021020C01D01021B7
:1033E0001046020A01D010460839020901D01046E1
:1033F000091F820801D01046891E420801D0881E8C
:103400007047081A704730B47446641E2578641CEF
:10341000AB4204D3635D5B00E31830BC18471D4624
:10342000F8E70000002805DBC206D20E012191401A
:10343000014A11607047000000E100E010B500286B
:1034400019DB1A4A03231B02D21883089B00D258A7
:103450008307DC0EFF23A3409A438B071B0E8407D0
:10346000E40EA3401A43114B032424021B198408C1
:10347000A4001A5118E00E4A03071B0F083B9B08D3
:103480009B00D2588307DC0EFF23A3409A438B078F
:103490001B0E8407E40EA3401A43054B0407240FB8
:1034A000083CA408A4001A5110BD000000E100E08F
:1034B0001CED00E002E008C8121F08C1002AFAD182
:1034C00070477047002001E001C1121F002AFBD1A4
:1034D00070470000FDF7C1FB00214548FEF71EFACA
:1034E0003220FDF7A7FAFEF703FF80E0414800789D
:1034F0000300FFF788FF05042478797A7B00102108
:103500003D48FDF76EFB012189023B48FDF769FB51
:103510000121C9023848FDF764FB80213748FDF7D7
:1035200060FBFF2101313548FDF75BFB01210903F9
:103530003248FDF767FB01202E49087056E03048FD
:10354000C06B012108432E49C8632E4800788021B2
:103550000840002813D02B4800784006400E294927
:103560000870FFF7B1FB2849086008460068FDF7BE
:10357000BBFA26480078FFF7DFFEFFF76FF8FF2160
:103580002D3123480068FCF7DBFD002910D12148CC
:103590000068401C1F49086050211E480068FCF765
:1035A000CFFD002904D1FF2101311448FDF73BFB79
:1035B00017480068401C164908600121C9020F48DD
:1035C000FDF706FB002804D010210B48FDF709FB8E
:1035D00003E010210848FDF715FB012149020748C7
:1035E000FDF7FFFA02E001E000E000BF00BF7DE769
:1035F0008001024002000020001201400010014042
:1036000000030040180000200400002000000020FB
:103610000C0000201000002000000000000000004E
:1036200000000000050000000A000000B80B0000C8
:10363000C80000006400000002000000010000005B
:103640000000000004000000000000000100000075
:10365000FFFF0000FFFF00004000000004022804FC
:103660000803300505E7040228040803380506307E
:10367000040228040803320506150402280408037E
:10368000360505F204022804080340050676040204
:103690002804080338050640040228040803280506
:1036A00006500402280408032E0505FFCC36000846
:1036B00000000020B8000000B4340008843700087F
:1036C000B800002098060000C43400080000000084
:1036D00000000000000000000000000000000000EA
:1036E00000000000000000000000000000000000DA
:1036F00000000000000000000000000000000000CA
:1037000000000000000000000000000000000000B9
:1037100000000000000000000000000000000000A9
:10372000000000000000000000000000010B0C0D74
:103730000E0F100000000000000000000006400016
:103740001400640000000000000000000000000001
:1037500000000000010000000000000096000000D2
:1037600000000A0A20000000000000000000000025
:103770000000000000000000000000000000000049
:043780000000000045
:04000005080000C12E
:00000001FF
