:020000040800F2
:1000000068060020650100088B0100088D010008CA
:100010008F01000891010008930100080000000012
:100020000000000000000000000000009501000832
:10003000970100080000000099010008F113000872
:10004000A50C0008A90C0008AB0C0008A70C0008C0
:10005000810E000800000000590B0008BB150008C5
:10006000BD150008ED130008EF130008C30B0008CE
:10007000C50B0008C70B0008C90B000805140008D1
:1000800009140008191400081B1400081D140008A6
:100090001F140008B90C0008B50C00083915000839
:1000A0003B150008000000000000000000000000F8
:1000B000000000000D0B0008C10B00089D010008A6
:1000C00000F002F800F03EF80CA030C80838241800
:1000D0002D18A246671EAB4654465D46AC4201D180
:1000E00000F030F87E460F3E0FCCB6460126334274
:1000F00000D0FB1AA246AB4633431847E017000076
:1001000000180000103A02D378C878C1FAD8520714
:1001100001D330C830C101D504680C6070470000BD
:100120000023002400250026103A01D378C1FBD813
:10013000520700D330C100D50B6070471FB51FBDFB
:1001400010B510BD00F098FC1146FFF7F7FF01F065
:1001500071FA00F0B0FC03B4FFF7F2FF03BC00F04B
:10016000B7FC0000114812490160124812490160B1
:100170001248134901601348134901600F4813499D
:1001800001601348804713480047FEE7FEE7FEE79B
:10019000FEE7FEE7FEE7FEE7FEE7FEE7FEE700001C
:1001A0000D480E490E4A0F4B7047000010300040BA
:1001B00010005FA0DC03004001005FA000100240BF
:1001C000000080005C10024060005FA000000000A2
:1001D000F5130008C1000008680000206806002030
:1001E0006802002068020020002203098B422CD301
:1001F000030A8B4211D300239C464EE003460B4377
:100200003CD4002243088B4231D303098B421CD3D8
:10021000030A8B4201D394463FE0C3098B4201D3CA
:10022000CB01C01A524183098B4201D38B01C01A02
:10023000524143098B4201D34B01C01A5241030979
:100240008B4201D30B01C01A5241C3088B4201D328
:10025000CB00C01A524183088B4201D38B00C01AD5
:10026000524143088B4201D34B00C01A5241411AFC
:1002700000D201465241104670475DE0CA0F00D0DF
:100280004942031000D34042534000229C460309D8
:100290008B422DD3030A8B4212D3FC22890112BA5E
:1002A000030A8B420CD3890192118B4208D3890136
:1002B00092118B4204D389013AD0921100E089094E
:1002C000C3098B4201D3CB01C01A524183098B422F
:1002D00001D38B01C01A524143098B4201D34B0118
:1002E000C01A524103098B4201D30B01C01A52417B
:1002F000C3088B4201D3CB00C01A524183088B4202
:1003000001D38B00C01A5241D9D243088B4201D38A
:100310004B00C01A5241411A00D201466346524175
:100320005B10104601D34042002B00D54942704774
:1003300063465B1000D3404201B50020C046C04672
:1003400002BD704770477047F0B5F94D0C091E09A2
:100350002C402E402F468BB0A7437DD0B543FCD018
:10036000002E7AD0002CFCD00D465D40ED0F2543C9
:10037000AC1BFF25AD0464190894C502440DC902E5
:100380002143500DDC0204430120C0070143044314
:10039000D2020191200C110C00958C4601042346D9
:1003A0008B430A9161460904E24D8A430991010A8F
:1003B0007D4449198039097805464D4301266D1859
:1003C000F605751B6943C90C640B891C4C43641802
:1003D000B5012C1B250C2E04B4434C434D43210C7A
:1003E000691889090591009DE90701D00121C90714
:1003F00004912C4601996708CD072F434C08059DB1
:10040000E10B4D432D0C29466646754302950D467A
:1004100045432E46029D7D1BB44100950D465D432C
:1004200001942C0C2F040D465543AE462D0C3D4334
:10043000029503947546049C2D04641B049406D213
:10044000029C039D641C002675410395029401AC37
:1004500070CC009F7D1B01E03EE162E1B4410904E4
:100460000095079101940599A4086143090C0C4675
:100470004443650BE7040C4666467443A646640B8A
:100480003C43039502947446049DE4042C1B04949D
:1004900006D2029C039D641C0026754103950294BC
:1004A00001AC70CC009F7D1BB44101940C465C43B1
:1004B0000095650FE7000C465443A646640F3C4385
:1004C000039502947446049DE4002C1B049406D208
:1004D000029C039D641C002675410395029401ACA7
:1004E00070CC009F7D1BB441AE09AF06049DC900CE
:1004F000AD092F43049DA406AD060495079D344322
:1005000069180791059DE10B4D432D0C2946664660
:10051000754302950D4645432E46029D7D1BB44111
:1005200000950D465D4301942C0C2F040D46554358
:10053000AE462D0C3D43029503947546049C2D0454
:10054000641B049406D2029C039D641C0026754122
:100550000395029401AC70CC009F7D1BB4410194C3
:100560008C050694079C890A611800950791019CE7
:100570000599A4086143090C0D464543680BEF0437
:100580000D46644665436C0B3C43049FED047D1BA4
:10059000AC4602D20025641C6841009E019D371BB9
:1005A00085410846584301950C46460FC500544303
:1005B000600F28436546E4002C1B02D20025401C36
:1005C0006E41019D3F1AB5412846BD09800628436A
:1005D0008446A009BF064E020699A4067618074372
:1005E000079D002068410A99079019430020099B44
:1005F00000906046FF1913434041E20F64003A4304
:10060000A4460446D71A8C41A04203D90120009089
:1006100020463A46C70F941840416246D20F224303
:10062000644664000494009CBE466400D71AA44645
:10063000044602978C417746002F01D1A04204D98D
:100640006046401C8446029A2046C40FA646941871
:100650004041049A0546D20F224364466400D31AEF
:100660008D417146002901D1A84202D928461A4677
:10067000641C10430122002800D0164361020020B0
:10068000079B891904465C410223002C02DB4918B0
:1006900013466441089DCE0A2D145D194B0567056C
:1006A000E10A2C050D1908993E43C9076940002B42
:1006B00008D0934006D30022761C5141002B01D173
:1006C000760876001C4A002D43DB154241D0AA4330
:1006D0003FD030460BB0F0BD06180D464D41174CCB
:1006E0007642AC411AD395181C465C41134A6D42C0
:1006F000A24113D3012252054C00D4420AD15C001E
:10070000D4420BD04B4002D592021143E2E749009C
:100710004908DFE75940C90FC90718E00020084918
:10072000D8E7054801420DD10342F7D0F2E70000B7
:100730000000FF07A61400000000F07F0000E0FFAB
:100740000000F87F114859400143C0124140002089
:10075000C0E70123089A9B069A4205DC0322520750
:100760008918C90FC907B5E7052252078918074A32
:100770001143D2125140ADE770B515461C460246F2
:100780000B4628462146FFF7DFFD70BDFFFFFF7FC8
:100790000346CA02400D10B510430A1504D00124C7
:1007A000E4072043002A05DB0A4CA21A04D4D040F7
:1007B000FF2A00DD002010BD4A00002B01D00120DF
:1007C00000E00020101801225205D042F2D8C817CC
:1007D000C04310BD1E0400001F22030C02D10F22D3
:1007E000000402D0030E03D004E00020014670474D
:1007F0000002083A030F01D10001121F830F01D13B
:100800008000921E002801DB4000521E1205511884
:100810004205C012411810467047C10FC90700D0E9
:100820004042012292071143D6E701218907D3E70D
:10083000F0B58B4C0F09254689B0BD437BD01D090F
:100840002646AE43FAD00E465E402740F60F3E43A2
:10085000254071D024012142FBD0FF24AD19A4040E
:100860002D1B039501252D05DB02DB0AC9022B4355
:10087000C90A29431E010901040F130F0501214371
:100880001701880B820391432D098C46A90B1E4347
:100890008A039543B30B9A0396433F09BA0B94031B
:1008A000A74302962E467E430497B6464E19D719A3
:1008B0000C460196544305977E43371B7646BF1B73
:1008C0003601B646BE0B361900967646BC0437197B
:1008D000009C01D3641C00946400002F01D0012609
:1008E0003443029E049F754366467E430496760019
:1008F00034196E0034190094029C019E1C19664341
:10090000751BAE46069465464519059C05956C43D6
:10091000594375460891691A0191049E0146514355
:10092000A41B0491611A009C0791E10605D061099E
:100930000122114302E072E06EE06109089D002788
:100940002C0A2D066918049D7C412A0A2D06691877
:10095000019D6241AC0DAD026D185441079A910D95
:10096000920255196141029A644658435443069BCA
:10097000059A5A43121A131B9A0E9B015B187A416F
:10098000010B0005C3185141220A200644195A419F
:100990009A4200D2491C01204002814203D3152310
:1009A0000226F64302E014230326F6432020C51A4C
:1009B000A9401746AF40DA400A4320460399D84081
:1009C0000914731819055118039A3843D207514076
:1009D000AC4009D00122944006D30022401C514172
:1009E000002C01D1400840001E4A934212D301223C
:1009F00003989206904207DB0520400709181A4821
:100A00000143C012414004E0032040070818C10F11
:100A1000C907002009B0F0BD0020F107FAE705186A
:100A20000C464C4111486D42A04115D394181A460A
:100A30005A410E48644290410ED301204A004005BD
:100A4000824209D35A00824206D35940C90F084A4C
:100A5000C90700201143DDE700200649DAE700005E
:100A60000000FF07FE070000FFFFFF7F0000E0FF20
:100A70000000F07F0000F87F754600F025F8AE46D4
:100A8000050069465346C008C000854618B020B529
:100A9000FFF786FB60BC00274908B6460026C0C5A4
:100AA000C0C5C0C5C0C5C0C5C0C5C0C5C0C5403D26
:100AB00049008D46704710B50446C046C0462046E2
:100AC000FFF749FB10BD00000048704704000020FC
:100AD00001491820ABBEFEE72600020070474160C6
:100AE00070470122D2030029016801D0114300E0C0
:100AF000914301607047012212030029016801D06F
:100B0000114300E0914301607047000010B50121DE
:100B10000148FFF7E4FF10BD10210240002A0268DF
:100B200001D00A4300E08A430260704710B50268B2
:100B3000054B8C681A400B6823438C89144323436C
:100B400003604968C16010BDE0F7C8FF0268520940
:100B500052010A43026070477047000070B5154E9D
:100B6000154D164C1AE00121304600F05BFC208840
:100B70004000285A00F0FAF82088401C80B22080FB
:100B80004000295A61807D20414388B200F01DF861
:100B90002088401C20800A2000F017F820884000A0
:100BA000285AFF28DFD1002020800146304600F07F
:100BB00039FC70BD8001024078160008000000205A
:100BC0007047704770477047704770B500247D26A6
:100BD0000546F60003E0304600F004F8641CAC4221
:100BE000F9DB70BD70B5074C05460121204600F0C9
:100BF00019FC6068A842FCD300212046616000F027
:100C000011FC70BD40010240F0B54B880A88022BF0
:100C100004D0012B06D0002B0BD011E0036A134344
:100C200003620DE0036A93430362026C0B881A436C
:100C300005E0036A93430362026C0B889A430264E3
:100C4000036E00220E88032701249440264206D01A
:100C500054003D46A540AB438D88A5402B43521C14
:100C6000102AF1D30366F0BD08B50090002007E01C
:100C7000CA0701D0009A1070009A4908521C0092CD
:100C80000029F5D108BD08B50090012007E0CA078A
:100C900001D0009A1070009A4908521C0092002955
:100CA000F5D108BD704770477047704710B500F028
:100CB000F5F910BD7047000010B50321014800F0A0
:100CC00003F810BD000202408160704700290168EE
:100CD00002D08022114301E0014A114001607047B7
:100CE0007FFF00000029416902D08022114301E00A
:100CF000014A1140416170477FFF00004269332380
:100D00009A43426142698B881A430B8849880B4396
:100D10001A4342617047002A026801D00A4302E088
:100D2000C94389B20A400260704710B502686F2358
:100D30009A430B884C8823438C88144323430360D5
:100D40008A684260CA68C260C988816110BD30B5D6
:100D500001240023214202D09D002D182A635B1C30
:100D60006400DBB2082BF5D330BD000010B5FFF7EF
:100D70005CFD084A084BFFF75BFD02460B4600206E
:100D80000649FFF7E1FAFFF703FD81B2044800F0DE
:100D9000BCFB10BDCDCCCCCCCCCCFC3F006AF84029
:100DA0008001024004498A010028086801D01043EC
:100DB00000E09043086070470000024004490A6860
:100DC00007231B059A430A600A6802430A607047BA
:100DD00000000240044A0029116801D0014300E0EC
:100DE0008143116070470000000002400122054964
:100DF000D2050028086801D0104300E09043086045
:100E0000704700000020024004490A6807231B05C0
:100E10009A430A600A6802430A6070470020024051
:100E200004490A6807231B059A430A600A680243BB
:100E30000A6070470030004000B50246FF2000F015
:100E4000DDF8054940234869002A01D0184300E035
:100E50009843486100BD00000030004000B50246E4
:100E6000FF2000F0CBF8054920234869002A01D073
:100E7000184300E09843486100BD00000030004086
:100E80007047000000B50246FF2000F0B7F80549A2
:100E9000CB134869002A01D0184300E09843486109
:100EA00000BD00000030004000B50246FF2000F009
:100EB000A5F8054902234869002A01D0184300E03B
:100EC0009843486100BD00000030004000B5024674
:100ED000FF2000F093F80549002A486902D001225A
:100EE000104301E040084000486100BD0030004070
:100EF000F8B50546FF2000F081F8214803260127B8
:100F000036033F031F4C854229D00121084601E0EA
:100F10004900401CE2699207920F521C8242F7D2AC
:100F2000E0690004000E4000FFF75EF9402805D399
:100F30006069B0436061606938436061FF2000F020
:100F40005DF860690721C9018843284360616069D1
:100F5000802108436061606900060DD40EE060697D
:100F6000B04360616069384360616169802081439A
:100F700061616069000601D40020F8BD0120F8BD60
:100F80007FFF00000030004010B50C4C04230246E7
:100F900001280ED0FF2000F031F82069984320612D
:100FA000074988696023984388618869104388618C
:100FB00010BD20691843206110BD000000E000E072
:100FC0000030004005490028086902D00322104380
:100FD00001E08008800008617047000000E000E048
:100FE0000449401E884203D80349486100208861B3
:100FF00070470000FFFFFF0000E000E0402803D33F
:101000000249C8600020704701207047003000404E
:101010001FB5002069468881032149040091012100
:101020004903104C0191029069462046FFF77EFD6E
:101030001F212046FFF78AFD0022A1152046FFF759
:101040006DFD00212046FFF756FD03211D2000F015
:10105000CFFA1D2000F0C0FA01212046FFF741FD24
:101060001FBD0000102102407FB51021684601809D
:10107000022444800025084E858069463046FFF7EB
:10108000C3FD2021684601814481858102A9304643
:10109000FFF7BAFD7FBD00000012014010B5FFF759
:1010A000E3FF00F00FF800F07BF800F0A1F800F08B
:1010B0004DF900F0B1F800F0F9F800F013F8FFF77F
:1010C000A7FF10BD05480622016A114301620448CA
:1010D0000922016A120311430162704700100140A6
:1010E0000011014070B586B0FF20FFF787FF012196
:1010F0000D022846FFF76EFE284E002201213046E1
:10110000FFF725FE632202213046FFF720FE63220F
:1011100004213046FFF71BFE632208213046FFF70B
:1011200016FE002210213046FFF711FE002220217A
:101130003046FFF70CFE002240213046FFF707FE45
:10114000002280213046FFF702FE0024684684809A
:10115000032101806321C1800E2002900394684620
:10116000448069463046FFF7E0FD20216846018251
:101170004482848204A93046FFF7C0FD0021304636
:10118000FFF7B0FD002229463046FFF7C4FD0121DC
:101190003046FFF79BFD06B070BD00000002024024
:1011A00010B5FF20FFF72AFF0020FFF757FE0020B1
:1011B000FFF78CFE0120FFF777FE0120FFF73CFED2
:1011C0000120FFF75FFE0948FFF792FE0020FFF7BE
:1011D00027FE0020FFF7F2FD0120FFF7E3FD0020CE
:1011E000FFF712FE0120FFF701FE10BD7FFF000098
:1011F00010B5FF20FFF702FF0020FFF7C5FE7D209E
:10120000C001FFF7EDFE0021481E00F0F1F90120BA
:10121000FFF7D8FE10BD000030B585B001210220D7
:10122000FFF7D8FD002468460521448009020180AB
:1012300083218480090201811B4DC48069462846B0
:1012400000F066F968468481C48103A9284600F04D
:101250000BF90021284600F0FBF86846048244821E
:1012600004A9284600F01EF932220221284600F087
:1012700035F900220121284600F00AF90122202137
:10128000284600F0DBF801224021284600F0D6F87D
:1012900001221021284600F0D1F80121284600F053
:1012A000C1F805B030BD00004001024030B585B046
:1012B00001210420FFF78EFD0024684605214480AB
:1012C0000902018084801F4901811F4DC480694645
:1012D000284600F01DF968468481C48103A9284688
:1012E00000F0C2F80021284600F0B2F8022168465A
:1012F0000182448204A9284600F0D4F8002128463F
:1013000000F0FCF832220221284600F0E7F8002223
:101310000121284600F0BCF800222021284600F0D8
:101320008DF800224021284600F088F80022102184
:10133000284600F083F80121284600F073F805B034
:1013400030BD0000237F00008001024070B588B0EE
:101350002021684681810125C5810024214E048217
:1013600003A93046FFF750FC402168468182C582C0
:10137000048305A93046FFF747FC01211020FFF741
:1013800029FD0221684601800521090241808480EF
:10139000502002906846C480134C6946204600F0F5
:1013A000EDF8E903204600F001F90122114620463C
:1013B00000F0DAF800228021204600F0CBF800226D
:1013C0004021204600F0C6F80321172000F010F954
:1013D000172000F001F90121204600F0AFF808B015
:1013E00070BD00000010014060000240704770476F
:1013F0007047000001200249C00688607047000065
:1014000000ED00E07047000010B50721014800F032
:1014100007F810BD400102407047704770477047A1
:10142000C16070470029016802D08022114301E0A9
:10143000014A1140016070477FFF0000002A826965
:1014400001D00A4302E0C94389B20A408261704771
:101450000029016802D00122114301E0014A114034
:1014600001607047FEFF000010B54B8802683C2405
:1014700092B2A243054CA04204D1082B00D01A43DB
:10148000026010BD09880B43F9E70000000102402B
:10149000002A826901D00A4302E0C94389B20A40A6
:1014A0008261704710B54A880B8801680F24E402F6
:1014B000A143094CA04203D1022B01D0022A05D13D
:1014C000A04207D0012B05D0012A03D05B03D20232
:1014D00013431943016010BD00010240064B9842BE
:1014E00001D0022905D0984202D1012900D14261E0
:1014F000704702617047000000010240026801234A
:10150000DB049A430A430260704781607047000021
:1015100030B50368074A8C8813400A88CD88224377
:101520004C886D012C4322431A4302600989816073
:10153000416030BD9DF8FFFF70477047002901688A
:1015400002D08022114301E0014A1140016070473E
:101550007FFF0000002A026901D00A4302E0C9436C
:1015600089B20A4002617047002A026901D00A4329
:1015700002E0C94389B20A400261704710B50368AE
:10158000094A4C8813400A8822438C881C43224312
:1015900002608268CB88097A120A12024906090E93
:1015A00011430B43836010BDFC3FFFFF0268032320
:1015B0009B039A430A43026070477047704730B4F8
:1015C0007446641E2578641CAB4200D21D46635DE0
:1015D0005B00E31830BC1847002805DBC106C90EC4
:1015E00001208840014908607047000000E100E0E8
:1015F0008307FF22DB0E9A408907090E99400028D5
:1016000008DB830809489B001818036893430B43C1
:10161000036070470007000F0838830804489B00E8
:101620001818C36993430B43C361704700E400E09B
:1016300000ED00E0FFF73AFB7D260224F6000D4D99
:1016400077002300FFF7BBFF030303040300F8E761
:101650003046FFF7BAFA20212846FFF705FBFFF7CF
:101660007DFA3846FFF7B1FA20212846FFF70BFB39
:10167000E7E700000012014050C3040050C304001B
:1016800050C30400B9010200EF0102000D02060080
:10169000EF0102000D02040095020400EF010C00AE
:1016A0004A0102004A010200B90106008901020054
:1016B000B90104000D02040089010C004A01040074
:1016C0005E0106004A0102005E0104000D020400F2
:1016D0004A01080050C302000D0202000D02020080
:1016E0000D020200EF0106005E0102005E0104002F
:1016F000EF010400EF01080050C30400B90102002B
:10170000EF0102000D020600EF0102000D020400CD
:1017100095020400EF010C004A0102004A01020098
:10172000B901060089010200B90104000D0204009C
:1017300089010C00260102004A0102005E0104003A
:101740000D020200EF0104000D0206004D0202002E
:101750004D020200950202000D020A000D02020075
:10176000EF010200B9010200B9010200EF0104001B
:1017700089010400B9010C000D0202004D020200B3
:10178000950206004D0202009502040012030400B7
:101790004D020C0089010200890102000D020600C1
:1017A000EF0102000D0204009502040095021000F2
:1017B000B9010200EF0102000D020400EF01040074
:1017C0004D0202004D0202000D02060089010A00CE
:1017D000BC02040095020400950204000D020400FE
:1017E00095020C0095020400720308001203040025
:1017F00012030400950202004D0202000D020800CF
:1018000050C302000D0202004D0204000D0202004E
:101810004D0202004D0204001203040095020C0068
:1018200095020400720308001203080095020200EA
:101830004D0202000D02080050C302000D0202001A
:101840004D0204000D0202004D020600EF010400EB
:10185000B9010C0050C30400FF0080807F7E7D7CB6
:101860007B7A7978777676757473727171706F6E32
:101870006E6D6C6C6B6A6A696868676666656464DD
:10188000636362616160605F5F5E5E5D5D5C5C5B67
:101890005B5A5A59595858575756565555555454D6
:1018A000535352525251515050504F4F4F4E4E4D34
:1018B0004D4D4C4C4C4B4B4B4A4A4A494949484880
:1018C00048474747474646464545454444444443C0
:1018D000434343424242424141410000FC18000858
:1018E00000000020040000000401000800190008A6
:1018F0000400002064060000200100080000000031
:04000005080000C12E
:00000001FF
