:020000040800F2
:10000000F0040020D9000008FF00000801010008EA
:1000100003010008050100080701000800000000B6
:1000200000000000000000000000000009010008BE
:100030000B010008000000000D010008DD1200089F
:10004000AD090008B1090008B3090008AF090008AC
:10005000B50B00080000000015060008C91C0008C8
:10006000CB1C0008D9120008DB1200082F0600087C
:10007000310600083306000835060008F1120008B2
:10008000F5120008051300080713000809130008FB
:100090000B130008C1090008BD090008191C00085D
:1000A0001B1C000800000000000000000000000011
:1000B00000000000B50500082D060008151700080F
:1000C0000448854600F032FA00480047091E00083F
:1000D000C046C046F00400200E480F4901600F489A
:1000E0000F4901600F481049016010481049016034
:1000F0000C48104901601048804710480047FEE74F
:10010000FEE7FEE7FEE7FEE7FEE7FEE7FEE7FEE7C7
:10011000FEE700001030004010005FA0DC0300404C
:1001200001005FA000100240000080005C1002404F
:1001300060005FA000000000E1120008C10000089C
:1001400030B50B46014600202022012409E00D466F
:10015000D5409D4205D31D469540491B25469540F7
:1001600040191546521E002DF1DC30BD70B500243B
:100170002546002801DA01244042002901DA012540
:100180004942FFF7DDFFAC4200D04042002C00D0D6
:10019000494270BDF0B51FB488B00B99099800248E
:1001A00048400999C00F490049080991C0070B99B7
:1001B0000090490049080B9109990898A646084300
:1001C0001CD00B990A98084318D0099801244000C4
:1001D000420D4800410D099824050003000B2043FF
:1001E00009900B980003000B20430B9050181C49FA
:1001F0004018002201901446104605E000200146F8
:100200000DB0F0BD032801DA034600E003239C464D
:10021000C11A0AAE0AE05F0008ADED5B4F00F75B64
:100220007D430027AA187C41491C5B1E6145F2DD15
:10023000410004AB5A522104120C0A43240C401C06
:100240000828DFDB01980290009970460191009028
:10025000059B049A0799069800F015F9D0E700006D
:100260000DFCFFFFF0B50C465C4085B0E40FE407E1
:1002700003944C000026640859009446490802463D
:100280000296224321D062460A431ED06200570DD7
:100290004A000E032303550D012402462C49240570
:1002A000781B1B0B360B40182343264361460090F6
:1002B0001C46501AB44103D30098401C009002E041
:1002C000921800985B41002803DA0020014605B02F
:1002D000F0BD0020012109050746864611E064466D
:1002E0001D46141BB54106D36546521BB3417446E7
:1002F00007430C43A646CD074008490828439218F7
:100300005B4105460D43EAD11046184313D06046C1
:10031000194650407140084306D06046101AB34158
:1003200006D20122002306E000220123DB0702E0BF
:100330000122D2435310009874460105381C6141D4
:10034000029C039D0019694100F090F8BFE700008E
:10035000FD0300000EB505490291002100910A46F7
:100360000B46019100F08FF803B000BD330400008C
:10037000CB0FDB07490010B5490802460A4307D0F6
:100380000A0D07240903E401090B121B002A01DCF2
:10039000002010BDC900440F0C43C100E018D20575
:1003A000801800F022F810BD10B5202A04DB0146A9
:1003B000203A9140002010BD914020239C1A034612
:1003C000E3401943904010BD10B5202A04DB0846D5
:1003D000203AD040002110BD0B46D340D04020240D
:1003E000A21A91400843194610BD002904DA401CA6
:1003F000490001D140084000704770B40024050C4A
:1004000005D11024000402D1002921D01124050EA9
:1004100001D100020834050F01D10001241D850F10
:1004200001D18000A41C002801DB4000641C0029CD
:1004300008D020252E1B0D46F540A14000D00121FB
:100440002943084301061B1B000ADB1D02D50020BF
:1004500070BC7047DB05181880180029F8DA401CBA
:100460004900F5D170BC40084000704710B5002B22
:1004700008DA0024401C614192185B411A4301D103
:100480004008400010BDF0B51FB482B005460C0016
:1004900003D0084601F022FC02E001F01FFC2030EE
:1004A0000246009021462846FFF77EFF049B059AEE
:1004B00004460F4618431143084314D0184610430E
:1004C0001BD0009840210A1A18460599FFF77CFFB7
:1004D00005460E46009A05990498FFF765FF084304
:1004E00005D0012004E02046394607B0F0BD0020C9
:1004F000C11705430E432C43374300990E986305FB
:10050000401A7905E40A00220C43FD0A0A3002D59C
:1005100000200146E9E70105101969410C9C0D9D79
:1005200000196941FFF7A2FFDFE70000064C012533
:10053000064E05E0E36807CC2B430C3C984710348B
:10054000B442F7D3FFF7C0FD9C1F0008BC1F000892
:1005500041607047002905D002680123DB031A437C
:10056000026004E002680123DB039A4302607047E3
:10057000002905D0026801231B031A43026004E02E
:10058000026801231B039A43026070470146086812
:10059000C006C00E70470146886880B270470246A8
:1005A000002053680B40002B01D0012000E0002008
:1005B0007047000010B501210148FFF7C9FF10BDC9
:1005C00010210240002A03D003680B43036002E0BD
:1005D00003688B430360704710B50268054B1A40EF
:1005E0008C680B6823438C8923431A4302604B6851
:1005F000C36010BDE0F7C8FF0A4601684909490118
:100600000B4613431946016070470168802211436D
:10061000016070477047000010B504462246022171
:10062000014800F003FF10BD800102407047704791
:1006300070477047704770B54D88022D04D1056A28
:100640000E883543056216E04D88012D08D1056AF4
:100650000E88B5430562056C0E88354305640AE0D3
:100660004D88002D07D1056A0E88B5430562056CDB
:100670000E88B5430564036E002210E00124944007
:100680000D882540002D09D056000325B5401E4693
:10069000AE4333468D885600B5402B43521C102A7A
:1006A000ECD3036670BD08B500900AE0CA07D20F0C
:1006B000002A02D00022009B1A704910009A521C96
:1006C00000920029F2D108BD0146132292060A4386
:1006D000084B5A601A46D068932302469A43104644
:1006E00020221043034AD060D26802231A43014BF0
:1006F000DA607047C00300400120C0070149C860AC
:1007000070470000C0030040F0B593B000240025FE
:1007100000263C484268016880681192109112904E
:10072000384A0C321168506892680C920A910B900A
:1007300035A103C906910590002700200290019081
:1007400000F008F9FF20FFF7BFFF012000F01CF9BF
:100750002F49304800F0A2F82F492E48001D00F024
:100760007BF899212B48801D00F05AF8032210A92C
:100770002848143000F09BF805220AA925482830A3
:1007800000F073F8052205A922483C3000F051F82A
:10079000FFF7B2FF1F4800F0C8F804461D48001DCF
:1007A00000F0AEF805461B48801D00F099F806469B
:1007B00003220DA91748143000F0BAF807460522A5
:1007C00007A91448283000F09EF80290052203A9DA
:1007D00010483C3000F087F801900D4884420FD15A
:1007E0000D4885420CD1992E0AD1032F08D10298C9
:1007F000052805D10198052802D101200749087074
:1008000013B0F0BDF01E000899887766550000000F
:100810007856341200FE0108666600000C000020C5
:10082000024611701078884201D1012070470020E3
:10083000FCE730B50346002000BF0C5C1C700C5C6C
:100840001D78AC4200D005E05B1C441CE4B220469D
:100850009442F2DB00BF30BD02461180108888420E
:1008600001D1012070470020FCE730B5034600208D
:10087000DC07E40F002C10D100BF44000C5B1C808F
:1008800044000C5B1D88AC4200D005E09B1C441C5E
:10089000E4B220469442F0DB00BF30BD0246116056
:1008A0001068884201D1012070470020FCE730B574
:1008B000034600209C07A40F002C10D100BF840029
:1008C0000C591C6084000C591D68AC4200D005E036
:1008D0001B1D441CE4B220469442F0DB00BF30BD37
:1008E00001460878704710B50346002000BF1C7809
:1008F0000C545B1C441CE4B220469442F7DB10BD50
:1009000001460888704730B503460020DC07E40F35
:10091000002C09D100BF1C8845004C539B1C441C73
:10092000E4B220469442F6DB30BD014608687047C9
:1009300030B5034600209C07A40F002C09D100BF4E
:100940001C6885004C511B1D441CE4B22046944297
:10095000F6DB30BD10B5FF2000F028FA012000F0D2
:10096000F9F8064806490860064808600846006825
:10097000012800D110BD0020FCE700007856341299
:10098000C0030040FA055FA0002806D00649C968E8
:1009900010221143044AD16005E00349C9681022BE
:1009A0009143014AD1607047C003004070477047CF
:1009B0007047704710B500F0DAFA10BD70470000BC
:1009C00010B50321014800F003F810BD00020240F9
:1009D00081607047002904D0026880231A430260B6
:1009E00003E00268014B1A40026070477FFF00007D
:1009F000002904D0426980231A43426103E042691E
:100A0000014B1A40426170477FFF00004269332367
:100A10009A4342618A880B881A434B881A43436978
:100A20001A434261704710B5002A03D003680B4394
:100A3000036004E00368CC43A4B22340036010BD0C
:100A400010B502686F241346A3431A460B884C88DE
:100A500023438C8823431A4302608B684360CB682E
:100A6000C360CB88836110BD70B5034601240020AC
:100A70000AE00D462540002D03D085001E46303685
:100A800072516400451CE8B20828F2DB70BD00001A
:100A9000002807D0074909680122D2051143054AF9
:100AA000116006E0034909680122D2059143014A19
:100AB00011607047000002400549096807221205CD
:100AC0009143034A11601146096801431160704760
:100AD00000000240002905D0054A12680243044B79
:100AE0001A6004E0024A12688243014B1A607047A0
:100AF00000000240002807D0074909680122D205FA
:100B00001143054A116006E0034909680122D20534
:100B10009143014A1160704700200240054909686D
:100B2000072212059143034A1160114609680143E7
:100B3000116070470020024005490968072212052C
:100B40009143034A116011460968014311607047DF
:100B50000030004000B50246FF2000F027F9002ACF
:100B600006D007484069402108430549486105E02F
:100B700003484069402188430149486100BD0000A5
:100B80000030004000B50246FF2000F00FF9002AB7
:100B900006D007484069202108430549486105E01F
:100BA00003484069202188430149486100BD000095
:100BB000003000407047000000B50246FF2000F002
:100BC000F5F8002A07D0084840690121C903084305
:100BD0000549486106E0044840690121C90388438A
:100BE0000149486100BD00000030004000B50246E8
:100BF000FF2000F0DBF8002A06D0074840690221F8
:100C000008430549486105E00348406902218843DB
:100C10000149486100BD00000030004000B50246B7
:100C2000FF2000F0C3F8002A06D0074840690121E0
:100C300008430549486105E0034840694008400011
:100C40000149486100BD00000030004070B5044615
:100C5000FF2000F0ABF83148844242D00126012049
:100C600001E07600401C2E49C9698907890F491C9B
:100C70008142F6D22A49C969FF2212021140090AAB
:100C800048003146FFF75CFA40280CD324484069FD
:100C900003210903884322494861084640698914B1
:100CA00008431F494861FF2000F080F81C4845694F
:100CB0000721C901284688430546284620430546A2
:100CC0001748456140698021084315494861084635
:100CD000406980210840002801D0002070BD01201B
:100CE000FCE70F4840690321090388430C49486128
:100CF0000846406989140843094948610846406923
:100D0000802188430649486108464069802108409F
:100D1000002800D1E2E70120E0E700007FFF0000AB
:100D20000030004000B50246012A06D10D48006996
:100D3000042108430B49086112E0FF2000F036F857
:100D4000084800690421884306490861064880690B
:100D5000602188430449886108468069104388619E
:100D600000BD000000E000E000300040002806D098
:100D70000649096903221143044A116105E0034948
:100D8000096989088900014A1161704700E000E0A3
:100D9000411E044A914203D8034A516100219161E6
:100DA00070470000FFFFFF0000E000E0014640291F
:100DB00003DB0348C160002070470120FCE700000E
:100DC000003000401FB500206946888103204004A0
:100DD0000090012040030190002002900E48FFF790
:100DE000FBFB1F210C48FFF707FC0022FF2101310C
:100DF0000948FFF7E7FB00210748FFF7B9FB03218C
:100E00001D2000F09DFF1D2000F08EFF01210248F3
:100E1000FFF7A0FB1FBD00001021024000B59DB0F0
:100E2000802110A881850221C185002101861BA98E
:100E30004B48FFF700FCFF21013110A881840221FB
:100E4000C1840021018519A94548FFF7F4FB102151
:100E500010A881830221C1830021018417A9414880
:100E6000FFF7E9FB202110A881820221C182002125
:100E7000018315A93B48FFF7DEFB0121890210A879
:100E800081810221C1810021018213A93548FFF728
:100E9000D2FB0121C90210A881800221C18000215A
:100EA000018111A92F48FFF7C6FB80216846818781
:100EB0000221C187002110A801800FA92A48FFF74D
:100EC000BAFBFF210131684681860221C1860021DB
:100ED00001870DA92448FFF7AEFB022168468185F2
:100EE000C185002101860BA91D48FFF7A4FB042141
:100EF000684681840221C1840021018509A918481E
:100F0000FFF799FB0821684681830221C1830021F4
:100F1000018407A91248FFF78EFB102168468182E1
:100F20000221C1820021018305A90D48FFF783FB3F
:100F30002021684681810221C1810021018203A90B
:100F40000748FFF778FB4021684681800221C18075
:100F50000021018101A90248FFF76DFB1DB000BD12
:100F6000001101400012014000100140704710B50F
:100F7000FFF754FF00F012F800F082F800F0A8F834
:100F800000F058F900F0B8F800F002F900F018F895
:100F9000FFF718FFFFF7EAFF10BD00000648006AE0
:100FA00006210843044908620448006A092109032C
:100FB00008430249086270470010014000110140D7
:100FC00000B587B0FF20FFF7F1FE01210802FFF70F
:100FD00081FD002201212948FFF746FD63220221FD
:100FE0002648FFF741FD632204212448FFF73CFD1A
:100FF000632208212148FFF737FD002210211F48F6
:10100000FFF732FD002220211C48FFF72DFD0022B2
:1010100040211A48FFF728FD002280211748FFF7DA
:1010200023FD0021684601820321818163214182E1
:101030000E2005900020069000216846C18103A97A
:101040000E48FFF7FDFC2021684681800021C18009
:10105000018101A90948FFF7D9FC00210748FFF7E2
:10106000C7FC0022FF2101310448FFF7DCFC01210D
:101070000248FFF7AFFC07B000BD000000020240CD
:1010800010B5FF20FFF792FE0020FFF77BFD002048
:10109000FFF7C4FD0120FFF7A9FD0120FFF75AFD6E
:1010A0000120FFF789FD0948FFF7D0FD0020FFF779
:1010B00043FD0020FFF700FD0120FFF7E9FC0020C1
:1010C000FFF72CFD0120FFF715FD10BD7FFF00008D
:1010D00010B5FF20FFF76AFE0020FFF723FE7D20FA
:1010E000C001FFF755FE0021481E00F029FE012037
:1010F000FFF73CFE10BD000000B585B001210220C5
:10110000FFF7E8FC002168464181052109020181C1
:10111000002181818321090201820021C18102A96C
:101120001A4800F0A7F9002168468180C18001A912
:10113000164800F017F90021144800F005F90021C5
:101140006846018041806946104800F03DF932222E
:1011500002210E4800F06AF9002201210B4800F03C
:1011600025F901222021094800F0E0F80122402160
:10117000064800F0DBF801221021044800F0D6F800
:101180000121024800F0C4F805B000BD4001024052
:1011900000B585B001210420FFF79CFC00216846C2
:1011A0004181052109020181002181811F490182BC
:1011B0000021C18102A91E4800F05CF900216846A7
:1011C0008180C18001A91A4800F0CCF8002118489C
:1011D00000F0BAF80221684601800021418069468A
:1011E000134800F0F1F80021114800F035F93222DF
:1011F00002210F4800F01AF9002201210C4800F0EA
:10120000D5F8002220210A4800F090F80022402161
:10121000074800F08BF800221021054800F086F8FE
:101220000121034800F074F805B000BD237F0000E1
:101230008001024000B587B02021684681820121EB
:10124000C1820021018305A92148FFF7F4F940215B
:10125000684681810121C1810021018203A91C48C6
:10126000FFF7E9F901211020FFF734FC022168465D
:1012700001800521090241800021818050200290D7
:101280006846C1806946134800F0F0FC0121C9039B
:10129000104800F005FD012211460E4800F0D9FC6F
:1012A000002280210B4800F0C7FC002240210948A1
:1012B00000F0C2FC0321172000F042FD172000F0CF
:1012C00033FD0121034800F0A9FC07B000BD000078
:1012D00000100140600002407047704770470000F6
:1012E0000120C006014988607047000000ED00E061
:1012F0007047000010B50721014800F007F810BD45
:10130000400102407047704770477047C1607047A6
:10131000002904D0026880231A43026003E00268B7
:10132000014B1A40026070477FFF000010B5002A91
:1013300003D083690B43836104E08369CC43A4B287
:101340002340836110BD0000002904D002680123FE
:101350001A43026003E00268014B1A4002607047C2
:10136000FEFF000010B54B88302B00D100BF4B882A
:10137000082B02D00B88042B00D100BF03689AB25F
:101380003C241346A3431A46074B984205D14B8889
:10139000082B06D04B881A4303E04B880C88234364
:1013A0001A43026010BD00000001024010B5002A7F
:1013B00003D083690B43836104E08369CC43A4B207
:1013C0002340836110BD000010B54B88022B02D072
:1013D0000B88022B00D100BF4B88012B02D00B8859
:1013E000012B00D100BF02680F24E4021346A3437F
:1013F0001A460D4B984205D10B88022B02D04B8820
:10140000022B08D1084B98420BD00B88012B08D037
:101410004B88012B05D00B885B034C88E4022343E7
:101420001A43026010BD000000010240022900D1F1
:1014300000BF012900D100BF064B984203D002290A
:1014400001D1026105E0034B984202D1012900D18C
:10145000426170470001024010B50A46016801244C
:10146000E4040B46A34319460B4613431946016097
:1014700010BD000010B50268074B1A400B888C881D
:1014800023434C882343CC88640123431A430260DE
:101490000B898360436010BD9DF8FFFF70B51B484A
:1014A000057800BF00F038F800240DE00620604306
:1014B0001749095A06206043154A80184180204682
:1014C00000F030FA601CC4B2124800788442EDDBB0
:1014D0002846691ECDB20028E4D100F0A7F800F03C
:1014E00009F9054600BF00F017F8002404E0204683
:1014F00000F03CF8601CC4B2064800788442F6DB79
:101500002846691ECDB20028EDD170BD8E000020A6
:10151000BC0000209000002000B500221048007898
:101520004006400E0E4908700E48C068012108436D
:101530000C49C8600CE000F0C9FB0B48C06B0121EE
:1015400008430949C863501CC2B2642A00DB05E0A5
:1015500003480078802108400028ECD000BF00BD7F
:101560000E000020002202400003004070B5044637
:10157000062060432C49095A062060432A4A8018F5
:1015800080880D1A204600F0A3F80646B54202DC1A
:101590007042854209DA062060432349095A062031
:1015A0006043214A8018818033E07010A84203DB39
:1015B00070104042A84216DD062060431A494018C8
:1015C000818806206043184A801880884010091AD4
:1015D00006206043105A4010081881B2062060436C
:1015E0008018818015E0062060430F4940188188EB
:1015F000062060430C4A80188088C010091A062013
:101600006043105AC010081881B206206043801849
:101610008180062060430449401881880620604389
:10162000014A115270BD0000BC00002000200AE0F9
:1016300006214143064A525A06214143044BC91828
:101640008A80411CC8B2034909788842F0DB7047A0
:10165000BC0000209000002001460148405C70471B
:101660003F00002010B502460C46230000F04DFB61
:1016700007050A10161A1E242A000A205043124990
:10168000085C10BD0A2050430F4940188078F8E7E5
:101690000A2050430C494018C078F2E71046FFF783
:1016A000DBFFEEE70948008DC0B2EAE70A205043AD
:1016B000054940184078E4E70A20504302494018A1
:1016C0004079DEE70020DCE74C1F0008081F000817
:1016D00001460A204843064A8018007A02020A207E
:1016E0004843034BC018407A101880B2704700007E
:1016F0004C1F00080148007C70470000081F0008CC
:1017000001460A204843024A8018007970470000C9
:101710004C1F000810B500F0DBF910BD10B501201A
:10172000FFF7E8F95348C06801210904884351498B
:10173000C86000205049087050490870504908702E
:1017400000F0BCF800F082F94A48C06880210843E4
:101750004849C86000210846FFF784FF441C214621
:101760007D204001FEF702FD464908800020FFF77A
:10177000C7FF44490988484380B23E49C8610221F5
:101780000020FFF76FFF000700093A4909690F229F
:101790001206914308433749086100210846FFF7C4
:1017A00061FF0007000C3349C9680F2212039143FF
:1017B00008433049C86006210020FFF753FF800727
:1017C0002C4909698900890808432A4908610321CD
:1017D0000020FFF747FF0002264909697F225202D5
:1017E000914308432349086105210020FFF73AFF90
:1017F000800780081F4909690322120791430843A3
:101800001C49086101210020FFF72CFF19490969D3
:10181000090A090208431749086104210020FFF75B
:1018200021FF00280BD01348C068202188431149AC
:10183000C8600846C068402108430E49C8601F20A0
:10184000002805DBC206D20E012191400E4A11602C
:1018500000BF0848C068102108430649C8600B480B
:1018600001780120884003490860FFF717FE00F067
:101870000FF810BD00220240A20000209D000020B1
:101880000E0000209E00002000E100E00F0000207C
:1018900000200AE006214143064A525A06214143EC
:1018A000044BC9184A80411CC8B2034909788842D0
:1018B000F0DB7047BC0000209000002000200DE00D
:1018C00000210E4A11540E4A11540E4A115442007E
:1018D0000D4B99520D4A1154411CC8B20C4909785C
:1018E0008842EDDB00210B4A1160FF210A4A11708A
:1018F00000210A4A11800A4A117070471F00002017
:101900001700002027000020AC0000202F0000203E
:101910009000002094000020A4000020A6000020D9
:10192000A200002070B504462046FFF795FE05464C
:101930001B49098848000A21FEF718FC0646204684
:10194000FFF7DEFE464306206043164940184088F4
:10195000864208DD022D21DBA81E1349085501200F
:10196000124908701AE00E490988CA00501A0A2163
:10197000FEF7FCFB06462046FFF7C2FE4643062064
:101980006043084940184088864207DAFC2D05DC90
:10199000A81C0549085501200449087070BD0000C5
:1019A0009E000020BC0000203F000020A20000207C
:1019B00070B50020002300210022FF24E40200BFB4
:1019C0000DE0012585402540002D06D01B4DA85473
:1019D000551CEAB2082A00DB03E0451CE8B22028C7
:1019E000EFDB00BF002122E0002017E0002311E020
:1019F00036254D43124EAD196D1C2D5C0F4EF65C15
:101A0000B54205D136254D430D4EAD1918352B5431
:101A10005D1CEBB29342EBDB451CE8B236254D432F
:101A2000074EAD196D7C8542E0DC4D1CE9B2054DD9
:101A30002D78A942D8DB044D2A7070BD0F0000201C
:101A4000560000209C0000209000002030B50120AE
:101A5000164908701648007B164908701448006C37
:101A600040B215490870FFF7A3FF002508E00A20DF
:101A7000684312494018807911494855681CC5B21D
:101A8000104800788542F2DB00200F4908800024CE
:101A900007E00021362060430C4A8018C185601C95
:101AA000C4B2024800788442F3DB30BD9C000020C1
:101AB000081F00084F000020500000204C1F0008A5
:101AC0003F0000209000002052000020560000201F
:101AD00010B500244948C068022108434749C8603E
:101AE0000846806981B24648007806225043454A3C
:101AF000115243480078401C41490870084600785C
:101B000041490978884209DB00203D4908703F4877
:101B10000078802108433D49087000E001243848DE
:101B20000078FFF7EDFD3A490988484380B2334910
:101B3000C861022132480078FFF794FD00070009D0
:101B40002E4909690F221206914308432B49086167
:101B500000212B480078FFF785FD0007000C27497E
:101B6000C9680F221203914308432449C860062123
:101B700023480078FFF776FD80072049096989002E
:101B8000890808431D49086103211D480078FFF7B3
:101B900069FD0002194909697F22520291430843F5
:101BA00016490861052116480078FFF75BFD80079C
:101BB00080081249096903221207914308430F491B
:101BC000086101210E480078FFF74CFD0B490969B7
:101BD000090A09020843094908610E4808490978B9
:101BE000415C0120884005490860012C05D1084668
:101BF000C068012108430149C86010BD00220240AD
:101C00009D000020BC000020900000200E0000205D
:101C10009E0000200F00002070477047002904D06C
:101C2000026880231A43026003E00268014B1A40F5
:101C3000026070477FFF000010B5002A03D00369DF
:101C40000B43036104E00369CC43A4B22340036166
:101C500010BD10B5002A03D003690B43036104E0F3
:101C60000369CC43A4B22340036110BD30B50246E2
:101C700010680A4B18400B884C8823438C882343F8
:101C8000184310609068000A0002CB888C686400DA
:101C9000FE252C4023431843906030BDFC3FFFFFDE
:101CA00010B50A46074B984200D100E000BF01681A
:101CB0000324A4030B46A34319460B4613431946BA
:101CC000016010BD60000240704770477D20C00079
:101CD00001E0411E88B20028FBD170472021020C90
:101CE00001D010211046020A01D01046083902091D
:101CF00001D01046091F820801D01046891E4208F3
:101D000001D0881E7047081A704730B47446641EAC
:101D10002578641CAB4204D3635D5B00E31830BCE0
:101D200018471D46F8E70000002805DBC206D20E62
:101D300001219140014A11607047000000E100E07C
:101D400010B5002819DB1A4A03231B02D218830896
:101D50009B00D2588307DC0EFF23A3409A438B07D6
:101D60001B0E8407E40EA3401A43114B03242402E4
:101D70001B198408A4001A5118E00E4A03071B0F10
:101D8000083B9B089B00D2588307DC0EFF23A3402F
:101D90009A438B071B0E8407E40EA3401A43054B9E
:101DA0000407240F083CA408A4001A5110BD000029
:101DB00000E100E01CED00E002E008C8121F08C1CD
:101DC000002AFAD170477047002001E001C1121FBC
:101DD000002AFBD170470000F1B582B00298FEF7EF
:101DE000B9FA04460022064BFEF7D4F90022054B4F
:101DF00001910090FEF736FA0646FEF7B9FAFEBDED
:101E00000000144080FFCF40FEF7D4FD002122489F
:101E1000FFF77EFA3220FEF7FFFBFFF77FFC3AE088
:101E2000FEF772FC1D4800780300FFF76EFF050403
:101E30001F202132330010211948FEF734FC012104
:101E400089021748FEF72FFC0121C9021448FEF74A
:101E50002AFC80211348FEF726FCFF21013111489E
:101E6000FEF721FC03200D49087013E012E011E099
:101E70000D2000F021F80C49088008460088FFF783
:101E8000ABFF0A4908600A48FEF780FB0949087061
:101E900000E000BF00BFC3E7800102400000002057
:101EA0000012014000100140040000200800002042
:101EB000102102400600002010B50446002C03D07B
:101EC00021460A48FEF798FB0848FEF79EFB00BF34
:101ED00001210648FEF763FB0028F9D001210348E1
:101EE000FEF736FB0148FEF756FB10BD10210240FD
:101EF00044332211554433226655443311112222B2
:101F00003333444455550000000000000000000039
:101F100000000000050000000A000000B80B0000EF
:101F2000C800000064000000020000000100000082
:101F3000000000000400000000000000010000009C
:101F4000FFFF0000FFFF0000400000000402280423
:101F50000803300505E704022804080338050630A5
:101F600004022804080332050615040228040803A5
:101F7000360505F20402280408034005067604022B
:101F8000280408033805064004022804080328052D
:101F900006500402280408032E0505FFBC1F000894
:101FA00000000020AC000000B81D000868200008F8
:101FB000AC00002044040000C81D00080000000020
:101FC0000000000000000000000000000000000011
:101FD0000000000000000000000000000000000001
:101FE00000000000000000000000000000000000F1
:101FF00000000000000000000000000000000000E1
:1020000000000000000000000000000000000000D0
:102010000000010B0C0D0E0F10000000000000006E
:1020200000000006400014006400000000000000F2
:10203000000000000000000000000100000000009F
:1020400000009600000000000A0A200000000000C6
:102050000000000000000000000000000000000080
:08206000000000000000000078
:04000005080000C12E
:00000001FF
