:020000040800F2
:1000000008050020D9000008FF00000801010008D1
:1000100003010008050100080701000800000000B6
:1000200000000000000000000000000009010008BE
:100030000B010008000000000D010008511200082B
:100040009D080008A1080008A30800089F080008F0
:10005000A50A000800000000BD060008B51600084B
:10006000B71600084D1200084F120008C10600081C
:10007000C3060008C5060008C70600086512000888
:1000800069120008791200087D1200089512000814
:1000900097120008B1080008AD080008051600080E
:1000A000071600080000000000000000000000002B
:1000B000000000005D060008BF060008B514000837
:1000C0000448854600F084FA00480047D11800082B
:1000D000C046C046080500200E480F4901600F4881
:1000E0000F4901600F481049016010481049016034
:1000F0000C48104901601048804710480047FEE74F
:10010000FEE7FEE7FEE7FEE7FEE7FEE7FEE7FEE7C7
:10011000FEE700001030004010005FA0DC0300404C
:1001200001005FA000100240000080005C1002404F
:1001300060005FA00000000055120008C100000828
:1001400030B50B46014600202022012409E00D466F
:10015000D5409D4205D31D469540491B25469540F7
:1001600040191546521E002DF1DC30BD024670B517
:100170004A40D30FDB0740002DD04A002AD0010EA1
:10018000140E000212020919400A520A8418E501ED
:1001900004465443000A120A2E045043A41942197B
:1001A000200CC543AA18120C0125AD03521C52198C
:1001B00012047F39240400D0521C104301D44000A3
:1001C000491EC2B20C06C0092018401C4008802AF3
:1001D00002D003E0002070BD40084000002900DA92
:1001E0000020184370BD0000F0B51FB488B00B9913
:1001F0000998002448400999C00F4900490809910D
:10020000C0070B990090490049080B91099908987B
:10021000A64608431CD00B990A98084318D00998A1
:1002200001244000420D4800410D099824050003B7
:10023000000B204309900B980003000B20430B9008
:1002400050181C494018002201901446104605E041
:10025000002001460DB0F0BD032801DA034600E09E
:1002600003239C46C11A0AAE0AE05F0008ADED5BAD
:100270004F00F75B7D430027AA187C41491C5B1E99
:100280006145F2DD410004AB5A522104120C0A43CD
:10029000240C401C0828DFDB01980290009970466E
:1002A00001910090059B049A0799069800F03DF98A
:1002B000D0E700000DFCFFFFF0B50C465C4085B0B8
:1002C000E40FE40703944C000026640859009446A8
:1002D000490802460296224321D062460A431ED0B4
:1002E0006200570D4A000E032303550D01240246F8
:1002F0002C492405781B1B0B360B4018234326433F
:10030000614600901C46501AB44103D30098401C2B
:10031000009002E0921800985B41002803DA002068
:10032000014605B0F0BD00200121090507468646BB
:1003300011E064461D46141BB54106D36546521BA9
:10034000B341744607430C43A646CD07400849080D
:10035000284392185B4105460D43EAD110461843E5
:1003600013D06046194650407140084306D060469D
:10037000101AB34106D20122002306E00022012315
:10038000DB0702E00122D2435310009874460105B6
:10039000381C6141029C039D0019694100F0B8F8C6
:1003A000BFE70000FD0300000EB5054902910021E2
:1003B00000910A460B46019100F0B7F803B000BD6A
:1003C00033040000C20FD207400040080BD0C10D1B
:1003D0000723DB01C91840020905400A1143C2087E
:1003E00040071143704700200146704710B50029AF
:1003F00004DB0124E40740428C412146002B04DB4E
:100400001C460123DB075242A3418B4200D18242AA
:1004100010BD0000CB0FDB07490010B549080246AC
:100420000A4307D00A0D07240903E401090B121B34
:10043000002A01DC002010BDC900440F0C43C1009C
:10044000E018D205801800F022F810BD10B5202A5F
:1004500004DB0146203A9140002010BD914020234A
:100460009C1A0346E3401943904010BD10B5202A62
:1004700004DB0846203AD040002110BD0B46D34093
:10048000D0402024A21A91400843194610BD0029EB
:1004900004DA401C490001D140084000704770B4A4
:1004A0000024050C05D11024000402D1002921D01C
:1004B0001124050E01D100020834050F01D10001FD
:1004C000241D850F01D18000A41C002801DB400001
:1004D000641C002908D020252E1B0D46F540A140A4
:1004E00000D001212943084301061B1B000ADB1D24
:1004F00002D5002070BC7047DB0518188018002951
:10050000F8DA401C4900F5D170BC40084000704743
:1005100010B5002B08DA0024401C614192185B41A1
:100520001A4301D14008400010BDF0B51FB482B09D
:1005300005460C0003D0084601F0BEF802E001F0C9
:10054000BBF820300246009021462846FFF77EFF88
:10055000049B059A04460F4618431143084314D0E0
:10056000184610431BD0009840210A1A18460599D6
:10057000FFF77CFF05460E46009A05990498FFF7A1
:1005800065FF084305D0012004E02046394607B046
:10059000F0BD0020C11705430E432C43374300999B
:1005A0000E986305401A7905E40A00220C43FD0AFF
:1005B0000A3002D500200146E9E70105101969411A
:1005C0000C9C0D9D00196941FFF7A2FFDFE70000B9
:1005D000064C0125064E05E0E36807CC2B430C3C96
:1005E00098471034B442F7D3FFF76EFD7C1A000829
:1005F0009C1A000841607047002905D00268012359
:10060000DB031A43026004E002680123DB039A4320
:1006100002607047002905D0026801231B031A43BA
:10062000026004E0026801231B039A4302607047E2
:100630000146886880B2704730B503460C460648CC
:1006400000F037F8002558682040002801D0012527
:1006500000E00025284630BD1021024010B50121E0
:100660000148FFF7C7FF10BD10210240002A03D048
:1006700003680B43036002E003688B430360704729
:1006800010B50268054B1A408C680B6823438C89AF
:1006900023431A4302604B68C36010BDE0F7C8FFF4
:1006A0000A460168490949010B461343194601608E
:1006B000704701688022114301607047704770479E
:1006C000704770477047704770B50446002504E0D6
:1006D0007D20C00000F004F86D1CA542F8DB70BD61
:1006E00010B504460121084800F0D8FD00BF0648B7
:1006F0004068A042FBD30020034948600021024823
:1007000000F0CCFD10BD00004001024070B54D88E6
:10071000022D04D1056A0E883543056216E04D8826
:10072000012D08D1056A0E88B5430562056C0E8857
:10073000354305640AE04D88002D07D1056A0E880F
:10074000B5430562056C0E88B5430564036E00224F
:1007500010E0012494400D882540002D09D056005A
:100760000325B5401E46AE4333468D885600B5403E
:100770002B43521C102AECD3036670BD08B50090C1
:100780000AE0CA07D20F002A02D00022009B1A708A
:100790004910009A521C00920029F2D108BD08B5F8
:1007A00000900AE0CA07D20F002A02D00122009B63
:1007B0001A704910009A521C00920029F2D108BD0B
:1007C00018B503461033009300220CE0CB07DB0F73
:1007D000002B04D0009B1B78DA43009C2270491048
:1007E000009B5B1C00930029F0D118BD0146132229
:1007F00092060A43084B5A601A46D0689323024671
:100800009A43104620221043034AD060D268022344
:100810001A43014BDA607047C00300400120C00753
:100820000149C86070470000C003004002461160E3
:100830001068884201D1012070470020FCE7014682
:100840000868704710B5FF2000F028FA012000F07A
:10085000F9F8064806490860064808600846006836
:10086000012800D110BD0020FCE7000078563412AA
:10087000C0030040FA055FA0002806D00649C968F9
:1008800010221143044AD16005E00349C9681022CF
:100890009143014AD1607047C003004070477047E0
:1008A0007047704710B500F0D8FA10BD70470000CF
:1008B00010B50321014800F003F810BD000202400A
:1008C00081607047002904D0026880231A430260C7
:1008D00003E00268014B1A40026070477FFF00008E
:1008E000002904D0426980231A43426103E042692F
:1008F000014B1A40426170477FFF00004269332379
:100900009A4342618A880B881A434B881A43436989
:100910001A434261704710B5002A03D003680B43A5
:10092000036004E00368CC43A4B22340036010BD1D
:1009300010B502686F241346A3431A460B884C88EF
:1009400023438C8823431A4302608B684360CB683F
:10095000C360CB88836110BD70B5034601240020BD
:100960000AE00D462540002D03D085001E46303696
:1009700072516400451CE8B20828F2DB70BD00002B
:10098000002807D0074909680122D2051143054A0A
:10099000116006E0034909680122D2059143014A2A
:1009A00011607047000002400549096807221205DE
:1009B0009143034A11601146096801431160704771
:1009C00000000240002905D0054A12680243044B8A
:1009D0001A6004E0024A12688243014B1A607047B1
:1009E00000000240002807D0074909680122D2050B
:1009F0001143054A116006E0034909680122D20546
:100A00009143014A1160704700200240054909687E
:100A1000072212059143034A1160114609680143F8
:100A2000116070470020024005490968072212053D
:100A30009143034A116011460968014311607047F0
:100A40000030004000B50246FF2000F027F9002AE0
:100A500006D007484069402108430549486105E040
:100A600003484069402188430149486100BD0000B6
:100A70000030004000B50246FF2000F00FF9002AC8
:100A800006D007484069202108430549486105E030
:100A900003484069202188430149486100BD0000A6
:100AA000003000407047000000B50246FF2000F013
:100AB000F5F8002A07D0084840690121C903084316
:100AC0000549486106E0044840690121C90388439B
:100AD0000149486100BD00000030004000B50246F9
:100AE000FF2000F0DBF8002A06D007484069022109
:100AF00008430549486105E00348406902218843ED
:100B00000149486100BD00000030004000B50246C8
:100B1000FF2000F0C3F8002A06D0074840690121F1
:100B200008430549486105E0034840694008400022
:100B30000149486100BD00000030004070B5044626
:100B4000FF2000F0ABF83148844242D0012601205A
:100B500001E07600401C2E49C9698907890F491CAC
:100B60008142F6D22A49C969FF2212021140090ABC
:100B700048003146FFF7E4FA40280CD32448406986
:100B800003210903884322494861084640698914C2
:100B900008431F494861FF2000F080F81C48456960
:100BA0000721C901284688430546284620430546B3
:100BB0001748456140698021084315494861084646
:100BC000406980210840002801D0002070BD01202C
:100BD000FCE70F4840690321090388430C49486139
:100BE0000846406989140843094948610846406934
:100BF00080218843064948610846406980210840B1
:100C0000002800D1E2E70120E0E700007FFF0000BC
:100C10000030004000B50246012A06D10D480069A7
:100C2000042108430B49086112E0FF2000F036F868
:100C3000084800690421884306490861064880691C
:100C400060218843044988610846806910438861AF
:100C500000BD000000E000E000300040002806D0A9
:100C60000649096903221143044A116105E0034959
:100C7000096989088900014A1161704700E000E0B4
:100C8000411E044A914203D8034A516100219161F7
:100C900070470000FFFFFF0000E000E00146402930
:100CA00003DB0348C160002070470120FCE700001F
:100CB000003000401FB500206946888103204004B1
:100CC000009000110190C00102900E48FFF7D8FC7F
:100CD0001F210C48FFF7E4FC0022FF2101310948E5
:100CE000FFF7C4FC01210748FFF794FC03211D20F6
:100CF00000F014FD1D2000F005FD01210148FFF763
:100D00007BFC1FBD1021024000B59DB0802110A8C2
:100D100081850221C185002101861BA94B48FFF76F
:100D2000F5FCFF21013110A881840221C18400213A
:100D3000018519A94548FFF7E9FC102110A8818316
:100D40000221C1830021018417A94148FFF7DEFC7D
:100D5000202110A881820221C1820021018315A9CE
:100D60003B48FFF7D3FC0121890210A881810221B1
:100D7000C1810021018213A93548FFF7C7FC012179
:100D8000C90210A881800221C1800021018111A91E
:100D90002F48FFF7BBFC8021684681870221C1876D
:100DA000002110A801800FA92A48FFF7AFFCFF21FE
:100DB0000131684681860221C186002101870DA983
:100DC0002448FFF7A3FC022168468185C1850021E4
:100DD00001860BA91D48FFF799FC04216846818410
:100DE0000221C1840021018509A91848FFF78EFC62
:100DF0000821684681830221C1830021018407A95B
:100E00001248FFF783FC1021684681820221C182CB
:100E10000021018305A90D48FFF778FC20216846D1
:100E200081810221C1810021018203A90748FFF7C6
:100E30006DFC4021684681800221C1800021018132
:100E400001A90248FFF762FC1DB000BD001101407E
:100E50000012014000100140704710B5FFF754FF29
:100E600000F014F800F084F800F0AAF800F09CF903
:100E700000F0BAF800F004F900F054F900F018F8A6
:100E8000FFF718FFFFF7E8FF10BD00000648006AF3
:100E900006210843044908620448006A092109033D
:100EA00008430249086270470010014000110140E8
:100EB00000B587B0FF20FFF7F1FE01210802FFF720
:100EC00081FD002201212948FFF746FD632202210E
:100ED0002648FFF741FD632204212448FFF73CFD2B
:100EE000632208212148FFF737FD002210211F4807
:100EF000FFF732FD002220211C48FFF72DFD0022C4
:100F000040211A48FFF728FD002280211748FFF7EB
:100F100023FD0021684601820321818163214182F2
:100F20000E2005900020069000216846C18103A98B
:100F30000E48FFF7FDFC2021684681800021C1801A
:100F4000018101A90948FFF7D9FC00210748FFF7F3
:100F5000C7FC0022FF2101310448FFF7DCFC01211E
:100F60000248FFF7AFFC07B000BD000000020240DE
:100F700010B5FF20FFF792FE0020FFF77BFD002059
:100F8000FFF7C4FD0120FFF7A9FD0120FFF75AFD7F
:100F90000120FFF789FD0948FFF7D0FD0020FFF78A
:100FA00043FD0020FFF700FD0120FFF7E9FC0020D2
:100FB000FFF72CFD0120FFF715FD10BD7FFF00009E
:100FC00010B5FF20FFF76AFE0020FFF723FE7D200B
:100FD000C001FFF755FE0021481E00F09FFB0120D5
:100FE000FFF73CFE10BD000000B585B001210220D6
:100FF000FFF7E8FC002168464181052109020181D3
:10100000002181818321090201820021C18102A97D
:101010001A4800F0F5F9002168468180C18001A9D5
:10102000164800F065F90021144800F053F900213A
:101030006846018041806946104800F08BF93222F1
:1010400002210E4800F0B8F9002201210B4800F0FF
:1010500073F901222021094800F02EF901224021D4
:10106000064800F029F901221021044800F024F973
:101070000121024800F012F905B000BD4001024014
:1010800000B585B001210420FFF79CFC00216846D3
:101090004181052109020181002181811F490182CD
:1010A0000021C18102A91E4800F0AAF9002168466A
:1010B0008180C18001A91A4800F01AF9002118485E
:1010C00000F008F90221684601800021418069464C
:1010D000134800F03FF90021114800F083F9322253
:1010E00002210F4800F068F9002201210C4800F0AD
:1010F00023F9002220210A4800F0DEF800224021D6
:10110000074800F0D9F800221021054800F0D4F873
:101110000121034800F0C2F805B000BD237F0000A4
:101120008001024000B585B001210820FFF74AFC8C
:101130000021684641810181818183210902018268
:101140000021C18102A9174800F05AF90021684620
:101150008180C18001A9134800F0CAF8002111481C
:1011600000F0B8F8002168460180418069460D48CA
:1011700000F0F0F8322202210A4800F01DF90022A6
:101180000121084800F0D8F80321122000F0C6FA27
:10119000122000F0B7FA0121024800F07FF805B0F4
:1011A00000BD0000C001024000B587B020216846A4
:1011B00081820121C1820021018305A92148FFF715
:1011C000A5FA4021684681810121C1810021018267
:1011D00003A91C48FFF79AFA01211020FFF7F2FB40
:1011E0000221684601800521090241800021818099
:1011F000502002906846C1806946134800F02CFADE
:101200000121C903104800F041FA012211460E489D
:1012100000F015FA002280210B4800F003FA0022AA
:101220004021094800F0FEF90321172000F076FA6A
:10123000172000F067FA0121034800F0E5F907B034
:1012400000BD000000100140600002407047704780
:10125000704700000120C006014988607047000007
:1012600000ED00E07047000010B50721014800F0D4
:1012700013F810BD400102407047000010B5002077
:1012800000F0B2FA0721024800F006F810BD000095
:10129000C001024070477047C1607047002904D008
:1012A000026880231A43026003E00268014B1A407F
:1012B000026070477FFF000010B5002A03D08369E9
:1012C0000B43836104E08369CC43A4B22340836170
:1012D00010BD0000002904D0026801231A430260F7
:1012E00003E00268014B1A4002607047FEFF0000F5
:1012F00010B54B88302B00D100BF4B88082B02D093
:101300000B88042B00D100BF03689AB23C2413461B
:10131000A3431A46074B984205D14B88082B06D0A9
:101320004B881A4303E04B880C8823431A4302601E
:1013300010BD00000001024010B5002A03D08369EF
:101340000B43836104E08369CC43A4B223408361EF
:1013500010BD000010B54B88022B02D00B88022B69
:1013600000D100BF4B88012B02D00B88012B00D18C
:1013700000BF02680F24E4021346A3431A460D4B34
:10138000984205D10B88022B02D04B88022B08D142
:10139000084B98420BD00B88012B08D04B88012BAF
:1013A00005D00B885B034C88E40223431A43026098
:1013B00010BD000000010240022900D100BF012938
:1013C00000D100BF064B984203D0022901D102612F
:1013D00005E0034B984202D1012900D142617047D8
:1013E0000001024010B50A4601680124E4040B46DE
:1013F000A34319460B4613431946016010BD000074
:1014000010B50268074B1A400B888C8823434C8820
:101410002343CC88640123431A4302600B89836011
:10142000436010BD9DF8FFFF01460148405C7047D6
:101430005700002010B502460C46230000F053F977
:1014400007050A10161A1E242A000A2050431249C2
:10145000085C10BD0A2050430F4940188078F8E717
:101460000A2050430C494018C078F2E71046FFF7B5
:10147000DBFFEEE70948008DC0B2EAE70A205043DF
:10148000054940184078E4E70A20504302494018D3
:101490004079DEE70020DCE72C1A0008E819000894
:1014A00001460A204843024A80180079704700002C
:1014B0002C1A000810B500F001F810BD10B500247A
:1014C0004948C068022108434749C8600846806906
:1014D00081B24648007806225043454A115243489B
:1014E0000078401C41490870084600784149097855
:1014F000884209DB00203D4908703F480078802180
:1015000008433D49087000E0012438480078FFF79F
:10151000C7FF3A490988484380B23349C86102216C
:1015200032480078FFF786FF000700092E49096955
:101530000F221206914308432B49086100212B48D2
:101540000078FFF777FF0007000C2749C9680F22D2
:101550001203914308432449C860062123480078B8
:10156000FFF768FF80072049096989008908084357
:101570001D49086103211D480078FFF75BFF000249
:10158000194909697F2252029143084316490861AB
:10159000052116480078FFF74DFF800780081249A3
:1015A000096903221207914308430F490861012189
:1015B0000E480078FFF73EFF0B490969090A090246
:1015C0000843094908610E4808490978415C01202F
:1015D000884005490860012C05D10846C0680121F2
:1015E00008430149C86010BD00220240B500002038
:1015F000D4000020A800002026000020B600002013
:101600002700002070477047002904D0026880231B
:101610001A43026003E00268014B1A4002607047FF
:101620007FFF000010B5002A03D003690B4303615C
:1016300004E00369CC43A4B22340036110BD10B59C
:10164000002A03D003690B43036104E00369CC4320
:10165000A4B22340036110BD30B5024610680A4BA6
:1016600018400B884C8823438C8823431843106010
:101670009068000A0002CB888C686400FE252C402C
:1016800023431843906030BDFC3FFFFF10B50A466E
:10169000074B984200D100E000BF01680324A40377
:1016A0000B46A34319460B4613431946016010BD70
:1016B00060000240704770472021020C01D01021C9
:1016C0001046020A01D010460839020901D010461E
:1016D000091F820801D01046891E420801D0881EC9
:1016E0007047081A704730B47446641E2578641C2D
:1016F000AB4204D3635D5B00E31830BC18471D4662
:10170000F8E70000002805DBC206D20E0121914057
:10171000014A11607047000000E100E010B50028A8
:1017200019DB1A4A03231B02D21883089B00D258E4
:101730008307DC0EFF23A3409A438B071B0E84070D
:10174000E40EA3401A43114B032424021B198408FE
:10175000A4001A5118E00E4A03071B0F083B9B0810
:101760009B00D2588307DC0EFF23A3409A438B07CC
:101770001B0E8407E40EA3401A43054B0407240FF5
:10178000083CA408A4001A5110BD000000E100E0CC
:101790001CED00E002E008C8121F08C1002AFAD1BF
:1017A00070477047002001E001C1121F002AFBD1E1
:1017B00070470000F1B582B00298FEF7F5FD0446CF
:1017C000064A074BFEF710FD0022064B01910090E0
:1017D000FEF772FD0646FEF71DFEFEBD33333333C2
:1017E0003333034080FFCF40F8B51F2000F0E2F80C
:1017F00006463046FFF7DEFF07463846FEF7E2FDB5
:1018000004460022044BFEF7F1FD03D200F006F877
:1018100000BFFEE7F8BD00000000104010B5FFF764
:1018200011F8FF20FEF7E2FF0120FFF725F803493A
:101830000348FEF7FBFFFEF7F1FF10BD78563412A8
:1018400000FE010838B500241E48FEF7F8FF0446E4
:10185000C32109011C48FEF7A2FFFF2181311B486B
:10186000FEF79DFF002C03D010211748FEF786FFDE
:10187000022C03D320211448FEF780FF032C04D34D
:10188000012189021048FEF779FF042C04D30121BD
:10189000C9020D48FEF772FF052C03D380210B48C7
:1018A000FEF76CFF062C04D3FF2101310748FEF739
:1018B00065FF69460988084669468978090408432E
:1018C00038BD000000FE0108001201400010014078
:1018D00008B5FEF7E7FF00212F48FFF7DFFCFFF711
:1018E000B1FF0090FF20F530FEF7EEFE52E02B48EE
:1018F00000780300FFF7F7FE0504084A4B4C4D0043
:1019000001202649087044E01F2000F053F80746E4
:101910003846FFF74FFF05468121C905FEF726FC33
:1019200004462046FEF74EFD054600221C4BFEF7FE
:101930005DFD03D2FFF772FF00BFFEE71948007894
:10194000002802D00020174908700A20FEF7BCFECC
:1019500015480068401C14490860142112480068AA
:10196000FEF7EEFB002910D110480068401C0F491B
:10197000086003210D480068FEF7E2FB002904D14E
:10198000FF2101310A48FEF71BFF02E001E000E001
:1019900000BF00BFABE70000800102401100002043
:1019A00000001240240000201C0000202000002025
:1019B0000010014010B50446002C03D02146094810
:1019C000FEF76EFE00BF01210648FEF735FE002837
:1019D000F9D001210348FEF70DFE0248FEF728FE6C
:1019E00010BD0000102102400000000000000000B7
:1019F00000000000050000000A000000B80B000015
:101A0000C8000000640000000200000001000000A7
:101A100000000000040000000000000001000000C1
:101A2000FFFF0000FFFF0000400000000402280448
:101A30000803300505E704022804080338050630CA
:101A400004022804080332050615040228040803CA
:101A5000360505F204022804080340050676040250
:101A60002804080338050640040228040803280552
:101A700006500402280408032E0505FF9C1A0008DE
:101A800000000020C400000094170008601B00083C
:101A9000C400002044040000A41700080000000057
:101AA0000000000000000000000000000000000036
:101AB0000000000000000000000000000000000026
:101AC0000100000000000000000000000000000015
:101AD0000000000000000000000000000000000006
:101AE00000000000000000000000000000000000F6
:101AF00000000000000000000000000000000000E6
:101B000000000000000000000000010B0C0D0E0F93
:101B1000100000000000000000000006400014005B
:101B20006400000000000000000000000000000051
:101B3000000001000000000000009600000000000E
:101B40000A0A200000000000000000000000000061
:101B50000000000000000000000000000000000085
:04000005080000C12E
:00000001FF
