:020000040800F2
:10000000F0040020D9000008FF00000801010008EA
:1000100003010008050100080701000800000000B6
:1000200000000000000000000000000009010008BE
:100030000B010008000000000D010008C5160008B3
:10004000550D0008590D00085B0D0008570D0008FC
:10005000A50F0008000000004B0A00082D2E000824
:100060002F2E0008C1160008C3160008F30B000865
:10007000F50B0008F70B0008F90B0008D91600086B
:10008000DD160008ED160008EF160008F11600084E
:10009000F3160008690D0008650D00087D2D0008A5
:1000A0007F2D00080000000000000000000000009C
:1000B00000000000F5090008F10B0008BD20000851
:1000C0000448854600F066FC00480047AD2F000854
:1000D000C046C046F00400200E480F4901600F489A
:1000E0000F4901600F481049016010481049016034
:1000F0000C48104901601048804710480047FEE74F
:10010000FEE7FEE7FEE7FEE7FEE7FEE7FEE7FEE7C7
:10011000FEE700001030004010005FA0DC0300404C
:1001200001005FA000100240000080005C1002404F
:1001300060005FA000000000C9160008C1000008B0
:1001400030B50B46014600202022012409E00D466F
:10015000D5409D4205D31D469540491B25469540F7
:1001600040191546521E002DF1DC30BD70B500243B
:100170002546002801DA01244042002901DA012540
:100180004942FFF7DDFFAC4200D04042002C00D0D6
:10019000494270BDF8B502464A40D40F42004B00B8
:1001A00052085B089A4202D20246084611464A00AB
:1001B00023D0C30D4A00DDB2120EAD1A202D35DA60
:1001C00049020126490AF6058A19002C00D052423C
:1001D00020214F1B1146B9402A411018C20D9A42E6
:1001E00021D0002C17D0012D08DCDA05801AD20F9F
:1001F0008019D207DBB200F035FBF8BDDA05801AB2
:10020000012340001B06C01880185A428018CA0FEC
:100210001043490007E04908C2071143DA05801A74
:1002200080194008801800F015FBF8BD610001221C
:10023000511A001BF7E70122D2075140AAE7012219
:10024000D2075040A6E7024670B54A40D30FDB07FD
:1002500040002DD04A002AD0010E140E00021202D6
:100260000919400A520A8418E50104465443000A59
:10027000120A2E045043A4194219200CC543AA188F
:10028000120C0125AD03521C521912047F392404AB
:1002900000D0521C104301D44000491EC2B20C06CB
:1002A000C0092018401C4008802A02D003E000202A
:1002B00070BD40084000002900DA0020184370BDDE
:1002C00070B502464A40D50F40004A00ED0740088D
:1002D0005208002814D0002A12D0C40DD30D4102B8
:1002E0000120C0055202490A520AE41A09181218DC
:1002F0007D34914201D3641C00E04900002C01DAF6
:10030000002070BD0023914201D3891A03434008A5
:1003100049000028F7D100290AD0914202D10121D9
:10032000C90705E0914201D2012101E00121C94341
:10033000E005C018401900F08DFA70BDF0B5074611
:100340000846584087B0C00F049048000E46590038
:1003500040084908BC1A884105D2384631461E4635
:1003600017460B4602465800400810434DD0300D4A
:10037000039040055900400D490D0590401A029028
:10038000402873DA18030121000B09050843019086
:1003900004980092002806D01146019A4942002094
:1003A000904100910190029840210A1A0199009809
:1003B00000F01CFA05460C466B4607CB00F037FAF6
:1003C000C0197141039A0E0D0023D71756401A46E3
:1003D0007A40164344D0049A002A2DD0029A012A6A
:1003E000039A15DC1205C01A914101263605001C3E
:1003F0007141D20F059ED2070093019202962A46C0
:10040000234600F075FA07B0F0BD38463146FAE7EA
:100410001605234A0F46B218C01AB7410121090533
:10042000001C4F4100187F41114618187941E20F16
:1004300010436D19644113E0E2076D081543640829
:10044000C2071443039A01261205C01A91413605CA
:10045000001C7141CE07400830434908C018514183
:100460002A46234600F037FACDE7FFE70498012239
:100470004000C117121A00238B4104983146C4175B
:10048000381AA141EEE730B40124E407634030BCE0
:1004900054E730B40124E407614030BC4EE700006B
:1004A0000000E0FFF0B51FB488B00B990998002454
:1004B00048400999C00F490049080991C0070B99A4
:1004C0000090490049080B9109990898A6460843ED
:1004D0001CD00B990A98084318D0099801244000B1
:1004E000420D4800410D099824050003000B2043EC
:1004F00009900B980003000B20430B9050181C49E7
:100500004018002201901446104605E000200146E4
:100510000DB0F0BD032801DA034600E003239C463A
:10052000C11A0AAE0AE05F0008ADED5B4F00F75B51
:100530007D430027AA187C41491C5B1E6145F2DD02
:10054000410004AB5A522104120C0A43240C401CF3
:100550000828DFDB01980290009970460191009015
:10056000059B049A0799069800F0C2F9D0E70000AD
:100570000DFCFFFFF0B50C465C4085B0E40FE407CE
:1005800003944C000026640859009446490802462A
:100590000296224321D062460A431ED06200570DC4
:1005A0004A000E032303550D012402462C4924055D
:1005B000781B1B0B360B40182343264361460090E3
:1005C0001C46501AB44103D30098401C009002E02E
:1005D000921800985B41002803DA0020014605B01C
:1005E000F0BD0020012109050746864611E064465A
:1005F0001D46141BB54106D36546521BB3417446D4
:1006000007430C43A646CD074008490828439218E3
:100610005B4105460D43EAD11046184313D06046AE
:10062000194650407140084306D06046101AB34145
:1006300006D20122002306E000220123DB0702E0AC
:100640000122D2435310009874460105381C6141C1
:10065000029C039D0019694100F03DF9BFE70000CD
:10066000FD030000C217C10F504010B54018CA0763
:100670009623002100F0F6F810BD10B50022962355
:10068000114600F0EFF810BD0EB5C217C10F504073
:10069000CA0740180021054B0293019200910A46B7
:1006A0000B4600F025F903B000BD00003304000044
:1006B0000EB505490291002100910A460B460191B1
:1006C00000F016F903B000BD33040000C20F410072
:1006D00040020123400ADB05D207090EC0187F291A
:1006E00001DA00207047962903DC9623591AC84086
:1006F00001E096398840002AF4D04042704741001A
:1007000040020122400AD205090E80187F2901DA31
:1007100000207047962903DC9622511AC840704782
:1007200096398840704700004A0009030123090BED
:100730001B051943094B10B5520D9A4201DA0020EE
:1007400010BD064B34339A4203DC9A1A00F05EF86F
:1007500010BD03495118884010BD0000FF03000080
:10076000CDFBFFFFC20FD207400040080BD0C10DE8
:100770000723DB01C91840020905400A1143C208DA
:10078000400711437047002001467047CB0FDB073D
:10079000490010B5490802460A4307D00A0D07244C
:1007A0000903E401090B121B002A01DC002010BD23
:1007B000C900440F0C43C100E018D205801800F0B6
:1007C00049F810BD0122D207002800DB101A0029C9
:1007D00000DB511A814270470122D207002800DB5A
:1007E000101A002900DB511A8842704710B5202AE0
:1007F00004DB0146203A9140002010BD91402023A7
:100800009C1A0346E3401943904010BD10B5202ABE
:1008100004DB0846203AD040002110BD0B46D340EF
:10082000D0402024A21A91400843194610BD10B5AB
:10083000202A06DBCB170846203A1041C1170B438C
:1008400006E00B461341D0402024A21A91400843F1
:10085000194610BD002904DA401C490001D14008A6
:100860004000704770B40024050C05D1102400042A
:1008700002D1002921D01124050E01D10002083433
:10088000050F01D10001241D850F01D18000A41C9A
:10089000002801DB4000641C002908D020252E1B05
:1008A0000D46F540A14000D001212943084301062F
:1008B0001B1B000ADB1D02D5002070BC7047DB0546
:1008C000181880180029F8DA401C4900F5D170BCCE
:1008D00040084000704710B5002B08DA0024401C87
:1008E000614192185B411A4301D14008400010BD9C
:1008F000F0B51FB482B005460C0003D0084602F0E4
:10090000D7FA02E002F0D4FA2030024600902146E5
:100910002846FFF76BFF049B059A04460F461843D1
:100920001143084314D0184610431BD000984021AF
:100930000A1A18460599FFF769FF05460E46009A00
:1009400005990498FFF752FF084305D0012004E001
:100950002046394607B0F0BD0020C11705430E43BD
:100960002C43374300990E986305401A7905E40A31
:1009700000220C43FD0A0A3002D500200146E9E7B7
:100980000105101969410C9C0D9D00196941FFF783
:10099000A2FFDFE7064C0125064E05E0E36807CC21
:1009A0002B430C3C98471034B442F7D3FFF78CFB31
:1009B000044800082448000841607047002905D019
:1009C00002680123DB031A43026004E0026801238A
:1009D000DB039A4302607047002905D002680123B7
:1009E0001B031A43026004E0026801231B039A43BD
:1009F0000260704710B501210148FFF7DDFF10BD0F
:100A000010210240002A03D003680B43036002E078
:100A100003688B430360704710B50268054B1A40AA
:100A20008C680B6823438C8923431A4302604B680C
:100A3000C36010BDE0F7C8FF0A46016849094901D3
:100A40000B461343194601607047704710B50446C2
:100A500000205C490880002C39D123E001215A484C
:100A600000F04AFE574909884900584A505A00F098
:100A7000E3F954480088401C80B252490880400085
:100A80005249085A5249088009887D22514388B248
:100A900000F0CEF84B480088401C4A4908800A20E4
:100AA00000F0C6F84748008840004849085AFF2827
:100AB000D4D1444800884000085AFF2806D10020BD
:100AC000404908800021404800F016FE78E0012CE3
:100AD0003AD124E001213C4800F00EFE3949098852
:100AE00089003C4A515A88B200F0A6F9354800887E
:100AF000401C80B23349088080003649085A344986
:100B000008800988CA00511A88B200F091F82D486F
:100B10000088401C2B4908800A2000F089F82948E9
:100B2000008880002B490858FF28D3D12548008829
:100B300080000858FF2843D1002022490880002166
:100B4000214800F0D9FD3BE0022C39D124E00121FD
:100B50001D4800F0D1FD1B49098849001E4A515A21
:100B600088B200F069F917480088401C80B2154926
:100B7000088040001849085A1549088009888A00E9
:100B8000891888B200F054F80E480088401C0D49BE
:100B900008800A2000F04CF80A48008840000E49FE
:100BA000085EFF28D3D1074800884000085EFF2870
:100BB00006D10020034908800021034800F09CFD75
:100BC00010BD00000A000020800102409C30000897
:100BD0000C00002080320008F446000810B50446DE
:100BE00022460221014800F015FE10BD800102409E
:100BF0007047704770477047704700000A4909689E
:100C000001225204891A05D0891A07D11221074AF4
:100C1000117007E01121054A117003E0FF21034A1A
:100C2000117000BF00BF70470400002000000020CA
:100C300070B50446002504E07D20C00000F004F8F3
:100C40006D1CA542F8DB70BD10B5044601210848B3
:100C500000F052FD00BF06484068A042FBD30020D0
:100C6000034948600021024800F046FD10BD000025
:100C70004001024070B54D88022D04D1056A0E88EE
:100C80003543056216E04D88012D08D1056A0E88AE
:100C9000B5430562056C0E88354305640AE04D884E
:100CA000002D07D1056A0E88B5430562056C0E88D4
:100CB000B5430564036E002210E0012494400D88C2
:100CC0002540002D09D056000325B5401E46AE43F1
:100CD00033468D885600B5402B43521C102AECD366
:100CE000036670BD08B500900AE0CA07D20F002A5B
:100CF00002D00022009B1A704910009A521C0092E8
:100D00000029F2D108BD08B500900AE0CA07D20F49
:100D1000002A02D00122009B1A704910009A521C2E
:100D200000920029F2D108BD18B503461033009394
:100D300000220CE0CB07DB0F002B04D0009B1B78BC
:100D4000DA43009C22704910009B5B1C0093002931
:100D5000F0D118BD704770477047704710B500F06C
:100D6000FDFA10BD7047000010B50321014800F0E6
:100D700003F810BD0002024081607047002904D0D2
:100D8000026880231A43026003E00268014B1A40A4
:100D9000026070477FFF0000002904D04269802371
:100DA0001A43426103E04269014B1A4042617047B5
:100DB0007FFF0000426933239A4342618A880B888F
:100DC0001A434B881A4343691A434261704710B56E
:100DD000002A03D003680B43036004E00368CC439C
:100DE000A4B22340036010BD10B502686F241346FF
:100DF000A3431A460B884C8823438C8823431A4309
:100E000002608B684360CB68C360CB88836110BD90
:100E100070B50346012400200AE00D462540002D50
:100E200003D085001E46303672516400451CE8B27E
:100E30000828F2DB70BD0000F1B584B00498FFF71C
:100E400037FC044600220B4BFFF72CFB02460B46F7
:100E50000191009000200849FFF78CFB0646FFF740
:100E600063FC80B201460290044800F0F6FC05B035
:100E7000F0BD00000000F03F006AF8408001024031
:100E8000002807D0074909680122D2051143054A05
:100E9000116006E0034909680122D2059143014A25
:100EA00011607047000002400549096807221205D9
:100EB0009143034A1160114609680143116070476C
:100EC00000000240002905D0054A12680243044B85
:100ED0001A6004E0024A12688243014B1A607047AC
:100EE00000000240002807D0074909680122D20506
:100EF0001143054A116006E0034909680122D20541
:100F00009143014A11607047002002400549096879
:100F1000072212059143034A1160114609680143F3
:100F20001160704700200240054909680722120538
:100F30009143034A116011460968014311607047EB
:100F40000030004000B50246FF2000F027F9002ADB
:100F500006D007484069402108430549486105E03B
:100F600003484069402188430149486100BD0000B1
:100F70000030004000B50246FF2000F00FF9002AC3
:100F800006D007484069202108430549486105E02B
:100F900003484069202188430149486100BD0000A1
:100FA000003000407047000000B50246FF2000F00E
:100FB000F5F8002A07D0084840690121C903084311
:100FC0000549486106E0044840690121C903884396
:100FD0000149486100BD00000030004000B50246F4
:100FE000FF2000F0DBF8002A06D007484069022104
:100FF00008430549486105E00348406902218843E8
:101000000149486100BD00000030004000B50246C3
:10101000FF2000F0C3F8002A06D0074840690121EC
:1010200008430549486105E003484069400840001D
:101030000149486100BD00000030004070B5044621
:10104000FF2000F0ABF83148844242D00126012055
:1010500001E07600401C2E49C9698907890F491CA7
:101060008142F6D22A49C969FF2212021140090AB7
:1010700048003146FFF764F840280CD32448406903
:1010800003210903884322494861084640698914BD
:1010900008431F494861FF2000F080F81C4845695B
:1010A0000721C901284688430546284620430546AE
:1010B0001748456140698021084315494861084641
:1010C000406980210840002801D0002070BD012027
:1010D000FCE70F4840690321090388430C49486134
:1010E000084640698914084309494861084640692F
:1010F00080218843064948610846406980210840AC
:10110000002800D1E2E70120E0E700007FFF0000B7
:101110000030004000B50246012A06D10D480069A2
:10112000042108430B49086112E0FF2000F036F863
:101130000848006904218843064908610648806917
:1011400060218843044988610846806910438861AA
:1011500000BD000000E000E000300040002806D0A4
:101160000649096903221143044A116105E0034954
:10117000096989088900014A1161704700E000E0AF
:10118000411E044A914203D8034A516100219161F2
:1011900070470000FFFFFF0000E000E0014640292B
:1011A00003DB0348C160002070470120FCE700001A
:1011B000003000401FB500206946888103204004AC
:1011C0000090012040030190002002900E48FFF79C
:1011D00023FC1F210C48FFF72FFC0022FF210131C7
:1011E0000948FFF70FFC00210748FFF7F5FB032133
:1011F0001D2001F08FFE1D2001F080FE012102481C
:10120000FFF7DCFB1FBD00001021024000B59DB0C0
:10121000802110A881850221C185002101861BA99A
:101220004B48FFF727FDFF21013110A881840221DF
:10123000C1840021018519A94548FFF71BFD102134
:1012400010A881830221C1830021018417A941488C
:10125000FFF710FD202110A881820221C182002108
:10126000018315A93B48FFF705FD0121890210A85C
:1012700081810221C1810021018213A93548FFF734
:10128000F9FC0121C90210A881800221C18000213E
:10129000018111A92F48FFF7EDFC80216846818765
:1012A0000221C187002110A801800FA92A48FFF759
:1012B000E1FCFF210131684681860221C1860021BF
:1012C00001870DA92448FFF7D5FC022168468185D6
:1012D000C185002101860BA91D48FFF7CBFC042125
:1012E000684681840221C1840021018509A918482A
:1012F000FFF7C0FC0821684681830221C1830021D9
:10130000018407A91248FFF7B5FC102168468182C5
:101310000221C1820021018305A90D48FFF7AAFC23
:101320002021684681810221C1810021018203A917
:101330000748FFF79FFC4021684681800221C18059
:101340000021018101A90248FFF794FC1DB000BDF6
:1013500000110140001201400010014010B5FFF7DC
:1013600055FF00F00FF800F07FF800F0A5F800F04E
:1013700055F900F0B5F800F0FFF800F015F8FFF7A8
:1013800019FF10BD0648006A062108430449086297
:101390000448006A092109030843024908627047AA
:1013A000001001400011014000B587B0FF20FFF799
:1013B000F5FE01210802FFF785FD002201212948E1
:1013C000FFF726FD632202212648FFF721FD632255
:1013D00004212448FFF71CFD632208212148FFF760
:1013E00017FD002210211F48FFF712FD00222021C7
:1013F0001C48FFF70DFD002240211A48FFF708FDA9
:10140000002280211748FFF703FD00216846018272
:1014100003218181632141820E20059000200690E6
:1014200000216846C18103A90E48FFF7DDFC202199
:10143000684681800021C180018101A90948FFF728
:10144000B9FC00210748FFF7A7FC0022FF2101316A
:101450000448FFF7BCFC01210248FFF78FFC07B0EE
:1014600000BD00000002024010B5FF20FFF796FE0D
:101470000020FFF77FFD0020FFF7C8FD0120FFF7E8
:10148000ADFD0120FFF75EFD0120FFF78DFD09484E
:10149000FFF7D4FD0020FFF747FD0020FFF704FD14
:1014A0000120FFF7EDFC0020FFF730FD0120FFF7E2
:1014B00019FD10BD7FFF000010B5FF20FFF76EFE85
:1014C0000020FFF727FE7D20C001FFF759FE002115
:1014D000481E01F01FFD0120FFF740FE10BD000077
:1014E00000B585B001210220FFF7ECFC0021684621
:1014F00041810521090201810021818183210902A5
:1015000001820021C18102A91A4800F0A9F9002135
:1015100068468180C18001A9164800F017F90021B2
:10152000144800F005F900216846018041806946B1
:10153000104800F03DF9322202210E4800F06AF90D
:10154000002201210B4800F025F901222021094841
:1015500000F0E0F801224021064800F0DBF801220B
:101560001021044800F0D6F80121024800F0C4F828
:1015700005B000BD4001024000B585B00121042046
:10158000FFF7A0FC00216846418105210902018185
:10159000002181811F4901820021C18102A91E48C9
:1015A00000F05EF9002168468180C18001A91A48D7
:1015B00000F0CCF80021184800F0BAF80221684683
:1015C0000180002141806946134800F0F1F80021B4
:1015D000114800F035F9322202210F4800F01AF9C3
:1015E000002201210C4800F0D5F8002220210A48F1
:1015F00000F090F800224021074800F08BF800220C
:101600001021054800F086F80121034800F074F825
:1016100005B000BD237F00008001024000B587B007
:101620002021684681820121C1820021018305A910
:101630002148FFF71FFB4021684681810121C181BC
:101640000021018203A91C48FFF714FB012110208F
:10165000FFF738FC0221684601800521090241801C
:1016600000218180502002906846C180694613485D
:1016700001F0AEFB0121C903104801F0C3FB0122B8
:1016800011460E4801F097FB002280210B4801F023
:1016900085FB00224021094801F080FB032117202F
:1016A00001F038FC172001F029FC0121034801F06A
:1016B00067FB07B000BD0000001001406000024061
:1016C00070477047704700000120C00601498860DC
:1016D0007047000000ED00E07047000010B50721E2
:1016E000014800F007F810BD400102407047704704
:1016F00070477047C1607047002904D0026880239A
:101700001A43026003E00268014B1A40026070470E
:101710007FFF000010B5002A03D083690B4383616B
:1017200004E08369CC43A4B22340836110BD000070
:10173000002904D0026801231A43026003E0026812
:10174000014B1A4002607047FEFF000010B54B8845
:10175000302B00D100BF4B88082B02D00B88042B04
:1017600000D100BF03689AB23C241346A3431A4633
:10177000074B984205D14B88082B06D04B881A435B
:1017800003E04B880C8823431A43026010BD00001D
:101790000001024010B5002A03D083690B43836126
:1017A00004E08369CC43A4B22340836110BD0000F0
:1017B00010B54B88022B02D00B88022B00D100BF42
:1017C0004B88012B02D00B88012B00D100BF02688F
:1017D0000F24E4021346A3431A460D4B984205D149
:1017E0000B88022B02D04B88022B08D1084B984261
:1017F0000BD00B88012B08D04B88012B05D00B8810
:101800005B034C88E40223431A43026010BD0000CE
:1018100000010240022900D100BF012900D100BF10
:10182000064B984203D0022901D1026105E0034B27
:10183000984202D1012900D1426170470001024063
:1018400010B50A4601680124E4040B46A343194677
:101850000B4613431946016010BD816070470000BC
:1018600010B50268074B1A400B888C8823434C88BC
:101870002343CC88640123431A4302600B898360AD
:10188000436010BD9DF8FFFF10B5034600211EE028
:1018900000220AE036204843144C00191830805CBE
:1018A000984200D108E0501CC2B2362048430F4C89
:1018B0000019407C9042EDDC00BF362048430B4CC1
:1018C0000019407C904200D005E0481CC1B2084895
:1018D00000788142DCDB00BF05480078814201D0FE
:1018E000012010BD00BF0020FBE7000056000020D3
:1018F0009C000020F0B59FB0044600201690149084
:101900001390A08E401CA086002537E0204618309A
:10191000475D06207843C749095A06207843C54ADF
:1019200080184088081A00B2690017AA505268004F
:1019300017A9085E1621615E884201DD0020A0869D
:10194000680017A9085E1421615E884203DA00204E
:10195000690017AA5052384600F06AFB690017AABE
:101960001190515E6422514308461199FEF7FEFB27
:1019700000B2690017AA5052681CC5B2607CA84228
:10198000C4DCA08E00287CD100250CE0680017A9DB
:10199000095E1698814204DD6EB2680017A9085EE0
:1019A0001690681CC5B2607CA842EFDC002526E0DA
:1019B000701E4019002806DA607C401E400017A9FE
:1019C000085E16900FE0701E4019617C884204DBAF
:1019D00010A91C20085E169005E0701E40194000FA
:1019E00017A9085E1690691C169848431499401868
:1019F00014901699139840181390681CC5B2032DC3
:101A0000D6DB208EFEF754FE00228B4B0B910A9002
:101A1000FEF7B0FD002201239B070D910C90FEF70D
:101A200041FD0022854B0F910E90FEF732FD119182
:101A30001090FEF7ABFE12901398FEF71EFE0F906B
:101A40001498FEF71AFE0E900F99FEF739FC7C49A8
:101A50001090FEF7F8FB1190FEF738FE60861298A2
:101A6000FEF780FE0F910E90208EFEF721FE0022E1
:101A7000714B03910290FEF77DFD0791069013983C
:101A800000E0C9E0FEF7F9FD02901498FEF7F5FDBD
:101A900001900299FEF714FC0390FEF763FE059196
:101AA0000490079B069AFEF7EEFC0B910A90617C6E
:101AB000FF206930FEF75AFB0790FEF7E5FD09911C
:101AC00008900B9B0A9AFEF7EDFC0D910C900F9B72
:101AD0000E9AFEF74FFD11911090FEF757FE1290EF
:101AE000701E00280AD5617C721EFF2369335A4399
:101AF0001046FEF73BFBFF30693007E0617C721E49
:101B0000FF2369335A431046FEF730FB0E90FEF771
:101B1000A9FD1090617CFF206930FEF727FBC20F02
:101B2000111811904810FEF79DFD0E901299FEF7C6
:101B300031FB0F901099FEF72DFB12901298159023
:101B400004E040491598FEF776FB15903D4915983D
:101B5000FEF742FEF5D32078012842D1617CFF20B8
:101B60006930FEF703FBFF216931081A1090FEF778
:101B700079FD11901599FEF725FE11D8617CFF20A3
:101B80006930FEF7F3FAFF216931081A401E1190FF
:101B9000FEF768FD1590002E02D17F20C00515903C
:101BA000617CFF206930FEF7E1FAFF216931081AF4
:101BB0000D90FEF757FD0F90608AFEF75EFD0D90C9
:101BC0001599FEF740FB0E900F99FEF779FB7F21E8
:101BD000C9051090FEF7DEFA1190FEF790FDA08582
:101BE00026E0608AFEF749FD0E901599FEF72BFB63
:101BF00014490F90FEF764FB7F21C9051090FEF792
:101C0000C9FA1190FEF77BFDA085A08D618A8842FC
:101C10000EDD608AA0850BE00020A085617C282075
:101C2000005D2346343322461832119000F00CF840
:101C30001FB0F0BDBC000020000059400000104063
:101C40000000C8420000B443FFB581B01F46398888
:101C5000019881427EDD002038800026B0E00398A4
:101C6000845D062060435949095A06206043574A5B
:101C700080184088081A05B2204600F0D9F900B251
:101C800000905348002141564842854242DB50486B
:101C9000002141568D423DDC60004E49085A4019F2
:101CA00000B261004B4A505200F084F96100494A89
:101CB000515E884210DC0620604344494018408849
:101CC000401C81B206206043404A801841800020B9
:101CD0006100404A505217E000F06CF94042610048
:101CE0003C4A515E88420FDD062060433749401868
:101CF0004088401E81B206206043344A80184180EB
:101D000000206100334A50520020334908553349BE
:101D1000085553E02E4800214156484285422DDAAD
:101D20002D48005D401C2C490855085D2C49097858
:101D3000FEF71CFA002941D12748015D28480078A8
:101D4000284A12785043814208DB00202249085576
:101D5000012000E038E0244908702FE006206043AD
:101D60001A49401840881A4900228A56801A81B2BE
:101D700006206043154A801841801FE01448002166
:101D800041568D421ADD1548005D401C1349085527
:101D90000846005D202811D1002008550C4908563E
:101DA000C10F09184A1006216143084BC918498818
:101DB00051188AB206216143C9184A80701CC6B204
:101DC0000298864200DA4AE705B0F0BDBC00002068
:101DD00050000020AC000020170000203700002039
:101DE0008D0000208C000020A200002070B51B4850
:101DF000057800BF00F038F800240DE006206043AD
:101E00001749095A06206043154A80184180204628
:101E100000F06EFD601CC4B2124800788442EDDB15
:101E20002846691ECDB20028E4D100F0A7F800F0E2
:101E300011F9054600BF00F017F8002404E0204621
:101E400000F03CF8601CC4B2064800788442F6DB1F
:101E50002846691ECDB20028EDD170BD8E0000204D
:101E6000BC0000209000002000B50022104800783F
:101E70004006400E0E4908700E48C0680121084314
:101E80000C49C8600CE001F00BF80B48C06B012155
:101E900008430949C863501CC2B2642A00DB05E04C
:101EA00003480078802108400028ECD000BF00BD26
:101EB0000E000020002202400003004070B50446DE
:101EC000062060432C49095A062060432A4A80189C
:101ED00080880D1A204600F0ABF80646B54202DCB9
:101EE0007042854209DA062060432349095A0620D8
:101EF0006043214A8018818033E07010A84203DBE0
:101F000070104042A84216DD062060431A4940186E
:101F1000818806206043184A801880884010091A7A
:101F200006206043105A4010081881B20620604312
:101F30008018818015E0062060430F494018818891
:101F4000062060430C4A80188088C010091A0620B9
:101F50006043105AC010081881B2062060438018F0
:101F60008180062060430449401881880620604330
:101F7000014A115270BD0000BC00002000200AE0A0
:101F800006214143064A525A06214143044BC918CF
:101F90008A80411CC8B2034909788842F0DB704747
:101FA000BC0000209000002001460148405C7047C2
:101FB0003F0000200148808B80B2704770470008C6
:101FC00010B502460C46230000F089FF07050A10F1
:101FD000161A1E242A000A2050431249085C10BD1C
:101FE0000A2050430F4940188078F8E70A205043F0
:101FF0000C494018C078F2E71046FFF7D5FFEEE72E
:102000000948008DC0B2EAE70A205043054940184C
:102010004078E4E70A205043024940184079DEE75F
:102020000020DCE7B4470008704700080120704733
:1020300001460A204843064A8018007A02020A2014
:102040004843034BC018407A101880B27047000014
:10205000B44700080148007C704700007047000842
:102060000148007870470000A200002001460A20C5
:102070004843024A8018007970470000B4470008BE
:1020800010B5032102480078FEF770F8C0B210BD09
:102090004F00002070B505462846FFF7C9FF0446EB
:1020A000E0000A21FEF762F884B2204670BD00000D
:1020B00001480078401070474F00002010B500F034
:1020C000B9FD10BD10B50120FEF70CFF5348C068E4
:1020D0000121090488435149C86000205049087013
:1020E000504908705049087000F0BCF800F094FCAA
:1020F0004A48C068802108434849C8600021084612
:10210000FFF75EFF441C21467D204001FEF72EF8BC
:10211000464908800020FFF7A9FF44490988484341
:1021200080B23E49C86102210020FFF749FF000745
:1021300000093A4909690F221206914308433749B9
:10214000086100210846FFF73BFF0007000C3349F8
:10215000C9680F221203914308433049C860062121
:102160000020FFF72DFF80072C49096989008908A5
:1021700008432A49086103210020FFF721FF0002DC
:10218000264909697F225202914308432349086185
:1021900005210020FFF714FF800780081F49096907
:1021A00003221207914308431C49086101210020C2
:1021B000FFF706FF19490969090A09020843174987
:1021C000086104210020FFF7FBFE00280BD0134814
:1021D000C068202188431149C8600846C068402172
:1021E00008430E49C8601F20002805DBC206D20E36
:1021F000012191400E4A116000BF0848C0681021BB
:1022000008430649C8600B4801780120884003490B
:102210000860FFF7EBFD00F00FF810BD0022024050
:10222000A20000209D0000200E0000209E00002043
:1022300000E100E00F00002000200AE006214143F9
:10224000064A525A06214143044BC9184A80411C90
:10225000C8B2034909788842F0DB7047BC0000200F
:102260009000002000200DE000210E4A11540E4A7B
:1022700011540E4A115442000D4B99520D4A1154FB
:10228000411CC8B20C4909788842EDDB00210B4A99
:102290001160FF210A4A117000210A4A11800A4A7E
:1022A000117070471F000020170000202700002039
:1022B000AC0000202F00002090000020940000209F
:1022C000A4000020A6000020A20000200148007900
:1022D000704700007047000870B505464B4800780D
:1022E000032820DB0020494908704948007800286D
:1022F00011D100240BE00620604346494018818834
:1023000006206043434A80184180601CC4B24248A2
:1023100000788442EFDBFFF7A5FF00203F490870FB
:102320003B49087070BD3E480078401C3C4908702D
:1023300008460078A84204D1FFF720FE0020394962
:10234000087037480078A8425DDD00242FE00620A1
:1023500060433049095A062060432E4A801880881D
:10236000081A06B22A48007800280DD12E4800210C
:1023700041568800B04215DA2B48002141564842A8
:102380008000B0420EDD16E0274800214156C8000B
:10239000B04207DA2448002141564842C000B0420A
:1023A00000DD08E02046FFF789FD601CC4B21A4832
:1023B00000788442CBDB00BF17480078844204D108
:1023C00018480078401C17490870E800144909783B
:1023D000884218DC002012490870144908700B4824
:1023E0000078401C09490870A8000E490978884205
:1023F00009DC002005490870FFF71EFFFFF732FFD8
:1024000000200649087000BF8CE70000A3000020F0
:1024100051000020BC00002090000020A2000020FD
:10242000A8000020A400002050000020A1000020EF
:102430000348C068012108430149C8607047000093
:102440000022024070B500260020154908700025C2
:1024500010E001262846FFF731FD2846FFF714FA61
:10246000002800D00026012E02D1284600F022F8D4
:10247000681CC5B20B4800788542EADB002407E0FF
:1024800036216143084A8818FFF734FA601CC4B249
:10249000064800788442F3DB0548006870BD000000
:1024A000A000002090000020560000209C0000208A
:1024B00094000020FEB5044606206043F349095A03
:1024C00006206043F14A80184088081A07B20120AC
:1024D000A040EF4908602046FFF7AAFD00B2009037
:1024E0000098874201DB012600E00026012E7DD105
:1024F000E848005DFA2804DAE648005D401CE5493A
:102500000855E5480068E24909680840002879D183
:10251000E24800780190FFF789FD002814D00026DA
:10252000002507E0DB48405D012801DB701CC6B2D6
:10253000681CC5B2DA4800788542F3DB032E03DB62
:1025400001980F30C0B20190D248015D01988142DC
:1025500058DB0026FFF7BAFE00282BD100250BE040
:10256000AC4207D0FFF78CFDCA49495D884201DCC7
:10257000012605E0681CC5B2C94800788542EFDB3A
:1025800000BFFFF753FD00282DD1002E2BD10025D1
:102590000BE0AC4207D0FFF773FDC249495D8842AA
:1025A00001DC012605E0681CC5B2BD480078854203
:1025B000EFDB18E0FFF73AFD002814D10190002569
:1025C00009E0B448405D022803DB0198401CC0B21A
:1025D0000190681CC5B2B24800788542F1DB0198D1
:1025E000032800DB0126012E05D101E015E009E0FA
:1025F0000120AD490870A8480068A549096808434A
:10260000A54908600020A9490855A9490855610055
:10261000A84A5052A849085535E12046FFF73AFD2F
:10262000B84209DA9F48005DFA280DDA9D48005D3E
:10263000401C9C49085507E0A0480078401C9F4971
:1026400008700020974908559D480021415648428E
:10265000874246DB9A48002141568F4241DC0020E8
:1026600092490855944908558B48006800281ED1A6
:1026700060009049085AC01900B261008D4A50525A
:10268000FFF798FC61008B4A515E884210DC0620FF
:1026900060437E4940184088401C81B20620604358
:1026A0007A4A8018418000206100824A505281E0BD
:1026B000FFF780FC404261007E4A515E884279DD2E
:1026C00006206043714940184088401E81B20620B0
:1026D00060436E4A8018418000206100754A505264
:1026E00068E0774800214156484287423ADA6F480D
:1026F000005D401C6D49085500206F4908556B4925
:10270000085D70490978FDF731FD002922D167483D
:10271000015D6C4800786C4A12785043814208DBB6
:10272000002062490855012068490870684908700E
:1027300010E0634900200856C10F09184A1006210D
:102740006143524BC9184988891A8AB206216143EC
:10275000C9184A805F480078A0422BD1FF205D490C
:10276000087027E05648002141568F4222DD0020A4
:102770004E4908554848006800281BD14E48005D66
:10278000401C4D4908550846005D202812D1002004
:1027900008554B490856C117890F09188A10062198
:1027A00061433A4BC918498851188AB206216143DE
:1027B000C9184A8038480068354909680840002827
:1027C00038D000988110401AB8422DDD3848005D9D
:1027D000401C37490855FFF76BFC0190002507E0C6
:1027E0002C48405D012801DB701CC6B2681CC5B2D4
:1027F0002B4800788542F3DB032E02DB2748007864
:1028000001902B48015D019881423CDB0020284962
:102810000855214800681E49096888431E49086018
:1028200000201C4908552EE02148005D401E20492B
:10283000085528E000201749085517480068002867
:1028400002D1204600F054F815480078401EA042FE
:1028500000D0FEBD1948007811490978884200DA95
:10286000F7E7002506E00B48405D002800D0012670
:10287000681CC5B20A4800788542F4DB002E02D1FC
:1028800000200949087000BFE3E70000BC000020F9
:10289000980000201F000020940000204F0000201E
:1028A000900000202F000020A10000201700002031
:1028B00027000020AC00002037000020A0000020EE
:1028C000500000208C0000208D000020A20000207D
:1028D00051000020A4000020012001490870704729
:1028E000A20000200148808A80B27047704700082B
:1028F00070B504462046FFF757FB05461B4909887B
:1029000048000A21FDF732FC06462046FFF7AEFBE1
:10291000464306206043164940184088864208DD39
:10292000022D21DBA81E1349085501201249087009
:102930001AE00E490988CA00501A0A21FDF716FC50
:1029400006462046FFF792FB4643062060430849AF
:1029500040184088864207DAFC2D05DCA81C054992
:10296000085501200449087070BD00009E00002039
:10297000BC0000203F000020A200002070B5002015
:10298000002300210022FF24E40200BF0DE0012506
:1029900085402540002D06D01B4DA854551CEAB299
:1029A000082A00DB03E0451CE8B22028EFDB00BF6B
:1029B000002122E0002017E0002311E036254D43DE
:1029C000124EAD196D1C2D5C0F4EF65CB54205D153
:1029D00036254D430D4EAD1918352B545D1CEBB209
:1029E0009342EBDB451CE8B236254D43074EAD194B
:1029F0006D7C8542E0DC4D1CE9B2054D2D78A94285
:102A0000D8DB044D2A7070BD0F0000205600002056
:102A10009C0000209000002030B50120164908706D
:102A20001648007B164908701448006C40B21549DE
:102A30000870FFF7A3FF002508E00A206843124949
:102A40004018807911494855681CC5B21048007873
:102A50008542F2DB00200F490880002407E00021B6
:102A6000362060430C4A8018C185601CC4B20248FD
:102A700000788442F3DB30BD9C00002070470008E2
:102A80004F00002050000020B44700083F00002005
:102A9000900000205200002056000020F8B50026CB
:102AA00000200090FFF7DCFA002871D1FFF7CAFC84
:102AB000074600250FE00120A8403840002808D034
:102AC0005348415D01208840009908430090701CE4
:102AD000C6B2681CC5B24F4800788542EBDB022EB7
:102AE0000EDB01204C490870032E02DBFFF7F4FED9
:102AF00006E0FFF7EBFB002802D0002046490870F3
:102B00004548007800280CD10098002805D043489B
:102B10000088401C414908800AE000203F490880A5
:102B200006E03F480088401C3D4908800020009096
:102B3000002447E0362060433A494018808D002841
:102B400027D0362060434018818D36206043354AB7
:102B50008018408D81420BD13620604311464018C9
:102B6000C08D401C81B2362060438018C18516E0BC
:102B7000362060432B494018818D36206043294A16
:102B8000801841850021362060438018C18506E009
:102B900036E0002136206043224A8018C185FFF7C5
:102BA000A1FE362161431F4A8918C98D884207DC7E
:102BB000FFF792FE0021362060431A4A8018C18533
:102BC000601CC4B2184800788442B3DBFFF78AFE69
:102BD00012490988884204DCFFF77EFE00200F4975
:102BE00008800F480088FF212D3188420DDDFFF756
:102BF00073FE01200D49087000200949088004E097
:102C00000B49098CC8B2FFF767FB0098F8BD0000BC
:102C10000F00002090000020A100002052000020A2
:102C200054000020560000209C000020510000208D
:102C30007047000810B500244948C06802210843C5
:102C40004749C8600846806981B246480078062234
:102C50005043454A115243480078401C414908708E
:102C60000846007841490978884209DB00203D493F
:102C700008703F480078802108433D49087000E013
:102C8000012438480078FFF7F1F93A4909884843A8
:102C900080B23349C861022132480078FFF790F9C9
:102CA000000700092E4909690F22120691430843C3
:102CB0002B49086100212B480078FFF781F90007B4
:102CC000000C2749C9680F22120391430843244985
:102CD000C860062123480078FFF772F98007204971
:102CE00009698900890808431D49086103211D48B5
:102CF0000078FFF765F90002194909697F2252023D
:102D00009143084316490861052116480078FFF7EA
:102D100057F9800780081249096903221207914375
:102D200008430F49086101210E480078FFF748F970
:102D30000B490969090A09020843094908610E4853
:102D400008490978415C0120884005490860012C48
:102D500005D10846C068012108430149C86010BD7B
:102D6000002202409D000020BC00002090000020B6
:102D70000E0000209E0000200F00002070477047CA
:102D8000002904D0026880231A43026003E002682D
:102D9000014B1A40026070477FFF000010B5002A07
:102DA00003D003690B43036104E00369CC43A4B27D
:102DB0002340036110BD10B5002A03D003690B4303
:102DC000036104E00369CC43A4B22340036110BD56
:102DD00030B5024610680A4B18400B884C882343D4
:102DE0008C882343184310609068000A0002CB8847
:102DF0008C686400FE252C4023431843906030BD4E
:102E0000FC3FFFFF10B50A46074B984200D100E097
:102E100000BF01680324A4030B46A34319460B46D5
:102E200013431946016010BD6000024070477047AF
:102E300010B5044616480078FF2823D00120154914
:102E40000870134804781448007800281FD1112C0A
:102E500009D110211148FDF767FF012189020F48B0
:102E6000FDF762FF0AE0122C08D120210B48FDF784
:102E70005BFF0121C9020948FDF756FF0120064901
:102E8000087004E00020034908700349087010BD71
:102E90000000002001000020080000200012014076
:102EA0007D20C00001E0411E88B20028FBD17047A0
:102EB0002021020C01D010211046020A01D0104638
:102EC0000839020901D01046091F820801D01046B6
:102ED000891E420801D0881E7047081A704730B416
:102EE0007446641E2578641CAB4204D3635D5B00AA
:102EF000E31830BC18471D46F8E70000002805DB42
:102F0000C206D20E01219140014A116070470000B3
:102F100000E100E010B5002819DB1A4A03231B0268
:102F2000D21883089B00D2588307DC0EFF23A340EE
:102F30009A438B071B0E8407E40EA3401A43114BE0
:102F4000032424021B198408A4001A5118E00E4A15
:102F500003071B0F083B9B089B00D2588307DC0E1E
:102F6000FF23A3409A438B071B0E8407E40EA34064
:102F70001A43054B0407240F083CA408A4001A5167
:102F800010BD000000E100E01CED00E002E008C818
:102F9000121F08C1002AFAD170477047002001E0D3
:102FA00001C1121F002AFBD170470000FDF7D6FEB9
:102FB00000213248FEF7A0FB3220FDF70FFEFFF79D
:102FC00081F85AE02E4800780300FFF788FF0504D7
:102FD0001F405354550010212A48FDF783FE01215C
:102FE00089022848FDF77EFE0121C9022548FDF728
:102FF00079FE80212448FDF775FEFF21013122482A
:10300000FDF770FE01201E49087035E01F48C06BB7
:10301000012108431D49C8631D48007880210840EC
:10302000002813D01A4800784006400E184908704E
:10303000FFF734FD1749086008460068FDF7DEFD1C
:1030400015480078FFF7F4FEFFF7F2F914E07D2051
:10305000C000FDF7EDFD20210A48FDF743FE0020EA
:10306000FDF7F4FCC820FDF7E3FD20210548FDF73E
:103070004AFE01E000E000BF00BFA3E7800102407C
:103080000200002000120140001001400003004037
:103090000E000020040000200000002050C30400A7
:1030A00050C3040050C30400B9010200EF01020044
:1030B0000D020600EF0102000D020400950204005B
:1030C000EF010C004A0102004A010200B9010600AA
:1030D00089010200B90104000D02040089010C00FD
:1030E0004A0104005E0106004A0102005E0104007C
:1030F0000D0204004A01080050C302000D02020044
:103100000D0202000D020200EF0106005E01020046
:103110005E010400EF010400EF01080050C3040049
:10312000B9010200EF0102000D020600EF010200EA
:103130000D02040095020400EF010C004A01020098
:103140004A010200B901060089010200B901040028
:103150000D02040089010C00260102004A01020050
:103160005E0104000D020200EF0104000D020600E2
:103170004D0202004D020200950202000D020A00FB
:103180000D020200EF010200B9010200B9010200C4
:10319000EF01040089010400B9010C000D020200D6
:1031A0004D020200950206004D0202009502040045
:1031B000120304004D020C00890102008901020083
:1031C0000D020600EF0102000D020400950204004A
:1031D00095021000B9010200EF0102000D02040087
:1031E000EF0104004D0202004D0202000D02060034
:1031F00089010A00BC020400950204009502040043
:103200000D02040095020C009502040072030800F0
:103210001203040012030400950202004D02020092
:103220000D02080050C302000D0202004D0204000E
:103230000D0202004D0202004D02040012030400C0
:1032400095020C00950204007203080012030800A6
:10325000950202004D0202000D02080050C3020058
:103260000D0202004D0204000D0202004D02060094
:10327000EF010400B9010C0050C30400FF0000007E
:10328000F80000001900000006010000190000000D
:1032900026010000190000004A010000190000008A
:1032A000A5000000320000008901000019000000A4
:1032B0004A010000190000004A010000320000002D
:1032C00050C3000096000000F80000001900000044
:1032D000060100001900000026010000190000008E
:1032E0004A010000190000009300000032000000B5
:1032F00089010000190000004A01000019000000C7
:1033000026010000190000004A0100001900000019
:10331000060100001900000026010000190000004D
:10332000F80000001900000006010000190000006C
:10333000C40000001900000050C300001900000084
:10334000F80000001900000006010000190000004C
:1033500026010000190000004A01000019000000C9
:10336000A5000000320000008901000019000000E3
:103370004A0100004B00000050C30000960000000E
:10338000F80000001900000006010000190000000C
:1033900026010000190000004A0100001900000089
:1033A00093000000320000008901000019000000B5
:1033B0004A01000019000000260100001900000069
:1033C0004A01000019000000060100001900000079
:1033D000260100001900000050C300001400000086
:1033E000260100003200000026010000320000002B
:1033F0000601000019000000260100003200000054
:103400002601000032000000060100001900000043
:1034100026010000320000004A01000032000000D6
:1034200089010000320000004A0100003200000063
:1034300026010000320000002601000032000000DA
:103440000601000019000000260100003200000003
:1034500026010000320000000601000019000000F3
:1034600026010000190000004A01000019000000B8
:1034700026010000190000000601000019000000EC
:10348000DD0000006400000050C300000A000000DE
:10349000260100003200000026010000320000007A
:1034A00006010000190000002601000032000000A3
:1034B0002601000032000000060100001900000093
:1034C00026010000320000004A0100003200000026
:1034D00089010000320000004A01000032000000B3
:1034E000260100003200000026010000320000002A
:1034F0004A0100001900000026010000320000000F
:1035000006010000320000002601000064000000F7
:1035100050C300003200000026010000320000000D
:103520002601000032000000060100001900000022
:1035300026010000320000002601000032000000D9
:103540000601000019000000260100003200000002
:103550004A01000032000000890100003200000032
:103560004A01000032000000260100003200000085
:1035700026010000320000004A010000190000008E
:1035800026010000320000000601000032000000A9
:10359000DD0000006400000050C300000A000000CD
:1035A0004A01000019000000260100001900000077
:1035B00006010000190000002601000019000000AB
:1035C00006010000640000004A010000190000002C
:1035D000260100001900000006010000190000008B
:1035E0002601000019000000060100003200000062
:1035F00006010000320000008901000019000000EF
:103600004A01000019000000260100001900000016
:10361000060100001900000026010000190000004A
:103620000601000064000000060100009600000092
:1036300050C300001E000000060100003200000020
:1036400026010000320000004A01000032000000A4
:103650000601000032000000B90100003200000045
:103660008901000019000000B901000019000000E4
:10367000B901000032000000B90100003200000072
:103680000601000019000000EF01000032000000F8
:10369000B901000019000000EF010000190000004E
:1036A000EF0100006400000050C3000005000000AE
:1036B000EF01000032000000B90100001900000015
:1036C000EF01000019000000EF01000032000000CF
:1036D0004A010000320000000D0200001900000045
:1036E0004D020000190000000D020000190000004A
:1036F000EF01000019000000B901000032000000D5
:103700008901000032000000B90100003200000011
:103710008901000019000000B90100001900000033
:10372000B901000019000000890100001900000023
:10373000B901000019000000890100001900000013
:10374000B9010000320000008901000019000000EA
:1037500026010000190000002601000019000000E9
:1037600089010000320000008901000032000000E1
:103770004A010000640000004A01000064000000EB
:1037800050C30000190000000601000032000000D4
:1037900026010000320000004A0100003200000053
:1037A0000601000032000000B901000032000000F4
:1037B0008901000019000000B90100001900000093
:1037C000B901000032000000B90100003200000021
:1037D0000601000019000000EF01000032000000A7
:1037E000B901000019000000EF01000019000000FD
:1037F000EF0100006400000050C30000050000005D
:10380000EF01000032000000B901000019000000C3
:10381000EF01000019000000EF010000320000007D
:103820004A010000320000000D02000019000000F3
:103830004D020000190000000D02000019000000F8
:10384000EF01000019000000B90100003200000083
:103850008901000032000000B901000032000000C0
:1038600095020000190000009502000019000000F8
:1038700095020000320000008901000032000000C3
:10388000B90100003200000095020000190000009C
:1038900095020000190000009502000019000000C8
:1038A0008901000032000000B90100001900000089
:1038B000B901000064000000B901000064000000CC
:1038C000B90100006400000050C3000019000000AE
:1038D0000D020000320000004D0200003200000026
:1038E0009502000032000000720300001900000081
:1038F0001203000019000000120300003200000053
:1039000072030000190000001203000019000000FB
:1039100012030000320000007203000019000000D2
:103920001203000019000000120300003200000022
:103930004D0200001900000095020000190000006F
:103940009502000032000000720300001900000020
:1039500012030000190000001203000032000000F2
:10396000720300001900000012030000190000009B
:103970001203000032000000720300001900000072
:1039800012030000190000001203000019000000DB
:103990009502000032000000950200003200000095
:1039A0004D020000320000000D020000190000006E
:1039B000B901000019000000B90100001900000061
:1039C0000D02000032000000B901000019000000E3
:1039D0004D020000190000000D0200001900000057
:1039E000B901000032000000B90100001900000018
:1039F0000D020000320000000D0200003200000045
:103A0000950200006400000095020000190000000B
:103A1000BC02000019000000950200003200000006
:103A200095020000190000004D0200003200000065
:103A30004D0200003200000050C3000019000000D9
:103A40000D020000320000004D02000032000000B4
:103A5000950200003200000072030000190000000F
:103A600012030000190000001203000032000000E1
:103A7000720300001900000012030000190000008A
:103A80001203000032000000720300001900000061
:103A900012030000190000001203000032000000B1
:103AA0004D020000320000009502000032000000CC
:103AB000720300001900000012030000190000004A
:103AC0001203000032000000720300001900000021
:103AD0001203000019000000120300003200000071
:103AE000720300001900000012030000190000001A
:103AF00012030000320000009502000032000000B6
:103B000095020000320000004D020000320000006B
:103B10000D02000019000000B901000019000000AA
:103B2000B9010000190000009502000032000000F9
:103B300095020000320000004D020000320000003B
:103B40000D02000019000000B9010000190000007A
:103B5000B9010000190000000D0200003200000051
:103B60000D020000320000000D02000064000000A1
:103B70000D0200006400000050C300000A000000B5
:103B80002601000032000000260100003200000083
:103B900006010000190000002601000032000000AC
:103BA000260100003200000006010000190000009C
:103BB00026010000320000004A010000320000002F
:103BC00089010000320000004A01000032000000BC
:103BD0002601000032000000260100003200000033
:103BE000060100001900000026010000320000005C
:103BF000260100003200000006010000190000004C
:103C000026010000190000004A0100001900000010
:103C10002601000019000000060100001900000044
:103C2000DD0000006400000050C300000A00000036
:103C300026010000320000002601000032000000D2
:103C400006010000190000002601000032000000FB
:103C500026010000320000000601000019000000EB
:103C600026010000320000004A010000320000007E
:103C700089010000320000004A010000320000000B
:103C80002601000032000000260100003200000082
:103C90004A01000019000000260100003200000067
:103CA0000601000032000000260100006400000050
:103CB00050C3000032000000260100003200000066
:103CC000260100003200000006010000190000007B
:103CD0002601000032000000260100003200000032
:103CE000060100001900000026010000320000005B
:103CF0004A0100003200000089010000320000008B
:103D00004A010000320000002601000032000000DD
:103D100026010000320000004A01000019000000E6
:103D20002601000032000000060100003200000001
:103D3000DD0000006400000050C300000A00000025
:103D40004A010000190000002601000019000000CF
:103D50000601000019000000260100001900000003
:103D600006010000640000004A0100001900000084
:103D700026010000190000000601000019000000E3
:103D800026010000190000000601000032000000BA
:103D90000601000032000000890100001900000047
:103DA0004A0100001900000026010000190000006F
:103DB00006010000190000002601000019000000A3
:103DC00006010000640000000601000096000000EB
:103DD00050C300001E000000060100003200000079
:103DE00026010000320000004A01000032000000FD
:103DF0000601000032000000B9010000320000009E
:103E00008901000019000000B9010000190000003C
:103E1000B901000032000000B901000032000000CA
:103E20000601000019000000EF0100003200000050
:103E3000B901000019000000EF01000019000000A6
:103E4000EF0100006400000050C300000500000006
:103E5000EF01000032000000B9010000190000006D
:103E6000EF01000019000000EF0100003200000027
:103E70004A010000320000000D020000190000009D
:103E80004D020000190000000D02000019000000A2
:103E9000EF01000019000000B9010000320000002D
:103EA0008901000032000000B9010000320000006A
:103EB0008901000019000000B9010000190000008C
:103EC000B90100001900000089010000190000007C
:103ED000B90100001900000089010000190000006C
:103EE000B901000032000000890100001900000043
:103EF0002601000019000000260100001900000042
:103F00008901000032000000890100003200000039
:103F10004A010000640000004A0100006400000043
:103F200050C300001900000006010000320000002C
:103F300026010000320000004A01000032000000AB
:103F40000601000032000000B9010000320000004C
:103F50008901000019000000B901000019000000EB
:103F6000B901000032000000B90100003200000079
:103F70000601000019000000EF01000032000000FF
:103F8000B901000019000000EF0100001900000055
:103F9000EF0100006400000050C3000005000000B5
:103FA000EF01000032000000B9010000190000001C
:103FB000EF01000019000000EF01000032000000D6
:103FC0004A010000320000000D020000190000004C
:103FD0004D020000190000000D0200001900000051
:103FE000EF01000019000000B901000032000000DC
:103FF0008901000032000000B90100003200000019
:104000009502000019000000950200001900000050
:10401000950200003200000089010000320000001B
:10402000B9010000320000009502000019000000F4
:104030009502000019000000950200001900000020
:104040008901000032000000B901000019000000E1
:10405000B901000064000000B90100006400000024
:10406000B90100006400000050C300001900000006
:104070000D020000320000004D020000320000007E
:1040800095020000320000007203000019000000D9
:1040900012030000190000001203000032000000AB
:1040A0007203000019000000120300001900000054
:1040B000120300003200000072030000190000002B
:1040C000120300001900000012030000320000007B
:1040D0004D020000190000009502000019000000C8
:1040E0009502000032000000720300001900000079
:1040F000120300001900000012030000320000004B
:1041000072030000190000001203000019000000F3
:1041100012030000320000007203000019000000CA
:104120001203000019000000120300001900000033
:1041300095020000320000009502000032000000ED
:104140004D020000320000000D02000019000000C6
:10415000B901000019000000B901000019000000B9
:104160000D02000032000000B9010000190000003B
:104170004D020000190000000D02000019000000AF
:10418000B901000032000000B90100001900000070
:104190000D020000320000000D020000320000009D
:1041A0009502000064000000950200001900000064
:1041B000BC0200001900000095020000320000005F
:1041C00095020000190000004D02000032000000BE
:1041D0004D0200003200000050C300001900000032
:1041E0000D020000320000004D020000320000000D
:1041F0009502000032000000720300001900000068
:104200001203000019000000120300003200000039
:1042100072030000190000001203000019000000E2
:1042200012030000320000007203000019000000B9
:104230001203000019000000120300003200000009
:104240004D02000032000000950200003200000024
:1042500072030000190000001203000019000000A2
:104260001203000032000000720300001900000079
:1042700012030000190000001203000032000000C9
:104280007203000019000000120300001900000072
:10429000120300003200000095020000320000000E
:1042A00095020000320000004D02000032000000C4
:1042B0000D02000019000000B90100001900000003
:1042C000B901000019000000950200003200000052
:1042D00095020000320000004D0200003200000094
:1042E0000D02000019000000B901000019000000D3
:1042F000B9010000190000000D02000032000000AA
:104300000D020000320000000D02000064000000F9
:104310000D0200006400000050C300000A0000000D
:10432000B9010000190000009502000032000000F1
:1043300095020000320000004D0200003200000033
:104340000D02000019000000B90100001900000072
:10435000B9010000190000009502000032000000C1
:104360004D020000320000000D02000019000000A4
:10437000B901000019000000B90100001900000097
:104380000D020000320000000D02000032000000AB
:104390000D020000320000000D0200006400000069
:1043A00050C30000190000000D02000032000000A0
:1043B0004D020000320000004D0200001900000014
:1043C0009502000032000000720300001900000096
:1043D0001203000019000000120300003200000068
:1043E0007203000019000000120300001900000011
:1043F00012030000320000007203000019000000E8
:104400001203000019000000120300003200000037
:104410004D02000019000000950200001900000084
:104420009502000032000000720300001900000035
:104430001203000019000000120300003200000007
:1044400072030000190000001203000019000000B0
:104450001203000032000000720300001900000087
:1044600012030000190000001203000019000000F0
:1044700095020000320000009502000032000000AA
:1044800050C30000050000004D0200003200000093
:104490000D02000019000000B90100001900000021
:1044A000B9010000190000000D02000032000000F8
:1044B000B9010000190000004D02000019000000C1
:1044C0000D02000019000000B901000032000000D8
:1044D000B9010000320000000D02000032000000AF
:1044E0000D02000032000000950200006400000090
:1044F0009502000019000000BC0200001900000035
:104500009502000032000000950200001900000032
:104510004D020000320000004D0200003200000099
:104520000D020000640000004D0200006400000065
:1045300095020000640000007203000019000000F2
:1045400012030000190000001203000032000000F6
:10455000720300001900000012030000190000009F
:104560001203000032000000720300001900000076
:1045700012030000190000001203000032000000C6
:104580004D020000320000009502000032000000E1
:10459000720300001900000012030000190000005F
:1045A0001203000032000000720300001900000036
:1045B0001203000019000000120300003200000086
:1045C000720300001900000012030000190000002F
:1045D0009502000064000000950200003200000017
:1045E0004D020000320000000D0200001900000022
:1045F000B901000019000000B90100001900000015
:104600009502000032000000950200003200000018
:104610004D020000320000000D02000019000000F1
:10462000B901000019000000B901000019000000E4
:104630000D020000640000000D02000032000000C6
:1046400050C30000050000000D0200003200000011
:104650004D020000320000000D0200003200000098
:104660000D02000064000000B90100001900000004
:1046700095020000320000009502000032000000A8
:104680004D020000320000000D0200001900000081
:1046900072030000190000007203000019000000FE
:1046A0009502000032000000950200003200000078
:1046B0004D020000320000000D0200001900000051
:1046C00072030000190000007203000019000000CE
:1046D0000D020000320000000D0200003200000058
:1046E0000D0200006400000050C30000050000003F
:1046F000FF000000B9013200EF0132000D0232006C
:104700004D023200EF0132000D0232000D02640052
:1047100050C30A000D023200EF0132000D023200D8
:104720004D023200EF0132000D0232000D02640032
:1047300050C30A000D0232004D02320095023200D1
:104740004D023200950232004D02320095026400A3
:1047500095023200950232004D023200950264004B
:10476000120364009502640050C30A00FF000000B9
:104770000000000000000000000000000500000034
:104780000A000000B80B0000C80000006400000030
:104790000200000001000000000000000400000012
:1047A0000000000001000000FFFF0000FFFF00000C
:1047B00040000000040228040803300505E7040255
:1047C00028040803380506300402280408033205CB
:1047D0000615040228040803360505F2040228041D
:1047E000080340050676040228040803380506403D
:1047F00004022804080328050650040228040803BC
:104800002E0505FF2448000800000020AC00000031
:104810008C2F0008D0480008AC00002044040000A1
:104820009C2F0008000000000000000000000000B5
:104830000000000000000000000000000000000078
:104840000000000000000000000000000000000068
:104850000000000000000000000000000000000058
:104860000000000000000000000000000000000048
:1048700000000000000000000000010B0C0D0E0FF6
:1048800010000000000000000000000640001400BE
:1048900064000000000000000000000000000000B4
:1048A0000000010000000000000096000000000071
:1048B0000A0A2000000000000000000000000000C4
:1048C00000000000000000000000000000000000E8
:04000005080000C12E
:00000001FF
