:020000040800F2
:1000000088060020D9000008FF0000080101000850
:1000100003010008050100080701000800000000B6
:1000200000000000000000000000000009010008BE
:100030000B010008000000000D0100085519000820
:10004000490C00084D0C00084F0C00084B0C000830
:10005000D50E0008000000000F0A0008B9300008A3
:10006000CD3000085119000853190008290A00086A
:100070003D0A0008510A0008530A000869190008DF
:100080006D1900087D1900088D1900089D190008D8
:100090009F1900085D0C0008590C00080930000881
:1000A0000B3000080000000000000000000000000D
:1000B00000000000B9090008250A000849230008CB
:1000C0000448854600F048FC004800471D350008FC
:1000D000C046C046880600200E480F4901600F4800
:1000E0000F4901600F481049016010481049016034
:1000F0000C48104901601048804710480047FEE74F
:10010000FEE7FEE7FEE7FEE7FEE7FEE7FEE7FEE7C7
:10011000FEE700001030004010005FA0DC0300404C
:1001200001005FA000100240000080005C1002404F
:1001300060005FA00000000059190008C10000081D
:1001400030B50B46014600202022012409E00D466F
:10015000D5409D4205D31D469540491B25469540F7
:1001600040191546521E002DF1DC30BD70B500243B
:100170002546002801DA01244042002901DA012540
:100180004942FFF7DDFFAC4200D04042002C00D0D6
:10019000494270BDF8B502464A40D40F42004B00B8
:1001A00052085B089A4202D20246084611464A00AB
:1001B00023D0C30D4A00DDB2120EAD1A202D35DA60
:1001C00049020126490AF6058A19002C00D052423C
:1001D00020214F1B1146B9402A411018C20D9A42E6
:1001E00021D0002C17D0012D08DCDA05801AD20F9F
:1001F0008019D207DBB200F017FBF8BDDA05801AD0
:10020000012340001B06C01880185A428018CA0FEC
:100210001043490007E04908C2071143DA05801A74
:1002200080194008801800F0F7FAF8BD610001223B
:10023000511A001BF7E70122D2075140AAE7012219
:10024000D2075040A6E7024670B54A40D30FDB07FD
:1002500040002DD04A002AD0010E140E00021202D6
:100260000919400A520A8418E50104465443000A59
:10027000120A2E045043A4194219200CC543AA188F
:10028000120C0125AD03521C521912047F392404AB
:1002900000D0521C104301D44000491EC2B20C06CB
:1002A000C0092018401C4008802A02D003E000202A
:1002B00070BD40084000002900DA0020184370BDDE
:1002C00070B502464A40D50F40004A00ED0740088D
:1002D0005208002814D0002A12D0C40DD30D4102B8
:1002E0000120C0055202490A520AE41A09181218DC
:1002F0007D34914201D3641C00E04900002C01DAF6
:10030000002070BD0023914201D3891A03434008A5
:1003100049000028F7D100290AD0914202D10121D9
:10032000C90705E0914201D2012101E00121C94341
:10033000E005C018401900F06FFA70BDF0B507462F
:100340000846584087B0C00F049048000E46590038
:1003500040084908BC1A884105D2384631461E4635
:1003600017460B4602465800400810434DD0300D4A
:10037000039040055900400D490D0590401A029028
:10038000402873DA18030121000B09050843019086
:1003900004980092002806D01146019A4942002094
:1003A000904100910190029840210A1A0199009809
:1003B00000F0FEF905460C466B4607CB00F019FA33
:1003C000C0197141039A0E0D0023D71756401A46E3
:1003D0007A40164344D0049A002A2DD0029A012A6A
:1003E000039A15DC1205C01A914101263605001C3E
:1003F0007141D20F059ED2070093019202962A46C0
:10040000234600F057FA07B0F0BD38463146FAE708
:100410001605234A0F46B218C01AB7410121090533
:10042000001C4F4100187F41114618187941E20F16
:1004300010436D19644113E0E2076D081543640829
:10044000C2071443039A01261205C01A91413605CA
:10045000001C7141CE07400830434908C018514183
:100460002A46234600F019FACDE7FFE70498012257
:100470004000C117121A00238B4104983146C4175B
:10048000381AA141EEE730B40124E407634030BCE0
:1004900054E730B40124E407614030BC4EE700006B
:1004A0000000E0FFF0B51FB488B00B990998002454
:1004B00048400999C00F490049080991C0070B99A4
:1004C0000090490049080B9109990898A6460843ED
:1004D0001CD00B990A98084318D0099801244000B1
:1004E000420D4800410D099824050003000B2043EC
:1004F00009900B980003000B20430B9050181C49E7
:100500004018002201901446104605E000200146E4
:100510000DB0F0BD032801DA034600E003239C463A
:10052000C11A0AAE0AE05F0008ADED5B4F00F75B51
:100530007D430027AA187C41491C5B1E6145F2DD02
:10054000410004AB5A522104120C0A43240C401CF3
:100550000828DFDB01980290009970460191009015
:10056000059B049A0799069800F0A4F9D0E70000CB
:100570000DFCFFFFF0B50C465C4085B0E40FE407CE
:1005800003944C000026640859009446490802462A
:100590000296224321D062460A431ED06200570DC4
:1005A0004A000E032303550D012402462C4924055D
:1005B000781B1B0B360B40182343264361460090E3
:1005C0001C46501AB44103D30098401C009002E02E
:1005D000921800985B41002803DA0020014605B01C
:1005E000F0BD0020012109050746864611E064465A
:1005F0001D46141BB54106D36546521BB3417446D4
:1006000007430C43A646CD074008490828439218E3
:100610005B4105460D43EAD11046184313D06046AE
:10062000194650407140084306D06046101AB34145
:1006300006D20122002306E000220123DB0702E0AC
:100640000122D2435310009874460105381C6141C1
:10065000029C039D0019694100F01FF9BFE70000EB
:10066000FD030000C217C10F504010B54018CA0763
:100670009623002100F0D8F810BD10B50022962373
:10068000114600F0D1F810BD0EB5C217C10F504091
:10069000CA0740180021054B0293019200910A46B7
:1006A0000B4600F007F903B000BD00003304000062
:1006B0000EB505490291002100910A460B460191B1
:1006C00000F0F8F803B000BD33040000C20F410091
:1006D00040020123400ADB05D207090EC0187F291A
:1006E00001DA00207047962903DC9623591AC84086
:1006F00001E096398840002AF4D04042704741001A
:1007000040020122400AD205090E80187F2901DA31
:1007100000207047962903DC9622511AC840704782
:10072000963988407047C20FD207400040080BD06E
:10073000C10D0723DB01C91840020905400A114316
:10074000C208400711437047002001467047CB0F95
:10075000DB07490010B5490802460A4307D00A0DD5
:1007600007240903E401090B121B002A01DC002005
:1007700010BDC900440F0C43C100E018D205801819
:1007800000F04AF810BD00000122D207002800DB6B
:10079000101A002900DB511A814270470122D2074A
:1007A000002800DB101A002900DB511A884270472C
:1007B00010B5202A04DB0146203A9140002010BDEC
:1007C000914020239C1A0346E3401943904010BDFA
:1007D00010B5202A04DB0846203AD040002110BD85
:1007E0000B46D340D0402024A21A9140084319461A
:1007F00010BD10B5202A06DBCB170846203A104161
:10080000C1170B4306E00B461341D0402024A21A27
:1008100091400843194610BD002904DA401C4900E4
:1008200001D140084000704770B40024050C05D188
:100830001024000402D1002921D01124050E01D179
:1008400000020834050F01D10001241D850F01D1DC
:100850008000A41C002801DB4000641C002908D093
:1008600020252E1B0D46F540A14000D00121294333
:10087000084301061B1B000ADB1D02D5002070BCCB
:100880007047DB05181880180029F8DA401C490069
:10089000F5D170BC40084000704710B5002B08DA55
:1008A0000024401C614192185B411A4301D1400869
:1008B000400010BDF0B51FB482B005460C0003D057
:1008C000084602F0ADFD02E002F0AAFD203002462B
:1008D000009021462846FFF76BFF049B059A0446CB
:1008E0000F4618431143084314D0184610431BD039
:1008F000009840210A1A18460599FFF769FF054636
:100900000E46009A05990498FFF752FF084305D058
:10091000012004E02046394607B0F0BD0020C11791
:1009200005430E432C43374300990E986305401A44
:100930007905E40A00220C43FD0A0A3002D50020A2
:100940000146E9E70105101969410C9C0D9D00194C
:100950006941FFF7A2FFDFE7064C0125064E05E0DF
:10096000E36807CC2B430C3C98471034B442F7D3D0
:10097000FFF7AAFBC4360008E43600084160704760
:10098000002905D002680123DB031A43026004E05A
:1009900002680123DB039A4302607047002905D0F7
:1009A000026801231B031A43026004E0026801236A
:1009B0001B039A430260704710B501210148FFF7FD
:1009C000DDFF10BD10210240002A03D003680B4355
:1009D000036002E003688B430360704710B5026850
:1009E000054B1A408C680B6823438C8923431A43B8
:1009F00002604B68C36010BDE0F7C8FF0A4601689B
:100A0000490949010B461343194601607047704775
:100A100010B5044622460221014801F051F810BDEC
:100A2000800102407047000010B502F005FC0F2164
:100A3000014800F00FF810BD0008014010B502F0A9
:100A40000FFC0F21014800F005F810BD40080140DF
:100A50007047704701617047002904D08268802385
:100A60001A43826003E0826880239A438260704761
:100A7000002A03D083680B43836002E083688B43C2
:100A8000836070470246002013690B40002B01D0A1
:100A9000012000E000207047002A03D083680B4348
:100AA000836002E083688B438360704710B582687F
:100AB0000B4B1A400B884C8823438C882343CC88EB
:100AC00023430C8923434C8923430C6923431A4352
:100AD00082604B6903608B694360CB68C36010BD63
:100AE00020007FFFC1607047FF2101310161704725
:100AF0000A49096801225204891A05D0891A07D1C6
:100B00001221074A117007E01121054A117003E014
:100B1000FF21034A117000BF00BF7047040000208E
:100B20000000002070B50446002504E07D20C000D0
:100B300000F004F86D1CA542F8DB70BD10B504464A
:100B40000121084800F02EFF00BF06484068A0427F
:100B5000FBD30020034948600021024800F022FF37
:100B600010BD00004001024070B54D88022D04D137
:100B7000056A0E883543056216E04D88012D08D1BF
:100B8000056A0E88B5430562056C0E883543056419
:100B90000AE04D88002D07D1056A0E88B54305622D
:100BA000056C0E88B5430564036E002210E0012435
:100BB00094400D882540002D09D056000325B540EE
:100BC0001E46AE4333468D885600B5402B43521C1B
:100BD000102AECD3036670BD08B500900AE0CA077E
:100BE000D20F002A02D00022009B1A704910009AEE
:100BF000521C00920029F2D108BD08B500900AE00D
:100C0000CA07D20F002A02D00122009B1A70491095
:100C1000009A521C00920029F2D108BD18B5034673
:100C20001033009300220CE0CB07DB0F002B04D025
:100C3000009B1B78DA43009C22704910009B5B1CD0
:100C400000930029F0D118BD704770477047704776
:100C500010B500F0E1FB10BD7047000010B5032196
:100C6000014800F003F810BD0002024081607047A7
:100C7000002904D0026880231A43026003E002685E
:100C8000014B1A40026070477FFF0000002904D02A
:100C9000426980231A43426103E04269014B1A40D2
:100CA000426170477FFF0000426933239A434261EB
:100CB0008A880B881A434B881A4343691A43426156
:100CC000704710B5002A03D003680B43036004E0AB
:100CD0000368CC43A4B22340036010BD10B5026882
:100CE0006F241346A3431A460B884C8823438C88F1
:100CF00023431A4302608B684360CB68C360CB8890
:100D0000836110BD70B50346012400200AE00D4642
:100D10002540002D03D085001E46303672516400F8
:100D2000451CE8B20828F2DB70BD0000002905D0A0
:100D3000054A12680243044B1A6004E0024A126832
:100D40008243014B1A60704700300040002807D0F2
:100D5000074909680122D2051143054A116006E0DE
:100D6000034909680122D2059143014A1160704785
:100D70000000024005490968072212059143034A11
:100D8000116011460968014311607047000002407C
:100D9000002905D0054A12680243044B1A6004E09A
:100DA000024A12688243014B1A60704700000240F9
:100DB000002807D0074909680122D2051143054AD6
:100DC000116006E0034909680122D2059143014AF6
:100DD000116070470010024005490968072212059A
:100DE0009143034A1160114609680143116070473D
:100DF00000100240002905D0054A12680243044B46
:100E00001A6004E0024A12688243014B1A6070477C
:100E100000100240002807D0074909680122D205C6
:100E20001143054A116006E0034909680122D20511
:100E30009143014A1160704700200240054909684A
:100E4000072212059143034A1160114609680143C4
:100E50001160704700200240054909680722120509
:100E60009143034A116011460968014311607047BC
:100E70000030004000B50246FF2000F027F9002AAC
:100E800006D007484069402108430549486105E00C
:100E900003484069402188430149486100BD000082
:100EA0000030004000B50246FF2000F00FF9002A94
:100EB00006D007484069202108430549486105E0FC
:100EC00003484069202188430149486100BD000072
:100ED000003000407047000000B50246FF2000F0DF
:100EE000F5F8002A07D0084840690121C9030843E2
:100EF0000549486106E0044840690121C903884367
:100F00000149486100BD00000030004000B50246C4
:100F1000FF2000F0DBF8002A06D0074840690221D4
:100F200008430549486105E00348406902218843B8
:100F30000149486100BD00000030004000B5024694
:100F4000FF2000F0C3F8002A06D0074840690121BD
:100F500008430549486105E00348406940084000EE
:100F60000149486100BD00000030004070B50446F2
:100F7000FF2000F0ABF83148844242D00126012026
:100F800001E07600401C2E49C9698907890F491C78
:100F90008142F6D22A49C969FF2212021140090A88
:100FA00048003146FFF7CCF840280CD3244840696C
:100FB000032109038843224948610846406989148E
:100FC00008431F494861FF2000F080F81C4845692C
:100FD0000721C9012846884305462846204305467F
:100FE0001748456140698021084315494861084612
:100FF000406980210840002801D0002070BD0120F8
:10100000FCE70F4840690321090388430C49486104
:1010100008464069891408430949486108464069FF
:10102000802188430649486108464069802108407C
:10103000002800D1E2E70120E0E700007FFF000088
:101040000030004000B50246012A06D10D48006973
:10105000042108430B49086112E0FF2000F036F834
:1010600008480069042188430649086106488069E8
:10107000602188430449886108468069104388617B
:1010800000BD000000E000E000300040002806D075
:101090000649096903221143044A116105E0034925
:1010A000096989088900014A1161704700E000E080
:1010B000411E044A914203D8034A516100219161C3
:1010C00070470000FFFFFF0000E000E001464029FC
:1010D00003DB0348C160002070470120FCE70000EB
:1010E000003000401FB5002069468881012080043F
:1010F0000090032040030190C00102900E48FFF7CA
:101100006DFC1F210C48FFF779FC0022FF21013103
:101110000948FFF759FC01210748FFF73FFC03216D
:101120001D2002F0AFF91D2002F0A0F901210248B4
:10113000FFF726FC1FBD00001021024000B587B05C
:1011400001210846FFF7F2FD0221684601800021D7
:10115000C1800321890201811D4805901D48069028
:101160000021684681804181012080060490C820CA
:1011700003906846418069461748FFF797FC0122B3
:1011800011041548FFF788FC00220121C904124808
:10119000FFF782FC0022012189040F48FFF77CFC45
:1011A000012251040C48FFF777FC00220121C905F8
:1011B0000948FFF75DFC03210B2002F063F90B20C7
:1011C00002F054F901210448FFF746FC07B000BDC6
:1011D000B80000208C0002400008014000B587B034
:1011E00001210846FFF7A2FD03216846018009029C
:1011F000C180002101811E4805901E480690684666
:1012000081804181052000060490C82003901021B0
:101210006846418069461848FFF748FC01221104DE
:101220001548FFF739FC00220121C9041248FFF7D5
:1012300033FC0022012189040F48FFF72DFC012215
:1012400051040D48FFF728FC00220121C9050A4876
:10125000FFF70EFC03210C2002F014F90C2002F021
:1012600005F901210448FFF7F7FB07B000BD0000B6
:101270008C000240B80000204008014000B5A3B037
:10128000802120A881800221C1800021018121A923
:101290005E48FFF769FCFF21013110A88187022118
:1012A000C187002120A801801FA95848FFF75CFCD6
:1012B000102110A881860221C186002101871DA965
:1012C0005348FFF751FC202110A881850221C185D8
:1012D000002101861BA94E48FFF746FC0121890227
:1012E00010A881840221C1840021018519A94848E0
:1012F000FFF73AFC0121C90210A881830221C183B2
:101300000021018417A94248FFF72EFC802110A874
:1013100081820221C1820021018315A93D48FFF786
:1013200023FCFF21013110A881810221C18100210C
:10133000018213A93748FFF717FC0121490210A8C1
:1013400081800221C1800021018111A93148FFF76C
:101350000BFC0121C902684681870121C187002158
:1013600010A801800FA92B48FFF7FEFB01210903FC
:10137000684681860221C186002101870DA9254882
:10138000FFF7F2FB022168468185C18500210186B5
:101390000BA91E48FFF7E8FB04216846818402215F
:1013A000C1840021018509A91848FFF7DDFB082148
:1013B000684681830221C1830021018407A9134863
:1013C000FFF7D2FB1021684681820221C1820021F1
:1013D000018305A90D48FFF7C7FB202168468181DD
:1013E0000221C1810021018203A90848FFF7BCFB4B
:1013F0004021684681800221C1800021018101A92C
:101400000248FFF7B1FB23B000BD0000001101400E
:10141000001201400010014010B5FFF72FFF00F04F
:1014200019F800F089F800F0B5F800F0F1F900F0D3
:101430003BFA00F09BF900F0C1F800F00BF900F066
:1014400053F900F019F8FFF74DFEFFF777FEFFF7AD
:10145000C5FE10BD0648006A06210843044908621B
:101460000448006A092109030843024908627047D9
:10147000001001400011014000B587B0FF20FFF7C8
:1014800025FE01210802FFF783FC002201212948E3
:10149000FFF738FC632202212648FFF733FC632262
:1014A00004212448FFF72EFC632208212148FFF77E
:1014B00029FC002210211F48FFF724FC00222021D4
:1014C0001C48FFF71FFC002240211A48FFF71AFCB6
:1014D000002280211748FFF715FC00216846018291
:1014E00003218181632141820E2005900020069016
:1014F00000216846C18103A90E48FFF7EFFB2021B8
:10150000684681800021C180018101A90948FFF757
:10151000CBFB00210748FFF7B9FB0022FF21013177
:101520000448FFF7CEFB01210248FFF7A1FB07B0FB
:1015300000BD00000002024010B5FF20FFF7C6FD0D
:101540000020FFF7AFFC0020FFF7F8FC0120FFF7B9
:10155000DDFC0120FFF78EFC0120FFF7BDFC0C48ED
:10156000FFF704FD0020FFF777FC0020FFF702FCE7
:101570000120FFF7EBFB0020FFF72EFC0120FFF717
:1015800017FC0020FFF75AFC0120FFF743FC10BDB9
:101590007FFF000010B5FF20FFF798FD0020FFF748
:1015A00051FD7D20C001FFF783FD0021481E01F0A1
:1015B00069FF0120FFF76AFD10BD000000B585B08E
:1015C00001210220FFF7E4FB00216846418105214B
:1015D0000902018100218181832109020182002108
:1015E000C18102A91A4800F081FA00216846818071
:1015F000C18001A9164800F0FFF90021144800F04D
:10160000EDF900216846018041806946104800F0EC
:1016100025FA322202210E4800F052FA002201215E
:101620000B4800F00DFA01222021094800F0C8F90A
:1016300001224021064800F0C3F90122102104488C
:1016400000F0BEF90121024800F0ACF905B000BD80
:101650004001024000B585B001210420FFF798FB4E
:101660000021684641810181818183210902018233
:101670000021C18102A91B4800F038FA0021684608
:101680008180C18001A9174800F0B6F900211548F2
:1016900000F0A4F9002168460180418069461148A4
:1016A00000F0DCF9322202210E4800F009FA002293
:1016B00001210C4800F0C4F901222021094800F062
:1016C0007FF900224021074800F07AF90122102119
:1016D000044800F075F90121024800F063F905B0F3
:1016E00000BD00008001024000B585B00121082046
:1016F000FFF74EFB002168464181018181818321F2
:10170000090201820021C18102A9174800F0EEF907
:10171000002168468180C18001A9134800F06CF95E
:101720000021114800F05AF90021684601804180EB
:1017300069460D4800F092F9322202210A4800F071
:10174000BFF900220121084800F07AF90321122094
:1017500001F098FE122001F089FE0121024800F0FC
:1017600021F905B000BD0000C001024000B587B0FE
:101770002021684681820121C1820021018305A9BF
:101780002148FFF7F1F94021684681810121C1819B
:101790000021018203A91C48FFF7E6F9012110206E
:1017A000FFF7F6FA0221684601800521090241800F
:1017B00000218180502002906846C180694613480C
:1017C00001F04CFC0121C903104801F061FC012229
:1017D00011460E4801F035FC002280210B4801F033
:1017E00023FC00224021094801F01EFC03211720A0
:1017F00001F048FE172001F039FE0121034801F0F5
:1018000005FC07B000BD0000001001406000024070
:1018100000B587B001214903684681820121C18258
:101820000021018305A91D48FFF79EF901218903C5
:10183000684681810121C1810021018203A91748E5
:10184000FFF792F901218020FFF7A2FA14480090D7
:10185000E12040020190012002906946114801F008
:1018600037FD002201210F4801F025FD01228021D2
:101870000C4801F009FD012240210A4801F004FD55
:101880000021084801F04AFD0121064801F070FDE1
:101890000121044801F054FD07B000BD00100140D3
:1018A0000048E8018000024000B587B00121C9036B
:1018B000684681820121C1820021018305A9204857
:1018C000FFF752F9012168468181C181002101821F
:1018D00003A91C48FFF748F901218020FFF78AFA85
:1018E00019480090E12040020190012002906946D1
:1018F000164801F0EDFC01221146144801F0DBFC12
:1019000001220421114801F0D6FC012202210F48D6
:1019100001F0D1FC0321072001F0B4FD072001F004
:10192000A5FD0021094801F0F9FC0121074801F05B
:101930001FFD0121054801F003FD07B000BD0000B7
:1019400000100140001101400048E8012010024051
:1019500070477047704700000120C0060149886049
:101960007047000000ED00E07047000010B507214F
:10197000014800F015F810BD4001024010B50721E4
:10198000014800F00DF810BD8001024010B507219C
:10199000014800F005F810BDC001024070477047D3
:1019A000C1607047002904D0026880231A43026096
:1019B00003E00268014B1A40026070477FFF00009D
:1019C00010B5002A03D083690B43836104E0836967
:1019D000CC43A4B22340836110BD0000002904D091
:1019E000026801231A43026003E00268014B1A40B7
:1019F00002607047FEFF000010B54B88302B00D10D
:101A000000BF4B88082B02D00B88042B00D100BFED
:101A100003689AB23C241346A3431A46074B9842E4
:101A200005D14B88082B06D04B881A4303E04B881E
:101A30000C8823431A43026010BD000000010240DD
:101A400010B5002A03D083690B43836104E08369E6
:101A5000CC43A4B22340836110BD000010B54B8875
:101A6000022B02D00B88022B00D100BF4B88012B28
:101A700002D00B88012B00D100BF02680F24E402C2
:101A80001346A3431A460D4B984205D10B88022BEF
:101A900002D04B88022B08D1084B98420BD00B8800
:101AA000012B08D04B88012B05D00B885B034C8899
:101AB000E40223431A43026010BD0000000102400B
:101AC000022900D100BF012900D100BF064B984276
:101AD00003D0022901D1026105E0034B984202D1F3
:101AE000012900D1426170470001024010B502682F
:101AF000074B1A400B888C8823434C882343CC889F
:101B0000640123431A4302600B898360436010BD64
:101B10009DF8FFFF10B5034600211EE000220AE0F9
:101B200036204843144C00191830805C984200D18C
:101B300008E0501CC2B2362048430F4C0019407CCC
:101B40009042EDDC00BF362048430B4C0019407C2E
:101B5000904200D005E0481CC1B20848007881429C
:101B6000DCDB00BF05480078814201D0012010BDB8
:101B700000BF0020FBE7000060000020A80000205C
:101B8000F0B59FB004460020169014901390A08EDC
:101B9000401CA086002537E020461830475D06200F
:101BA0007843C749095A06207843C54A80184088B7
:101BB000081A00B2690017AA5052680017A9085EF7
:101BC0001621615E884201DD0020A086680017A909
:101BD000085E1421615E884203DA0020690017AABA
:101BE0005052384600F06AFB690017AA1190515E06
:101BF0006422514308461199FEF7B8FA00B2690011
:101C000017AA5052681CC5B2607CA842C4DCA08EE2
:101C100000287CD100250CE0680017A9095E169801
:101C2000814204DD6EB2680017A9085E1690681C38
:101C3000C5B2607CA842EFDC002526E0701E40198A
:101C4000002806DA607C401E400017A9085E169046
:101C50000FE0701E4019617C884204DB10A91C2033
:101C6000085E169005E0701E4019400017A9085E36
:101C70001690691C169848431499401814901699A8
:101C8000139840181390681CC5B2032DD6DB208E24
:101C9000FEF70EFD00228B4B0B910A90FEF76AFCBB
:101CA000002201239B070D910C90FEF7FBFB002205
:101CB000854B0F910E90FEF7ECFB11911090FEF703
:101CC00046FD12901398FEF7D8FC0F901498FEF77B
:101CD000D4FC0E900F99FEF7F3FA7C491090FEF7B2
:101CE000B2FA1190FEF7F2FC60861298FEF71BFD27
:101CF0000F910E90208EFEF7DBFC0022714B0391BA
:101D00000290FEF737FC07910690139800E0C9E0B7
:101D1000FEF7B3FC02901498FEF7AFFC0190029915
:101D2000FEF7CEFA0390FEF7FEFC05910490079BA8
:101D3000069AFEF7A8FB0B910A90617CFF206930A0
:101D4000FEF714FA0790FEF79FFC099108900B9B91
:101D50000A9AFEF7A7FB0D910C900F9B0E9AFEF7C7
:101D600009FC11911090FEF7F2FC1290701E0028F1
:101D70000AD5617C721EFF2369335A431046FEF771
:101D8000F5F9FF30693007E0617C721EFF2369338B
:101D90005A431046FEF7EAF90E90FEF763FC1090E6
:101DA000617CFF206930FEF7E1F9C20F1118119034
:101DB0004810FEF757FC0E901299FEF7EBF90F90C2
:101DC0001099FEF7E7F912901298159004E0404937
:101DD0001598FEF730FA15903D491598FEF7DEFC90
:101DE000F5D32078012842D1617CFF206930FEF7CD
:101DF000BDF9FF216931081A1090FEF733FC1190EC
:101E00001599FEF7C1FC11D8617CFF206930FEF7FF
:101E1000ADF9FF216931081A401E1190FEF722FC2E
:101E20001590002E02D17F20C0051590617CFF2007
:101E30006930FEF79BF9FF216931081A0D90FEF712
:101E400011FC0F90608AFEF718FC0D901599FEF7B3
:101E5000FAF90E900F99FEF733FA7F21C905109019
:101E6000FEF798F91190FEF74AFCA08526E0608AFB
:101E7000FEF703FC0E901599FEF7E5F914490F9053
:101E8000FEF71EFA7F21C9051090FEF783F9119025
:101E9000FEF735FCA085A08D618A88420EDD608A40
:101EA000A0850BE00020A085617C2820005D2346F2
:101EB000343322461832119000F00CF81FB0F0BDF8
:101EC0005802002000005940000010400000C842A5
:101ED0000000B443FFB581B01F46398801988142A4
:101EE0007EDD002038800026B0E00398845D062067
:101EF00060435949095A06206043574A8018408870
:101F0000081A05B2204600F0D9F900B200905348F3
:101F1000002141564842854242DB5048002141564B
:101F20008D423DDC60004E49085A401900B2610004
:101F30004B4A505200F084F96100494A515E884290
:101F400010DC06206043444940184088401C81B2A0
:101F500006206043404A8018418000206100404ACA
:101F6000505217E000F06CF9404261003C4A515E6B
:101F700088420FDD06206043374940184088401EE4
:101F800081B206206043344A8018418000206100FD
:101F9000334A50520020334908553349085553E01D
:101FA0002E4800214156484285422DDA2D48005DD9
:101FB000401C2C490855085D2C490978FEF7D6F8D5
:101FC000002941D12748015D28480078284A127825
:101FD0005043814208DB002022490855012000E0DF
:101FE00038E0244908702FE0062060431A49401861
:101FF00040881A4900228A56801A81B2062060431E
:10200000154A801841801FE01448002141568D4236
:102010001ADD1548005D401C134908550846005D4F
:10202000202811D1002008550C490856C10F091865
:102030004A1006216143084BC918498851188AB2D1
:1020400006216143C9184A80701CC6B202988642B4
:1020500000DA4AE705B0F0BD580200205A0000201F
:1020600048020020210000204100002097000020AD
:1020700096000020AE00002070B51B48057800BF18
:1020800000F038F800240DE0062060431749095A93
:1020900006206043154A80184180204600F06EFDFE
:1020A000601CC4B2124800788442EDDB2846691EE9
:1020B000CDB20028E4D100F0A7F800F011F90546F0
:1020C00000BF00F017F8002404E0204600F03CF8C0
:1020D000601CC4B2064800788442F6DB2846691EBC
:1020E000CDB20028EDD170BD98000020580200202C
:1020F0009C00002000B50022104800784006400EE9
:102100000E4908700E48C068012108430C49C86098
:102110000CE001F07DF90B48C06B0121084309492F
:10212000C863501CC2B2642A00DB05E00348007893
:10213000802108400028ECD000BF00BD180000201E
:10214000002202400003004070B5044606206043B0
:102150002C49095A062060432A4A801880880D1AA3
:10216000204600F0ABF80646B54202DC70428542DC
:1021700009DA062060432349095A06206043214AB0
:102180008018818033E07010A84203DB7010404259
:10219000A84216DD062060431A49401881880620AF
:1021A0006043184A801880884010091A062060434E
:1021B000105A4010081881B20620604380188180B0
:1021C00015E0062060430F494018818806206043CF
:1021D0000C4A80188088C010091A06206043105AE3
:1021E000C010081881B20620604380188180062044
:1021F000604304494018818806206043014A115217
:1022000070BD00005802002000200AE00621414372
:10221000064A525A06214143044BC9188A80411C80
:10222000C8B2034909788842F0DB704758020020A1
:102230009C00002001460148405C70474900002096
:102240000148808B80B270473036000810B50246D6
:102250000C46230001F0FBF807050A10161A1E248D
:102260002A000A2050431249085C10BD0A2050433E
:102270000F4940188078F8E70A2050430C4940186D
:10228000C078F2E71046FFF7D5FFEEE70948008D6A
:10229000C0B2EAE70A205043054940184078E4E715
:1022A0000A205043024940184079DEE70020DCE76D
:1022B00074360008303600080120704701460A20B5
:1022C0004843064A8018007A02020A204843034B1A
:1022D000C018407A101880B27047000074360008A9
:1022E0000148007C70470000303600080148007843
:1022F00070470000AE00002001460A204843024A11
:1023000080180079704700007436000810B503216A
:1023100002480078FDF72AFFC0B210BD5900002026
:1023200070B505462846FFF7C9FF0446E0000A21BC
:10233000FDF71CFF84B2204670BD00000148007804
:10234000401070475900002010B500F0B9FD10BDD5
:1023500010B50120FEF75EFD5348C0680121090455
:1023600088435149C860002050490870504908709E
:102370005049087000F0BCF800F094FC4A48C0686E
:10238000802108434849C86000210846FFF75EFFE6
:10239000441C21467D204001FDF7E8FE46490880A7
:1023A0000020FFF7A9FF44490988484380B23E490D
:1023B000C86102210020FFF749FF000700093A49E0
:1023C00009690F2212069143084337490861002129
:1023D0000846FFF73BFF0007000C3349C9680F228E
:1023E0001203914308433049C86006210020FFF7DB
:1023F0002DFF80072C4909698900890808432A496B
:10240000086103210020FFF721FF00022649096926
:102410007F2252029143084323490861052100208D
:10242000FFF714FF800780081F490969032212077C
:10243000914308431C49086101210020FFF706FF72
:1024400019490969090A0902084317490861042161
:102450000020FFF7FBFE00280BD01348C0682021A6
:1024600088431149C8600846C068402108430E49A6
:10247000C8601F20002805DBC206D20E0121914052
:102480000E4A116000BF0848C06810210843064981
:10249000C8600B4801780120884003490860FFF7B5
:1024A000EBFD00F00FF810BD00220240AE0000204E
:1024B000A900002018000020AA00002000E100E090
:1024C0001900002000200AE006214143064A525A22
:1024D00006214143044BC9184A80411CC8B2034934
:1024E00009788842F0DB7047580200209C000020E9
:1024F00000200DE000210E4A11540E4A11540E4ADC
:10250000115442000D4B99520D4A1154411CC8B24E
:102510000C4909788842EDDB00210B4A1160FF214C
:102520000A4A117000210A4A11800A4A1170704744
:102530002900002021000020310000204802002056
:10254000390000209C000020A0000020B0000020E6
:10255000B2000020AE000020014800797047000062
:102560003036000870B505464B480078032820DB5C
:1025700000204949087049480078002811D10024FA
:102580000BE00620604346494018818806206043DE
:10259000434A80184180601CC4B24248007884429B
:1025A000EFDBFFF7A5FF00203F4908703B490870AB
:1025B00070BD3E480078401C3C49087008460078D1
:1025C000A84204D1FFF720FE00203949087037489F
:1025D0000078A8425DDD00242FE0062060433049EA
:1025E000095A062060432E4A80188088081A06B2CD
:1025F0002A48007800280DD12E4800214156880035
:10260000B04215DA2B480021415648428000B042C2
:102610000EDD16E0274800214156C800B04207DA17
:102620002448002141564842C000B04200DD08E085
:102630002046FFF789FD601CC4B21A480078844226
:10264000CBDB00BF17480078844204D118480078DB
:10265000401C17490870E80014490978884218DCC2
:10266000002012490870144908700B480078401C7B
:1026700009490870A8000E490978884209DC002041
:1026800005490870FFF71EFFFFF732FF00200649DB
:10269000087000BF8CE70000AF0000205B00002046
:1026A000580200209C000020AE000020B400002052
:1026B000B00000205A000020AD0000200348C06890
:1026C000012108430149C860704700000022024010
:1026D00070B50026002015490870002510E001267D
:1026E0002846FFF731FD2846FFF714FA002800D0EE
:1026F0000026012E02D1284600F022F8681CC5B23F
:102700000B4800788542EADB002407E0362161436C
:10271000084A8818FFF734FA601CC4B206480078EB
:102720008442F3DB0548006870BD0000AC00002067
:102730009C00002060000020A8000020A0000020D5
:10274000FEB5044606206043F349095A062060435B
:10275000F14A80184088081A07B20120A040EF49CA
:1027600008602046FFF7AAFD00B20090009887425B
:1027700001DB012600E00026012E7DD1E848005D46
:10278000FA2804DAE648005D401CE5490855E548AA
:102790000068E24909680840002879D1E2480078D9
:1027A0000190FFF789FD002814D00026002507E0DE
:1027B000DB48405D012801DB701CC6B2681CC5B255
:1027C000DA4800788542F3DB032E03DB01980F30F3
:1027D000C0B20190D248015D0198814258DB0026C9
:1027E000FFF7BAFE00282BD100250BE0AC4207D042
:1027F000FFF78CFDCA49495D884201DC012605E0EE
:10280000681CC5B2C94800788542EFDB00BFFFF7FE
:1028100053FD00282DD1002E2BD100250BE0AC421A
:1028200007D0FFF773FDC249495D884201DC0126EC
:1028300005E0681CC5B2BD4800788542EFDB18E0B2
:10284000FFF73AFD002814D10190002509E0B448B3
:10285000405D022803DB0198401CC0B20190681C57
:10286000C5B2B24800788542F1DB0198032800DB4D
:102870000126012E05D101E015E009E00120AD4956
:102880000870A8480068A54909680843A549086078
:102890000020A9490855A94908556100A84A505285
:1028A000A849085535E12046FFF73AFDB84209DA54
:1028B0009F48005DFA280DDA9D48005D401C9C4948
:1028C000085507E0A0480078401C9F490870002088
:1028D000974908559D48002141564842874246DBAA
:1028E0009A48002141568F4241DC00209249085508
:1028F000944908558B48006800281ED16000904913
:10290000085AC01900B261008D4A5052FFF798FC76
:1029100061008B4A515E884210DC062060437E498C
:1029200040184088401C81B2062060437A4A8018D3
:10293000418000206100824A505281E0FFF780FC14
:10294000404261007E4A515E884279DD0620604344
:10295000714940184088401E81B2062060436E4A8B
:102960008018418000206100754A505268E0774825
:1029700000214156484287423ADA6F48005D401CC8
:102980006D49085500206F4908556B49085D70492D
:102990000978FDF7EBFB002922D16748015D6C48FF
:1029A00000786C4A12785043814208DB002062496B
:1029B00008550120684908706849087010E06349AB
:1029C00000200856C10F09184A1006216143524BD6
:1029D000C9184988891A8AB206216143C9184A80F0
:1029E0005F480078A0422BD1FF205D49087027E0A6
:1029F0005648002141568F4222DD00204E4908559D
:102A00004848006800281BD14E48005D401C4D49D5
:102A100008550846005D202812D1002008554B4972
:102A20000856C117890F09188A10062161433A4BCD
:102A3000C918498851188AB206216143C9184A80C9
:102A400038480068354909680840002838D000989F
:102A50008110401AB8422DDD3848005D401C3749CE
:102A60000855FFF76BFC0190002507E02C48405DFE
:102A7000012801DB701CC6B2681CC5B22B48007867
:102A80008542F3DB032E02DB2748007801902B48B8
:102A9000015D019881423CDB00202849085521480E
:102AA00000681E49096888431E49086000201C49C7
:102AB00008552EE02148005D401E2049085528E0B9
:102AC00000201749085517480068002802D1204601
:102AD00000F054F815480078401EA04200D0FEBD1A
:102AE0001948007811490978884200DAF7E700258B
:102AF00006E00B48405D002800D00126681CC5B2E6
:102B00000A4800788542F4DB002E02D100200949F2
:102B1000087000BFE3E7000058020020A400002076
:102B200029000020A0000020590000209C00002067
:102B300039000020AD0000202100002031000020DD
:102B40004802002041000020AC0000205A00002074
:102B50009600002097000020AE0000205B000020BF
:102B6000B00000200120014908707047AE0000202D
:102B70000148808A80B270473036000870B504463C
:102B80002046FFF757FB05461B49098848000A21E4
:102B9000FDF7ECFA06462046FFF7AEFB464306205B
:102BA0006043164940184088864208DD022D21DB2B
:102BB000A81E134908550120124908701AE00E4951
:102BC0000988CA00501A0A21FDF7D0FA06462046A5
:102BD000FFF792FB464306206043084940184088AF
:102BE000864207DAFC2D05DCA81C054908550120A2
:102BF0000449087070BD0000AA000020580200209F
:102C000049000020AE00002070B500200023002104
:102C10000022FF24E40200BF0DE00125854025408D
:102C2000002D06D01B4DA854551CEAB2082A00DB23
:102C300003E0451CE8B22028EFDB00BF002122E0C2
:102C4000002017E0002311E036254D43124EAD1948
:102C50006D1C2D5C0F4EF65CB54205D136254D43FB
:102C60000D4EAD1918352B545D1CEBB29342EBDBC6
:102C7000451CE8B236254D43074EAD196D7C8542A3
:102C8000E0DC4D1CE9B2054D2D78A942D8DB044D9E
:102C90002A7070BD1900002060000020A8000020EC
:102CA0009C00002030B50120164908701648007BB2
:102CB000164908701448006C40B215490870FFF7B7
:102CC000A3FF002508E00A206843124940188079D4
:102CD00011494855681CC5B2104800788542F2DB9E
:102CE00000200F490880002407E0002136206043BF
:102CF0000C4A8018C185601CC4B202480078844226
:102D0000F3DB30BDA8000020303600085900002059
:102D10005A00002074360008490000209C00002062
:102D20005C00002060000020F8B500260020009024
:102D3000FFF7DCFA002871D1FFF7CAFC074600252F
:102D40000FE00120A8403840002808D05348415DDA
:102D500001208840009908430090701CC6B2681C8E
:102D6000C5B24F4800788542EBDB022E0EDB012016
:102D70004C490870032E02DBFFF7F4FE06E0FFF774
:102D8000EBFB002802D00020464908704548007837
:102D900000280CD10098002805D043480088401C2A
:102DA000414908800AE000203F49088006E03F488A
:102DB0000088401C3D49088000200090002447E026
:102DC000362060433A494018808D002827D03620AD
:102DD00060434018818D36206043354A8018408D0D
:102DE00081420BD13620604311464018C08D401CF3
:102DF00081B2362060438018C18516E036206043DA
:102E00002B494018818D36206043294A801841851E
:102E10000021362060438018C18506E036E000219D
:102E200036206043224A8018C185FFF7A1FE362173
:102E300061431F4A8918C98D884207DCFFF792FE5B
:102E40000021362060431A4A8018C185601CC4B234
:102E5000184800788442B3DBFFF78AFE12490988DC
:102E6000884204DCFFF77EFE00200F4908800F48EF
:102E70000088FF212D3188420DDDFFF773FE012010
:102E80000D49087000200949088004E00B49098CAD
:102E9000C8B2FFF767FB0098F8BD000019000020DA
:102EA0009C000020AD0000205C0000205E0000209F
:102EB00060000020A80000205B00002030360008E1
:102EC00010B500244948C068022108434749C8603A
:102ED0000846806981B24648007806225043454A38
:102EE000115243480078401C414908700846007858
:102EF00041490978884209DB00203D4908703F4874
:102F00000078802108433D49087000E001243848DA
:102F10000078FFF7F1F93A490988484380B233490C
:102F2000C861022132480078FFF790F900070009D4
:102F30002E4909690F221206914308432B49086163
:102F400000212B480078FFF781F90007000C274982
:102F5000C9680F221203914308432449C86006211F
:102F600023480078FFF772F9800720490969890032
:102F7000890808431D49086103211D480078FFF7AF
:102F800065F90002194909697F22520291430843F9
:102F900016490861052116480078FFF757F98007A0
:102FA00080081249096903221207914308430F4917
:102FB000086101210E480078FFF748F90B490969BB
:102FC000090A09020843094908610E4808490978B5
:102FD000415C0120884005490860012C05D1084664
:102FE000C068012108430149C86010BD00220240A9
:102FF000A9000020580200209C000020180000209A
:10300000AA0000201900002070477047002904D052
:10301000026880231A43026003E00268014B1A40F1
:10302000026070477FFF000010B5002A03D00369DB
:103030000B43036104E00369CC43A4B22340036162
:1030400010BD10B5002A03D003690B43036104E0EF
:103050000369CC43A4B22340036110BD30B50246DE
:1030600010680A4B18400B884C8823438C882343F4
:10307000184310609068000A0002CB888C686400D6
:10308000FE252C4023431843906030BDFC3FFFFFDA
:1030900010B50A46074B984200D100E000BF016816
:1030A0000324A4030B46A34319460B4613431946B6
:1030B000016010BD6000024010B500F009F8032166
:1030C000014800F091F810BD201002407047000048
:1030D0007CB501213F4800F0E4F8012878D10121B6
:1030E0003C4800F081F83B4800F038F9C5B23A4955
:1030F0000878411C384A117038490D541046007840
:10310000642802DB0020114608703348007801284B
:103110005DDBAA2168460170552141702E48007878
:10312000401E2E49085CF138030000F090F90805B4
:103130000D12181E23292E2F0121684681700021AF
:10314000C1702821017122E010212548FDF744FDBE
:103150001DE0012189022248FDF73EFD17E0012113
:10316000C9021F48FDF738FD11E080211D48FDF719
:1031700033FD0CE0FF2101311A48FDF72DFD06E07B
:1031800020211748FDF728FD01E000E07CBD00BFCD
:10319000552168464171AA218171002411E06846D9
:1031A000015D0C4800F0DFF800BF0221094800F083
:1031B00078F80028F9D00221064800F015F8601CC4
:1031C000C4B2072CEBD300200349087000BF00BF36
:1031D00000BFDBE720100240160000208001002025
:1031E0000012014000100140416070471AE00E4893
:1031F0000078012816D100200B490870C8210B481F
:10320000FDF770FC01228021094800F03DF80748D5
:10321000FDF76AFC00BF074800780028FBD00020BB
:1032200004490870E3E70000140000200008014092
:10323000800002401500002010B502210648FDF76D
:1032400021FC002806D002210348FDF703FC0120E1
:103250000249087010BD0000000801401500002060
:1032600010B502210648FDF70DFC002806D002210A
:103270000348FDF7EFFB01200249087010BD000074
:10328000400801401400002010B5002A03D0036953
:103290000B43036104E00369CC43A4B22340036100
:1032A00010BD0246002053680B40002B01D00120C6
:1032B00000E00020704710B5002A03D003690B43DB
:1032C000036104E00369CC43A4B22340036110BD51
:1032D00070B504460D462668F608F600A868064351
:1032E0002660A868002808D1206810218843206043
:1032F00020686968084320600DE069682868FCF769
:103300001FFF06460448864204D92068102108435E
:1033100020603609A66070BDFFFF000010B50A46A8
:10332000064B984209D101680324A4030B46A3432A
:1033300019460B4613431946016010BD2010024088
:10334000002904D0026840231A43026003E00268A7
:10335000014B1A4002607047BFFF00000146C86879
:10336000C005C00D7047CA05D20DC260704700008D
:10337000002904D0026880231A43026003E0026837
:10338000014B1A40026070477FFF000010B50446F1
:103390001A480078FF282BD00120194908701948D5
:1033A0000078002829D1112C0AD1012109031648DF
:1033B000FDF734FC012149021348FDF71EFC10E023
:1033C000122C0ED1C32109011048FDF716FCFF2174
:1033D00081310D48FDF711FC012149020A48FDF732
:1033E0000CFC6420FDF79EFB01200649087004E0F8
:1033F0000020034908700349087010BD0000002038
:1034000001000020080000200010014000120140CF
:103410007D20C00001E0411E88B20028FBD170472A
:103420002021020C01D010211046020A01D01046C2
:103430000839020901D01046091F820801D0104640
:10344000891E420801D0881E7047081A704730B4A0
:103450007446641E2578641CAB4204D3635D5B0034
:10346000E31830BC18471D46F8E70000002805DBCC
:10347000C206D20E01219140014A1160704700003E
:1034800000E100E010B5002819DB1A4A03231B02F3
:10349000D21883089B00D2588307DC0EFF23A34079
:1034A0009A438B071B0E8407E40EA3401A43114B6B
:1034B000032424021B198408A4001A5118E00E4AA0
:1034C00003071B0F083B9B089B00D2588307DC0EA9
:1034D000FF23A3409A438B071B0E8407E40EA340EF
:1034E0001A43054B0407240F083CA408A4001A51F2
:1034F00010BD000000E100E01CED00E002E008C8A3
:10350000121F08C1002AFAD170477047002001E05D
:1035100001C1121F002AFBD170470000FDF798FB84
:1035200000213948FEF73EFA3220FDF771FAFEF726
:103530000FFF68E0354800780300FFF788FF0504B7
:103540001F5E5F60610010213148FDF745FB0121DE
:1035500089022F48FDF740FB0121C9022C48FDF7E5
:103560003BFB80212B48FDF737FBFF210131294828
:10357000FDF732FB01202549087041E02648C06B69
:10358000012108432449C863244800788021084069
:10359000002813D0214800784006400E1F490870CB
:1035A000FFF7C2FB1E49086008460068FDF7A0FA55
:1035B0001C480078FFF7EAFEFFF780F8FF212D3165
:1035C00019480068FCF7BCFD002910D117480068B5
:1035D000401C16490860502114480068FCF7B0FDF3
:1035E000002904D1FF2101310A48FDF717FB0E48DD
:1035F0000068401C0C49086002E001E000E000BFE8
:1036000000BFFFF7F3FD95E78001024002000020B4
:10361000001201400010014000030040180000208B
:1036200004000020000000200C00002010000020FA
:103630000000000000000000000000000500000085
:103640000A000000B80B0000C80000006400000081
:103650000200000001000000000000000400000063
:103660000000000001000000FFFF0000FFFF00005D
:1036700040000000040228040803300505E70402A6
:10368000280408033805063004022804080332051C
:103690000615040228040803360505F2040228046E
:1036A000080340050676040228040803380506408E
:1036B000040228040803280506500402280408030D
:1036C0002E0505FFE436000800000020B8000000C9
:1036D000FC3400089C370008B8000020D00500002A
:1036E0000C35000800000000000000000000000091
:1036F00000000000000000000000000000000000CA
:1037000000000000000000000000000000000000B9
:1037100000000000000000000000000000000000A9
:103720000000000000000000000000000000000099
:103730000000000000000000000000000000000089
:1037400000000000010B0C0D0E0F10000000000027
:1037500000000000000640001400640000000000AB
:103760000000000000000000000000000100000058
:10377000000000009600000000000A0A200000007F
:103780000000000000000000000000000000000039
:0C3790000000000000000000000000002D
:04000005080000C12E
:00000001FF
