:020000040800F2
:10000000D8060020650100088B0100088D0100085A
:100010008F01000891010008930100080000000012
:100020000000000000000000000000009501000832
:10003000970100080000000099010008890C0008E1
:1000400025050008290500082B05000827050008DC
:10005000C90600080000000029040008F30F00088A
:10006000F50F0008850C0008870C00084304000801
:100070004504000847040008490400089D0C0008D6
:10008000A10C0008B10C0008B30C0008B50C000866
:10009000B70C00083905000835050008710F000885
:1000A000730F0008000000000000000000000000C6
:1000B00000000000DD03000841040008210E0008D4
:1000C00000F002F800F03EF80CA030C80838241800
:1000D0002D18A246671EAB4654465D46AC4201D180
:1000E00000F030F87E460F3E0FCCB6460126334274
:1000F00000D0FB1AA246AB4633431847101000004D
:1001000030100000103A02D378C878C1FAD85207EC
:1001100001D330C830C101D504680C6070470000BD
:100120000023002400250026103A01D378C1FBD813
:10013000520700D330C100D50B6070471FB51FBDFB
:1001400010B510BD00F000F91146FFF7F7FF00F001
:100150008DFF00F018F903B4FFF7F2FF03BC00F0C5
:100160001FF900001148124901601248124901604C
:100170001248134901601348134901600F4813499D
:1001800001601348804713480047FEE7FEE7FEE79B
:10019000FEE7FEE7FEE7FEE7FEE7FEE7FEE700001C
:1001A0000D480E490E4A0F4B7047000010300040BA
:1001B00010005FA0DC03004001005FA000100240BF
:1001C000000080005C10024060005FA000000000A2
:1001D0008D0C0008C1000008D8000020D8060020BF
:1001E000D8020020D8020020002203098B422CD321
:1001F000030A8B4211D300239C464EE003460B4377
:100200003CD4002243088B4231D303098B421CD3D8
:10021000030A8B4201D394463FE0C3098B4201D3CA
:10022000CB01C01A524183098B4201D38B01C01A02
:10023000524143098B4201D34B01C01A5241030979
:100240008B4201D30B01C01A5241C3088B4201D328
:10025000CB00C01A524183088B4201D38B00C01AD5
:10026000524143088B4201D34B00C01A5241411AFC
:1002700000D201465241104670475DE0CA0F00D0DF
:100280004942031000D34042534000229C460309D8
:100290008B422DD3030A8B4212D3FC22890112BA5E
:1002A000030A8B420CD3890192118B4208D3890136
:1002B00092118B4204D389013AD0921100E089094E
:1002C000C3098B4201D3CB01C01A524183098B422F
:1002D00001D38B01C01A524143098B4201D34B0118
:1002E000C01A524103098B4201D30B01C01A52417B
:1002F000C3088B4201D3CB00C01A524183088B4202
:1003000001D38B00C01A5241D9D243088B4201D38A
:100310004B00C01A5241411A00D201466346524175
:100320005B10104601D34042002B00D54942704774
:1003300063465B1000D3404201B50020C046C04672
:1003400002BD704770477047754600F025F8AE460D
:10035000050069465346C008C000854618B020B560
:10036000FFF71EFF60BC00274908B6460026C0C53F
:10037000C0C5C0C5C0C5C0C5C0C5C0C5C0C5403D5D
:1003800049008D46704710B50446C046C046204619
:10039000FFF7E1FE10BD0000004870477400002028
:1003A00001491820ABBEFEE72600020070474160FD
:1003B00070470122D2030029016801D0114300E0F7
:1003C000914301607047012212030029016801D0A6
:1003D000114300E0914301607047000010B5012116
:1003E0000148FFF7E4FF10BD10210240002A026817
:1003F00001D00A4300E08A430260704710B50268EA
:10040000054B8C681A400B6823438C8914432343A3
:1004100003604968C16010BDE0F7C8FF0268520977
:1004200052010A43026070477047000010B502464F
:100430000221024800F09EFC10BD00008001024035
:100440007047704770477047704770B500247D262D
:100450000546F60003E0304600F004F8641CAC42A8
:10046000F9DB70BD70B5074C05460121204600F050
:1004700025FC6068A842FCD300212046616000F0A2
:100480001DFC70BD40010240F0B54B880A88022B6C
:1004900004D0012B06D0002B0BD011E0036A1343CC
:1004A00003620DE0036A93430362026C0B881A43F4
:1004B00005E0036A93430362026C0B889A4302646B
:1004C000036E00220E88032701249440264206D0A2
:1004D00054003D46A540AB438D88A5402B43521C9C
:1004E000102AF1D30366F0BD08B50090002007E0A4
:1004F000CA0701D0009A1070009A4908521C009255
:100500000029F5D108BD08B50090012007E0CA0711
:1005100001D0009A1070009A4908521C00920029DC
:10052000F5D108BD704770477047704710B500F0AF
:1005300001FA10BD7047000010B50321014800F01A
:1005400003F810BD00020240816070470029016875
:1005500002D08022114301E0014A1140016070473E
:100560007FFF00000029416902D08022114301E091
:10057000014A1140416170477FFF00004269332307
:100580009A43426142698B881A430B8849880B431E
:100590001A4342617047002A026801D00A4302E010
:1005A000C94389B20A400260704710B502686F23E0
:1005B0009A430B884C8823438C881443234303605D
:1005C0008A684260CA68C260C988816110BD30B55E
:1005D00001240023214202D09D002D182A635B1CB8
:1005E0006400DBB2082BF5D330BD000004498A015A
:1005F0000028086801D0104300E09043086070476D
:100600000000024004490A6807231B059A430A6058
:100610000A6802430A60704700000240044A002949
:10062000116801D0014300E0814311607047000070
:100630000000024001220549D2050028086801D0C7
:10064000104300E090430860704700000020024023
:1006500004490A6807231B059A430A600A68024393
:100660000A6070470020024004490A6807231B05FE
:100670009A430A600A6802430A60704700300040EB
:1006800000B50246FF2000F0DDF805494023486927
:10069000002A01D0184300E09843486100BD0000E3
:1006A0000030004000B50246FF2000F0CBF80549BD
:1006B00020234869002A01D0184300E0984348618C
:1006C00000BD0000003000407047000000B5024649
:1006D000FF2000F0B7F80549CB134869002A01D084
:1006E000184300E09843486100BD0000003000401E
:1006F00000B50246FF2000F0A5F80549022348692D
:10070000002A01D0184300E09843486100BD000072
:100710000030004000B50246FF2000F093F8054984
:10072000002A486902D00122104301E0400840003D
:10073000486100BD00300040F8B50546FF2000F0DC
:1007400081F821480326012736033F031F4C8542C9
:1007500029D00121084601E04900401CE2699207C6
:10076000920F521C8242F7D2E0690004000E400052
:10077000FFF73AFD402805D36069B04360616069C6
:1007800038436061FF2000F05DF860690721C9010E
:100790008843284360616069802108436061606923
:1007A00000060DD40EE06069B043606160693843B3
:1007B000606161698020814361616069000601D4E4
:1007C0000020F8BD0120F8BD7FFF00000030004090
:1007D00010B50C4C0423024601280ED0FF2000F077
:1007E00031F820699843206107498869602398435C
:1007F000886188691043886110BD206918432061B1
:1008000010BD000000E000E0003000400549002875
:10081000086902D00322104301E0800880000861CB
:100820007047000000E000E00449401E884203D801
:10083000034948610020886170470000FFFFFF0006
:1008400000E000E0402803D30249C8600020704760
:1008500001207047003000401FB5002069468881A4
:1008600003214904009101214903104C0191029098
:1008700069462046FFF7C2FD1F212046FFF7CEFD47
:100880000022A1152046FFF7B1FD00212046FFF709
:100890009AFD03211D2000F0C7FB1D2000F0B8FBCE
:1008A00001212046FFF785FD1FBD000010210240F9
:1008B00070B58CB010206946088002251B4E4D8013
:1008C00000248C803046FFF7DFFD20206946088138
:1008D0004D818C8102A93046FFF7D6FD680269463A
:1008E00008824D828C8204A93046FFF7CDFDA80214
:1008F000694608834D838C8306A93046FFF7C4FD03
:100900008020694608844D84094E8C8408A93046AD
:10091000FFF7BAFDE801694608854D858C850AA96F
:100920003046FFF7B1FD0CB070BD00000012014071
:100930000010014010B5FFF7BBFF00F00FF800F00A
:100940007BF800F0A1F800F04DF900F0B1F800F0EC
:10095000F9F800F013F8FFF77FFF10BD05480622F5
:10096000016A1143016204480922016A120311431A
:1009700001627047001001400011014070B586B05F
:10098000FF20FFF75FFF01210D022846FFF746FE1B
:10099000284E002201213046FFF719FE6322022172
:1009A0003046FFF714FE632204213046FFF70FFEA6
:1009B000632208213046FFF70AFE0022102130464C
:1009C000FFF705FE002220213046FFF700FE00223F
:1009D00040213046FFF7FBFD002280213046FFF723
:1009E000F6FD002468468480032101806321C180D4
:1009F0000E20029003946846448069463046FFF713
:100A0000D4FD2021684601824482848204A93046B4
:100A1000FFF7B4FD00213046FFF7A4FD0022294670
:100A20003046FFF7B8FD01213046FFF78FFD06B0D5
:100A300070BD00000002024010B5FF20FFF702FF6A
:100A40000020FFF72FFE0020FFF764FE0120FFF7D4
:100A50004FFE0120FFF714FE0120FFF737FE094883
:100A6000FFF76AFE0020FFF7FFFD0020FFF7CAFD39
:100A70000120FFF7BBFD0020FFF7EAFD0120FFF793
:100A8000D9FD10BD7FFF000010B5FF20FFF7DAFE93
:100A90000020FFF79DFE7D20C001FFF7C5FE00216D
:100AA000481E00F0C1FA0120FFF7B0FE10BD0000A3
:100AB00030B585B001210220FFF7B0FD0024684663
:100AC000052144800902018083218480090201817B
:100AD0001B4DC4806946284600F064F9684684814D
:100AE000C48103A9284600F00BF90021284600F034
:100AF000FBF868460482448204A9284600F01EF9E7
:100B000032220221284600F035F900220121284630
:100B100000F00AF901222021284600F0DBF801222A
:100B20004021284600F0D6F801221021284600F086
:100B3000D1F80121284600F0C1F805B030BD000011
:100B40004001024030B585B001210420FFF766FD69
:100B500000246846052144800902018084801F49E1
:100B600001811F4DC4806946284600F01BF9684684
:100B70008481C48103A9284600F0C2F800212846D8
:100B800000F0B2F8022168460182448204A9284696
:100B900000F0D4F80021284600F0FCF832220221AF
:100BA000284600F0E7F800220121284600F0BCF8B2
:100BB00000222021284600F08DF8002240212846FE
:100BC00000F088F800221021284600F083F8012167
:100BD000284600F073F805B030BD0000237F000008
:100BE0008001024070B588B02021684681810125CE
:100BF000C5810024214E048203A93046FFF744FC3E
:100C0000402168468182C582048305A93046FFF7EA
:100C10003BFC01211020FFF701FD02216846018005
:100C20000521090241808480502002906846C480DA
:100C3000134C6946204600F0BDF9E903204600F058
:100C4000D1F901221146204600F0AAF900228021A4
:100C5000204600F09BF900224021204600F096F942
:100C60000321172000F0E0F9172000F0D1F901214D
:100C7000204600F07FF908B070BD00000010014070
:100C80006000024070477047704700000120024931
:100C9000C00688607047000000ED00E0704700006B
:100CA00010B50721014800F007F810BD40010240CF
:100CB0007047704770477047C160704700290168EE
:100CC00002D08022114301E0014A114001607047C7
:100CD0007FFF0000002A826901D00A4302E0C94375
:100CE00089B20A40826170470029016802D001225E
:100CF000114301E0014A114001607047FEFF00000E
:100D000010B54B8802683C2492B2A243054CA04225
:100D100004D1082B00D01A43026010BD09880B4390
:100D2000F9E7000000010240002A826901D00A436D
:100D300002E0C94389B20A408261704710B54A880F
:100D40000B8801680F24E402A143094CA04203D19F
:100D5000022B01D0022A05D1A04207D0012B05D0D9
:100D6000012A03D05B03D20213431943016010BD73
:100D700000010240064B984201D0022905D098425A
:100D800002D1012900D14261704702617047000021
:100D90000001024002680123DB049A430A43026017
:100DA0007047000030B50368074A8C8813400A88F2
:100DB000CD8822434C886D012C4322431A430260A4
:100DC00009898160416030BD9DF8FFFF30B50A227E
:100DD00004460D4D544362190B0000F00CF9070551
:100DE00007090B120E101200285D30BD907830BD3F
:100DF000D07830BD0549085C30BD507830BD5079A1
:100E000030BD002030BD0000EC10000807000020BD
:100E10000A2148430149401800797047EC10000846
:100E200010B500F001F810BD10B500244948C068A5
:100E3000022108434749C8600846806981B2464894
:100E4000007806225043454A115243480078401C1E
:100E5000414908700846007841490978884209DB11
:100E600000203D4908703F480078802108433D49F3
:100E7000087000E0012438480078FFF7C9FF3A49BC
:100E80000988484380B23349C8610221324800785A
:100E9000FFF79CFF000700092E4909690F2212067F
:100EA000914308432B49086100212B480078FFF744
:100EB0008DFF0007000C2749C9680F2212039143D8
:100EC00008432449C860062123480078FFF77EFFC5
:100ED0008007204909698900890808431D4908617C
:100EE00003211D480078FFF771FF000219490969C5
:100EF0007F22520291430843164908610521164892
:100F00000078FFF763FF8007800812490969032210
:100F10001207914308430F49086101210E480078E8
:100F2000FFF754FF0B490969090A090208430949F7
:100F300008610E4808490978415C0120884005494C
:100F40000860012C05D10846C06801210843014909
:100F5000C86010BD00220240510000206000002047
:100F60004400002040000020520000200400002027
:100F7000704770470029016802D08022114301E0C8
:100F8000014A1140016070477FFF0000002A02699A
:100F900001D00A4302E0C94389B20A4002617047A6
:100FA000002A026901D00A4302E0C94389B20A401B
:100FB0000261704710B50368094A4C8813400A88DB
:100FC00022438C881C43224302608268CB88097AC2
:100FD000120A12024906090E11430B43836010BD29
:100FE000FC3FFFFF026803239B039A430A4302600E
:100FF00070477047704730B47446641E2578641C8F
:10100000AB4200D21D46635D5B00E31830BC18475D
:10101000002805DBC106C90E01208840014908608F
:101020007047000000E100E08307FF22DB0E9A40DA
:101030008907090E9940002808DB830809489B00AE
:101040001818036893430B43036070470007000FB1
:101050000838830804489B001818C36993430B435E
:10106000C361704700E400E000ED00E0FFF75EFAC6
:10107000022500211A48FFF721FE3220FFF7D6F99A
:10108000184E194C6F0210212046FFF72DFA3946F1
:101090002046FFF729FA0121C9022046FFF724FA6A
:1010A00080213046FFF720FAFF2101313046FFF75B
:1010B0001BFA2B00FFF79FFF030303040300E2E783
:1010C0007D20C000FFF7C1F920212046FFF70CFA70
:1010D000C820FFF7BAF920212046FFF714FAD2E71B
:1010E00080010240001001400012014006022E045F
:1010F00008030E050FFF06022E04080311050FFF5B
:1011000006022E0408030F050FFF00002C11000833
:101110000000002060000000040100088C1100089D
:101120006000002078060000200100080000000098
:10113000000000000000011D1E1F00000000000054
:101140000000000000000003200014006400000004
:10115000000000000000000000000000000001008E
:1011600000000000000096000000000000000000E9
:10117000000000000000000000000000000000006F
:0C11800000000000000000000000000063
:04000005080000C12E
:00000001FF
