:020000040800F2
:1000000060060020490100086F0100087101000826
:100010007301000875010008770100080000000066
:10002000000000000000000000000000790100084E
:100030007B010008000000007D0100081D0C000885
:10004000090500080D0500080F0500080B0500084C
:10005000AD060008000000000D040008E30D0008D4
:10006000E50D0008190C00081B0C00082704000807
:10007000290400082B0400082D040008310C000896
:10008000350C0008450C0008470C0008490C000816
:100090004B0C00081D05000819050008610D00083B
:1000A000630D0008000000000000000000000000D8
:1000B00000000000C10300082504000881010008B9
:1000C00000F002F800F030F80CA030C8083824180E
:1000D0002D18A246671EAB4654465D46AC4201D180
:1000E00000F022F87E460F3E0FCCB6460126334282
:1000F00000D0FB1AA246AB4633431847B00D0000B0
:10010000C00D00000023002400250026103A01D372
:1001100078C1FBD8520700D330C100D50B607047BF
:100120001FB51FBD10B510BD00F000F91146FFF757
:10013000F7FF00F093FE00F018F903B4FFF7F2FFA9
:1001400003BC00F01FF90000114812490160124879
:1001500012490160124813490160134813490160B4
:100160000F48134901601348804713480047FEE7D2
:10017000FEE7FEE7FEE7FEE7FEE7FEE7FEE7FEE757
:10018000FEE700000D480E490E4A0F4B7047000075
:100190001030004010005FA0DC03004001005FA0B1
:1001A00000100240000080005C10024060005FA070
:1001B00000000000210C0008C100000860000020C1
:1001C0006006002060020020600200200022030977
:1001D0008B422CD3030A8B4211D300239C464EE062
:1001E00003460B433CD4002243088B4231D303091E
:1001F0008B421CD3030A8B4201D394463FE0C309D0
:100200008B4201D3CB01C01A524183098B4201D3E7
:100210008B01C01A524143098B4201D34B01C01AD2
:10022000524103098B4201D30B01C01A5241C3084A
:100230008B4201D3CB00C01A524183088B4201D3B9
:100240008B00C01A524143088B4201D34B00C01AA5
:100250005241411A00D201465241104670475DE0BA
:10026000CA0F00D04942031000D34042534000223D
:100270009C4603098B422DD3030A8B4212D3FC22E6
:10028000890112BA030A8B420CD3890192118B4265
:1002900008D3890192118B4204D389013AD092117B
:1002A00000E08909C3098B4201D3CB01C01A524136
:1002B00083098B4201D38B01C01A524143098B42FF
:1002C00001D34B01C01A524103098B4201D30B01E8
:1002D000C01A5241C3088B4201D3CB00C01A52410D
:1002E00083088B4201D38B00C01A5241D9D24308F4
:1002F0008B4201D34B00C01A5241411A00D2014631
:10030000634652415B10104601D34042002B00D59A
:100310004942704763465B1000D3404201B500205C
:10032000C046C04602BD704770477047754600F032
:1003300025F8AE46050069465346C008C00085460C
:1003400018B020B5FFF71EFF60BC00274908B6466D
:100350000026C0C5C0C5C0C5C0C5C0C5C0C5C0C5D4
:10036000C0C5403D49008D46704710B50446C046A3
:10037000C0462046FFF7E1FE10BD00000048704770
:100380000000002001491820ABBEFEE72600020055
:100390007047416070470122D2030029016801D0F3
:1003A000114300E0914301607047012212030029CC
:1003B000016801D0114300E09143016070470000E3
:1003C00010B501210148FFF7E4FF10BD10210240E4
:1003D000002A026801D00A4300E08A4302607047A5
:1003E00010B50268054B8C681A400B6823438C8952
:1003F0001443234303604968C16010BDE0F7C8FFA0
:100400000268520952010A430260704770470000B7
:1004100010B502460221024800F076FC10BD000033
:10042000800102407047704770477047704770B551
:1004300000247D260546F60003E0304600F004F86F
:10044000641CAC42F9DB70BD70B5074C0546012158
:10045000204600F0FDFB6068A842FCD30021204646
:10046000616000F0F5FB70BD40010240F0B54B88C3
:100470000A88022B04D0012B06D0002B0BD011E0F0
:10048000036A134303620DE0036A93430362026C41
:100490000B881A4305E0036A93430362026C0B88DE
:1004A0009A430264036E00220E88032701249440BD
:1004B000264206D054003D46A540AB438D88A5405A
:1004C0002B43521C102AF1D30366F0BD08B50090EF
:1004D000002007E0CA0701D0009A1070009A49086E
:1004E000521C00920029F5D108BD08B500900120EA
:1004F00007E0CA0701D0009A1070009A4908521C00
:1005000000920029F5D108BD7047704770477047C9
:1005100010B500F0D9F910BD7047000010B50321E7
:10052000014800F003F810BD0002024081607047EE
:100530000029016802D08022114301E0014A1140E4
:10054000016070477FFF00000029416902D08022CE
:10055000114301E0014A1140416170477FFF0000F3
:10056000426933239A43426142698B881A430B885C
:1005700049880B431A4342617047002A026801D040
:100580000A4302E0C94389B20A400260704710B5CD
:1005900002686F239A430B884C8823438C8814434A
:1005A000234303608A684260CA68C260C988816167
:1005B00010BD30B501240023214202D09D002D182A
:1005C0002A635B1C6400DBB2082BF5D330BD00004E
:1005D00004498A010028086801D0104300E09043D4
:1005E000086070470000024004490A6807231B05A1
:1005F0009A430A600A6802430A607047000002409A
:10060000044A0029116801D0014300E081431160D0
:10061000704700000000024001220549D205002871
:10062000086801D0104300E0904308607047000064
:100630000020024004490A6807231B059A430A6008
:100640000A6802430A6070470020024004490A68B1
:1006500007231B059A430A600A6802430A60704731
:100660000030004000B50246FF2000F0DDF80549EB
:1006700040234869002A01D0184300E098434861AC
:1006800000BD00000030004000B50246FF2000F031
:10069000CBF8054920234869002A01D0184300E01F
:1006A0009843486100BD00000030004070470000E2
:1006B00000B50246FF2000F0B7F80549CB134869A2
:1006C000002A01D0184300E09843486100BD0000B3
:1006D0000030004000B50246FF2000F0A5F80549B3
:1006E00002234869002A01D0184300E0984348617A
:1006F00000BD00000030004000B50246FF2000F0C1
:1007000093F80549002A486902D00122104301E00C
:1007100040084000486100BD00300040F8B5054683
:10072000FF2000F081F821480326012736033F030C
:100730001F4C854229D00121084601E04900401C98
:10074000E2699207920F521C8242F7D2E0690004DC
:10075000000E4000FFF73AFD402805D36069B04322
:100760006061606938436061FF2000F05DF8606996
:100770000721C901884328436061606980210843DB
:100780006061606900060DD40EE06069B04360618D
:10079000606938436061616980208143616160699B
:1007A000000601D40020F8BD0120F8BD7FFF000045
:1007B0000030004010B50C4C0423024601280ED036
:1007C000FF2000F031F820699843206107498869CB
:1007D00060239843886188691043886110BD20694F
:1007E0001843206110BD000000E000E00030004030
:1007F00005490028086902D00322104301E080085F
:10080000800008617047000000E000E00449401EDD
:10081000884203D80349486100208861704700007E
:10082000FFFFFF0000E000E0402803D30249C8605A
:100830000020704701207047003000401FB50020A5
:100840006946888103214904009101214903104C24
:100850000191029069462046FFF7C2FD1F21204604
:10086000FFF7CEFD0022A1152046FFF7B1FD0021C4
:100870002046FFF79AFD03211D2000F0CDFA1D2030
:1008800000F0BEFA01212046FFF785FD1FBD0000E4
:10089000102102407FB51021684601800224448067
:1008A0000025084E858069463046FFF7DFFD202190
:1008B000684601814481858102A93046FFF7D6FD53
:1008C0007FBD00000012014010B5FFF7E3FF00F00C
:1008D0000FF800F07BF800F0A1F800F04DF900F0FF
:1008E000B1F800F0F9F800F013F8FFF7A7FF10BD1A
:1008F00005480622016A1143016204480922016A7F
:1009000012031143016270470010014000110140C1
:1009100070B586B0FF20FFF787FF01210D02284642
:10092000FFF76EFE284E002201213046FFF741FE00
:10093000632202213046FFF73CFE63220421304649
:10094000FFF737FE632208213046FFF732FE002210
:1009500010213046FFF72DFE002220213046FFF700
:1009600028FE002240213046FFF723FE002280218E
:100970003046FFF71EFE0024684684800321018074
:100980006321C1800E20029003946846448069462A
:100990003046FFF7FCFD20216846018244828482B4
:1009A00004A93046FFF7DCFD00213046FFF7CCFDFF
:1009B000002229463046FFF7E0FD01213046FFF7CF
:1009C000B7FD06B070BD00000002024010B5FF2068
:1009D000FFF72AFF0020FFF757FE0020FFF78CFEED
:1009E0000120FFF777FE0120FFF73CFE0120FFF713
:1009F0005FFE0948FFF792FE0020FFF727FE002068
:100A0000FFF7F2FD0120FFF7E3FD0020FFF712FEE4
:100A10000120FFF701FE10BD7FFF000010B5FF2091
:100A2000FFF702FF0020FFF7C5FE7D20C001FFF7A2
:100A3000EDFE0021481E00F0EFF90120FFF7D8FE7F
:100A400010BD000030B585B001210220FFF7D8FDB0
:100A500000246846052144800902018083218480A6
:100A6000090201811B4DC4806946284600F064F9E3
:100A700068468481C48103A9284600F00BF900214F
:100A8000284600F0FBF868460482448204A9284600
:100A900000F01EF932220221284600F035F900222A
:100AA0000121284600F00AF901222021284600F001
:100AB000DBF801224021284600F0D6F8012210215F
:100AC000284600F0D1F80121284600F0C1F805B011
:100AD00030BD00004001024030B585B00121042046
:100AE000FFF78EFD0024684605214480090201803D
:100AF00084801F4901811F4DC4806946284600F04B
:100B00001BF968468481C48103A9284600F0C2F815
:100B10000021284600F0B2F8022168460182448292
:100B200004A9284600F0D4F80021284600F0FCF87B
:100B300032220221284600F0E7F80022012128464F
:100B400000F0BCF800222021284600F08DF8002299
:100B50004021284600F088F800221021284600F0A5
:100B600083F80121284600F073F805B030BD00007D
:100B7000237F00008001024070B588B020216846C4
:100B800081810125C5810024214E048203A93046BC
:100B9000FFF76CFC402168468182C582048305A969
:100BA0003046FFF763FC01211020FFF729FD0221E9
:100BB000684601800521090241808480502002900E
:100BC0006846C480134C6946204600F0EBF8E90300
:100BD000204600F0FFF801221146204600F0D8F828
:100BE00000228021204600F0C9F800224021204642
:100BF00000F0C4F80321172000F00EF9172000F0D0
:100C0000FFF80121204600F0ADF808B070BD0000EB
:100C100000100140600002407047704770470000BC
:100C200001200249C00688607047000000ED00E026
:100C30007047000010B50721014800F007F810BD0B
:100C4000400102407047704770477047C16070476D
:100C50000029016802D08022114301E0014A1140BD
:100C6000016070477FFF0000002A826901D00A43BB
:100C700002E0C94389B20A408261704700290168D5
:100C800002D00122114301E0014A11400160704786
:100C9000FEFF000010B54B8802683C2492B2A243CC
:100CA000054CA04204D1082B00D01A43026010BDAD
:100CB00009880B43F9E7000000010240002A82691D
:100CC00001D00A4302E0C94389B20A4082617047F9
:100CD00010B54A880B8801680F24E402A143094C2F
:100CE000A04203D1022B01D0022A05D1A04207D095
:100CF000012B05D0012A03D05B03D2021343194311
:100D0000016010BD00010240064B984201D002294B
:100D100005D0984202D1012900D142617047026199
:100D2000704700000001024002680123DB049A437F
:100D30000A4302607047000030B50368074A8C8898
:100D400013400A88CD8822434C886D012C432243EE
:100D50001A43026009898160416030BD9DF8FFFF40
:100D6000704770470029016802D08022114301E0DA
:100D7000014A1140016070477FFF0000002A0269AC
:100D800001D00A4302E0C94389B20A4002617047B8
:100D9000002A026901D00A4302E0C94389B20A402D
:100DA0000261704710B50368094A4C8813400A88ED
:100DB00022438C881C43224302608268CB88097AD4
:100DC000120A12024906090E11430B43836010BD3B
:100DD000FC3FFFFF026803239B039A430A43026020
:100DE00070477047704730B47446641E2578641CA1
:100DF000AB4200D21D46635D5B00E31830BC184770
:100E0000002805DBC106C90E0120884001490860A1
:100E10007047000000E100E08307FF22DB0E9A40EC
:100E20008907090E9940002808DB830809489B00C0
:100E30001818036893430B43036070470007000FC3
:100E40000838830804489B001818C36993430B4370
:100E5000C361704700E400E000ED00E0FFF758FBDD
:100E6000022400210F48FFF7F3FE3220FFF7D0FAEB
:100E70007D260D4DF6002300FFF7B5FF03030304A5
:100E80000300F8E73046FFF7D2FA20212846FFF7A3
:100E90001DFBC820FFF7CBFA20212846FFF725FBD2
:100EA000E9E700008001024000120140BC0E00088A
:0C0EB000000000206006000004010008A3
:04000005080000C12E
:00000001FF
